:020000040800F2
:10000000D0070020250300089F3B0008B9390008ED
:100010009D3B0008911D0008C3400008000000003F
:10002000000000000000000000000000A33B0008EA
:10003000051E000800000000A13B0008A53B0008C9
:100040003F0300083F0300083F0300083F03000888
:100050003F0300083F0300083F0300083F03000878
:100060003F0300083F0300083F030008951D0008F8
:100070003F0300083F0300083F0300083F03000858
:100080003F03000800000000851D00083F03000832
:100090003F0300083F0300083F0300083F03000838
:1000A0003F0300083F0300083F0300083F03000828
:1000B0003F0300083F0300083F0300083F03000818
:1000C0003F0300083F0300083F0300083F03000808
:1000D0003F0300083F0300083F0300083F030008F8
:1000E0003F0300083F0300083F0300083F030008E8
:1000F0003F0300083F0300083F0300080000000022
:10010000000000003F030008000000003F0300085B
:100110003F030008000000003F0300083F03000801
:100120003F0300083F0300083F0300083F030008A7
:100130003F03000800000000000000003F0300082B
:100140003F0300083F03000800000000000000001B
:10015000000000000000000000000000000000009F
:100160000000000000000000000000003F03000845
:100170003F03000800000000000000000000000035
:10018000000000003F030008000000000000000025
:10019000000000000000000000000000000000005F
:1001A00000000000000000003F0300083F030008BB
:1001B0003F0300083F0300083F0300080000000061
:1001C000000000003F0300080000000000000000E5
:1001D0003F0300083F03000800F002F800F092F827
:1001E0000AA090E8000C82448344AAF10107DA4592
:1001F00001D100F087F8AFF2090EBAE80F0013F052
:10020000010F18BFFB1A43F00103184720410000FB
:1002100040410000103A24BF78C878C1FAD852078C
:1002200024BF30C830C144BF04680C607047000070
:100230000023002400250026103A28BF78C1FBD8EF
:10024000520728BF30C148BF0B6070476E2900F0CD
:100250000382702900F04D83662903F0C487652965
:1002600003F0C187672903F0BE87612903F0BD87CA
:1002700003681B0A28BF41F08001692900F0B081A2
:10028000642900F0AD81752900F0AA816F2900F082
:10029000DA82782900F01983E92900F07582E429CF
:1002A00000F07282F52900F06F82EF2900F0D7820A
:1002B000F82900F018830368DB0928BF41F08001AA
:1002C000632901F01B80732901F02080E32901F0EC
:1002D0002B80F32901F03080002070471FB503F018
:1002E0007DFF01F07BF804000020002103F060FF97
:1002F000401C60600020002103F044FFE0601FBD4F
:1003000010B510BD01F03CF81146FFF7E7FF03F010
:1003100009FF01F019F903B4FFF7F2FF03BC01F084
:1003200061F900000948804709480047FEE7FEE7F9
:10033000FEE7FEE7FEE7FEE7FEE7FEE7FEE7FEE795
:1003400004480549054A064B704700000D3C00086B
:10035000D9010008D0010020D0070020D0030020E0
:10036000D003002053EA020C00F069802DE9F04B25
:100370004FF00006002B1FBFB3FA83F503FA05F414
:1003800024FA05F65E4012BF1643B2FA82F502FA6D
:1003900005F4C5F120051EBF22FA05FC44EA0C0451
:1003A000203556EA044C4FEA144418BF641C4FF041
:1003B00000084FF00009904271EB030C39D300297B
:1003C00019BFB1FA81F701FA07F6B0FA80F700FA1F
:1003D00007F6C7F120071EBF20FA07FC46EA0C0605
:1003E0002037B6FBF4FCA7EB0507103F07F01F0B07
:1003F000CBF120060CFA0BFB2CFA06F644BFB346F1
:100400000026202FA4BF5E464FF0000B5BEA060CCF
:1004100008BF4FF0010B19EB0B09ABFB027C48EB5B
:100420000608C01B06FB02CC0BFB03CC71EB0C01D6
:10043000C1E70B46024641464846BDE8F08B13B57E
:100440004FF000004FF00001AFF30080BDE81C400A
:10045000704700007CB51D4616460C00009001D088
:100460002044401E074B7B442A4669460190304693
:1004700000F00BF905461CB10020694600F018F9A0
:1004800028467CBD5102000010B5431C02E010F864
:10049000011B71B18107FAD14FF0013202C88C1AE9
:1004A0008C4314EAC211F9D0C01A0A0603D0C01E48
:1004B00010BDC01A10BD0A0401D0801E10BD090273
:1004C000FCD0401E10BD4FF0000200B5134694460C
:1004D0009646203922BFA0E80C50A0E80C50B1F19C
:1004E0002001BFF4F7AF090728BFA0E80C5048BFB0
:1004F0000CC05DF804EB890028BF40F8042B08BF4E
:10050000704748BF20F8022B11F0804F18BF00F849
:10051000012B704770477047704770B50446856976
:100520000068C10601D5302600E02026C00707D0AC
:1005300070BDD4E9012130469047206A401C2062FA
:100540006D1EF6D570BD70B5044685690078C0078C
:1005500007D170BDD4E9012120209047206A401CBA
:1005600020626D1EF6D570BD09684A0501D540B2FE
:100570007047C905FCD500B2704709684A0501D526
:10058000C0B27047C905FCD580B2704770B50C4643
:100590000546012A05D02878800600D5EA6900239F
:1005A00002E0012305E05B1C934202D2E05C0028DC
:1005B000F9D1A869E618C01AA861286A1844286207
:1005C0002846FFF7AAFF04E0D5E9012114F8010B42
:1005D0009047B442F8D32846FFF7B5FF70BD00003E
:1005E0002DE9F0410646002410687529314616A50C
:1005F00010D0FFF7B9FF002802DA404213A507E048
:1006000031688A0701D512A502E0490704D511A572
:10061000012401E0FFF7B1FF00210A2206F12407BF
:1006200009E0B0FBF2FCB0FBF2F302FB1C0030303F
:1006300078541846491C0028F3D123462A463046F0
:10064000BDE8F04100F069BA000000002D00000094
:100650002B0000002000000011680268006A5305AA
:1006600001D508700AE0D30501D5088006E013061D
:1006700003D5C217C1E9000200E0086001207047FD
:1006800001694A1C02610878704700B58FB0CDE956
:1006900001310021059105497944CDE90310114646
:1006A000684600F031F90FB000BD0000E5FFFFFF24
:1006B0000A6802F8010B0A607047D1E900239A42E8
:1006C00002D2531C0B601070704700002DE9FF5FD1
:1006D00015468A460446DFF8AC80F8440027D8E97E
:1006E00000103E46CDE9001010E03AF816106A46B8
:1006F00002A800F025FE411C07D02178890603D509
:10070000E269391891420DD80744761C207880069A
:1007100002D5E069B84205DDAE42E6DB3AF81600E4
:100720000028E2D1A069C01BA0612046FFF7F5FEBA
:10073000D8E90010CDE90010002017E03AF81810B1
:100740006A4602A800F0FCFDB0F1FF3F81460BD0E5
:1007500000250DF1080B05E0D4E901211BF8050087
:1007600090476D1C4D45F7D308F10100B04280461B
:10077000E4DB206A384420622046FFF7E4FEBDE84F
:10078000FF9F0000523B00002DE9F0418046D21D42
:1007900022F007020025D2E90002F52915A614D09F
:1007A000011E72F1000106DA0023D0EB030063EBB7
:1007B000020211A608E0D8F800108B0701D50FA699
:1007C00002E0490701D50EA601251146002408F1D3
:1007D000240704E000F05CF930323A55641C50EA1A
:1007E0000102F7D12B46324621464046BDE8F04192
:1007F00000F093B9000000002D0000002B00000065
:100800002000000030B4002100F1240408E002F0D0
:100810000705D208303542EA4372DB086554491CAB
:1008200052EA0305F3D10468002310A2250707D577
:10083000A40600D421B1C46901230DA2641EC461C1
:1008400030BC00F06AB910B5044621461068FFF7C5
:1008500094FE02462046BDE810400023D2E7D21D98
:1008600022F00701D1E90023CCE7000000000000DE
:1008700030000000F0B40D460188090502D5214C76
:100880007C4402E01F4C7C440E34002100F124061D
:1008900008E002F00F071209E75D42EA03721B0944
:1008A0007754491C52EA0307F3D102780023120758
:1008B00004D5702D06D009B1022311342246F0BCB4
:1008C00000F02BB901231034F8E770B504460D464B
:1008D00021461068FFF751FE024629462046BDE832
:1008E00070400023C6E7D21D22F00703D3E900239E
:1008F000C0E70368126843F0200303600823C36164
:100900000023B7E7B43900002DE9F05F89460446BB
:100910004FF0000ADFF874B1FB44C0F820A0204675
:10092000E1688847002874D0252806D0D4E9012141
:100930009047206A401C2062F1E700265F4620466F
:10094000E16888472028054607DB312D05D2781954
:1009500010F8200C08B10643F1E7B00701D526F0E6
:100960000406C4F81CA00027C4F818A02A2D09D03A
:10097000284603F0CFFB38B304EB8708303DC8F8B6
:10098000185019E059F8041B204604EB87029161C6
:10099000E1688847012F054618D1E069002820DA70
:1009A00026F020061DE0D8F8180000EB800005EBCB
:1009B00040003038C8F818002046E16888470546EE
:1009C00003F0A8FB0028EED1012F0AD02E2D08D16C
:1009D0002046E16888477F1C0546022F46F0200626
:1009E000C4DBA069002803DA404246F00106A0619A
:1009F000F00701D026F010066C2D0BD0682D09D021
:100A00004C2D39D06A2D35D0742D35D07A2D33D078
:100A100016E038E0E1682F4620468847B842054690
:100A200009D16C2F26D04FF48060E1680643204640
:100A30008847054604E06C2F1AD04FF480700643B7
:100A40000DB3A5F14100192802D8203546F40066FF
:100A50004A462946204626604E46FFF7F7FB80B1FE
:100A600001280BD0F61D26F0070000F1080956E713
:100A70004020E4E78020D8E70020D6E706F104090B
:100A80004DE7284652E7206ABDE8F09F4439000050
:100A900030B5B0F10A024FEA900E71F100034EEA50
:100AA000817EB0EB0E0061EB91014FEA101E4EEA21
:100AB000017E10EB0E0041EB11114FEA102E4EEAB1
:100AC000016E10EB0E0041EB11214FEA104E4EEA81
:100AD000014E10EB0E0041EB1141401841F10001B5
:100AE0004FEAD00040EA41704FEAD10110EB800597
:100AF0004FEA810444EA907444EB01046D1944EB1D
:100B00000404521BA3414FF0000348BF0A3200D532
:100B100030BD401C41F1000130BD2DE9F0470D46CC
:100B200099469246044600F124080168880604D5D7
:100B3000E06921F01001216000E00120A84201DD00
:100B4000471B00E00027A1697A1902EB0900081A87
:100B5000A0612078C00602D42046FFF7DEFC002604
:100B600008E0D4E901211AF806009047206A401CE9
:100B7000761C20624E45F4DB2078C0060AD520465C
:100B8000FFF7CBFC06E0D4E9012130209047206A32
:100B9000401C2062381EA7F10107F4DC07E0D4E90D
:100BA000012118F805009047206A401C2062281E89
:100BB000A5F10105F3DC2046FFF7C5FC207800060F
:100BC00002D50220BDE8F0870120FBE770472DE940
:100BD000FF4F0C461E464FF0FF378BB0D2E90001A5
:100BE000DDF860800A908A46C1F30A5505B93D4692
:100BF000002108464FF00000BAF1000F00F4400059
:100C000005DA00EB80004FF4400101EA50004FEAA2
:100C10009059B9F1010F00DDB9460A9850EA4A002F
:100C20000ED044F61050A5F2FF3545432F14B8F10D
:100C3000000F1ED07542291E1EDDC9F100021CE006
:100C4000B8F1010F4FF0000001D0302103E0F24372
:100C500005E02154401CB042FBDB3046002200215D
:100C600021540B99C1F80880C1E900200FB0BDE8FC
:100C7000F08FBD1B6D1CDEE74A4600DA694206A80C
:100C800000F0F0FB06AB93E8070003AB83E8070036
:100C900050460A9900F0ADFC8DE80700A0F5005021
:100CA0001F3800900398002D0ADD42F21F014A46CA
:100CB0000844002303A90390684600F016FF09E0EA
:100CC000A0F500504A461F38002303A90390684648
:100CD00000F020FF8DE807000004000C03D04FF067
:100CE000FF30410800E01046B8F1000F03D00022A9
:100CF000009215461EE0751E05D4FFF7C9FE30327E
:100D000062556D1EF9D5B3460122084302D0002278
:100D10007F1C04E02078302801D100227F1E002AA9
:100D2000099784D01DE0112D07DAFFF7B1FE3032AC
:100D300062556D1C50EA0102F5D1084302D00098BB
:100D4000C8B10EE00021681E05E0235C625C6354BC
:100D50002254401E491C8142F7DBAB46A81B401EB3
:100D60000990002004F80B000B98099AC0F808803D
:100D7000C0E9002B7AE711264FF0000857E72DE96C
:100D8000F04F88460446D21D22F0070191B0D1E908
:100D90000001CDE90A0103F095F902460B98C00F56
:100DA00001D02D2007E02068810701D52B2002E02B
:100DB000202101EAC000032A099001D0072A05DB9F
:100DC00003464146204600F00DFB0BE120788006EB
:100DD00001D5E06900E00620B8F1650F814606D034
:100DE000B8F1660F18D0B8F1670F70D131E000206C
:100DF000B9F1110F009001DB112301E009F10103AA
:100E00000AAA01A90CA8FFF7E2FEDDE90C70002692
:100E100009F10105834647E001204B4600904FF061
:100E200000470AAA01A90CA8FFF7D1FEDDE90DB021
:100E30000C995D46002610B909F101000D18B9EBB7
:100E4000050003D4C0F1FF3609F10105A5EB090047
:100E50002BE0B9F1010F01DA4FF001090020B9F1DF
:100E6000110F0090484601DD112300E003460AAA55
:100E700001A90CA8FFF7ABFEDDE90C704D4600267A
:100E80008346207800070AD4AB4500DA5D4601A806
:100E9000012D04DD411911F8011C302907D04F45FF
:100EA00002DA17F1040F04DA012082460FE06D1E0A
:100EB000EEE7002F02DCED1B3E4403E0781CA84265
:100EC00000DD7D1CB81B00F1010A4FF000472078BF
:100ED000000703D4AA4501DB4FF0FF3A0021B7F128
:100EE000004F0DF143088DF8431024D002202B232E
:100EF000002F01DA7F422D230A21021EA0F10100FA
:100F000000DC5FB197FBF1FC97FBF1F201FB1C7C6D
:100F100017460CF1300C08F801CDEEE7A8F10100FE
:100F200003702188090501D5452100E06521A0F164
:100F3000010800F8011C09980FA9A1EB0807FF1D83
:100F400000B10120411901EBEA70A1693844081A87
:100F5000401EA0612078C00602D42046FFF7DDFACB
:100F6000099828B1D4E901219047206A401C2062E9
:100F70002078C00622D52046FFF7CFFA1EE0002ECB
:100F800004DBB34502DD01A8805D00E03020D4E938
:100F900001219047206A401C2062761CAAF10100C2
:100FA0005FEA000A0AD100F019FAC0680168405CE3
:100FB000D4E901219047206A401C2062281EA5F137
:100FC0000105DCDC07E0D4E9012118F8010B9047AA
:100FD000206A401C2062381EA7F10107F3DC20467E
:100FE000FFF7B1FA032011B041E600002DE9F04F00
:100FF00004460D46D21D22F0070089B0D0E90097C3
:101000004846394603F05EF80246F80F01D02D231A
:1010100007E02068810701D52B2302E0202101EAA7
:10102000C0038DF820300BB1012000E00020032A1E
:10103000824601D0072A04DB2946204600F0D2F977
:101040003FE12078800601D40D2500E0E569C7F373
:101050000A560D2D49DA00214FEA175B08464FF07A
:101060000000002F00F4400007DA00EB80004FF48E
:10107000400100EBD07001EA60008115012901DD1B
:101080004FF0FF3100224FEA850CBCF1180F06D358
:101090001346ACF118004FF08052C24003E04FF409
:1010A000801323FA0CF30CF10C0CBCF1200F04D3C9
:1010B000ACF1200C09FA0CF001E007FA0CF0002961
:1010C0004FF0004801DD18B90FE00ED140450CD3B8
:1010D00019EB02095F4121B9404502D19F4329EA3A
:1010E0000209BBEB175F00D0761C2088000502D5F3
:1010F0007B48784402E07A487844193808AA3023BB
:1011000002F80A30037C0AF10101002E0AF1020AFA
:1011100053546A4602DC4FF0300101E04FF03101D8
:101120004FF001088DF8001002D0A6F2FF3603E060
:1011300059EA470100D06B4E002D02DC21780907E7
:1011400004D54FF002082E218DF80110C44600216D
:101150000BE0C7F303433F01C35C491C6D1E02F85B
:101160000830052908F1010801DA002DF1DC002121
:101170000CE000EB1973491C1B786D1E082902F85E
:1011800008304FEA091908F1010801DA002DF0DCF6
:1011900021688B0602D516E0A8F10108E04505DDBF
:1011A00002EB080313F8013C302BF5D0B8F1000F27
:1011B00009DD02EB080313F8013C2E2B03D10907CC
:1011C00001D4A8F10108002D05DD3E2102F8081028
:1011D0006D1E08F10108407C002E02F8080008F19D
:1011E000010804DA2D20764202F8080002E02B20E4
:1011F00002F808000A214FF47A70864208F10108CB
:101200000BDB96FBF0F3303302F8083096FBF0F37B
:1012100008F1010800FB136601E0642E0CDB64207A
:1012200096FBF0F3303302F8083096FBF0F308F148
:10123000010800FB136601E00A2E06DB96FBF1F0C5
:10124000303002F8080008F1010896FBF1F001FBCC
:101250001060303002F80800A16908F1010808EBBD
:10126000050202EB0A00081AA0612078C00602D429
:101270002046FFF752F9216A08AE01EB0A0020620E
:1012800004E0D4E9012116F8010B9047BAF1010AF4
:10129000F7D22078C00602D52046FFF73EF96E4609
:1012A00009E016F8010B3E280FD0D4E90121904740
:1012B000206A401C2062B8F10108F2D22046FFF7F4
:1012C00042F909B00320BDE8F08F206A284420626B
:1012D00003E0D4E90121302090476D1EEBD3F8E7FD
:1012E0008E31000002FCFFFF10B5436913B1AFF36C
:1012F000008001E0FFF74AF9012010BD127800F1EB
:1013000024010A7000224A700122EDE711684FF0B3
:10131000FF32E9E710B5436913B1AFF3008001E094
:10132000FFF7D4F9012010BD128800F12401828456
:101330000022C2840122EDE711684FF0FF32E9E795
:1013400070B516460C46054600F040F8036893F861
:101350000101012806D0FF2C0FD8185D68B10120CB
:101360002C7070BDD3F807013246214603F20713F3
:1013700003442846BDE8704018474FF0FF3070BD69
:10138000754600F0EBF8AE4605006946534620F07E
:101390000700854618B020B5FEF7D2FFBDE8204013
:1013A0004FF000064FF000074FF000084FF0000B21
:1013B00021F00701AC46ACE8C009ACE8C009ACE8D4
:1013C000C009ACE8C0098D467047000010B500F0B8
:1013D00005F8001D10BD00BFD92D00000048704762
:1013E0008C0100202DE9F0411F46044603260168C8
:1013F000072A01F4006004DB08B116A505E016A574
:1014000003E008B115A500E015A521F0100020604B
:10141000A069C01EA0610FB1401EA0612046FFF769
:101420007CF84FB1D4E9012138469047206A401C2E
:101430002062C01C206206E0206AFAE7D4E901219C
:1014400015F8010B9047761EF8D22046FFF77BF87F
:10145000BDE8F0814E414E006E616E00494E46007F
:10146000696E66002DE9F047814616468AB0354818
:1014700078440DC88DE80D0032487844801C03ACD8
:101480000DC884E80D0041F69B300844372190FBDD
:10149000F1F290FBF1F5A5F1800501FB12041B3C74
:1014A00002D56442012000E00020DFF898A08046C9
:1014B0000027FA44AAF1BE0A0EE0E0070AD032463D
:1014C000684607EB470101230AEB810100F022FB8C
:1014D0008DE8070064107F1C002CEED1194F7F446B
:1014E000AE3F19E0E80715D007EB04100DF1180A1C
:1014F00090E80E008AE80E00C068F04201D1981909
:1015000008903246012306A903A800F003FB03ABB1
:1015100083E807006D10641C002DE3D14FF0010338
:1015200032466946B8F1000F03A802D000F0DDFA98
:1015300001E000F0EFFAC9E90001C9F808200AB09B
:10154000BDE8F087A02E000010B50446AFF3008080
:101550002046BDE81040FEF7DEBE000000487047A0
:101560006C0100204FF0013C50F8042B51F8043B73
:101570009A4221D1A2EB0C03934313EACC1317D167
:1015800050F8042B51F8043B9A4215D1A2EB0C03FE
:10159000934313EACC130BD150F8042B51F8043BBE
:1015A0009A4209D1A2EB0C03934313EACC13DBD08C
:1015B0004FF00000704700BFD01A01BAB1FA81F1B4
:1015C00001F0180122FA01F0CB40C1F12001DBB299
:1015D000C0B2C01A2CFA01F3D11A914311EAC31117
:1015E000E6D1704701491820ABBEFEE72600020095
:1015F00070475FEA400C08BF91F0000F4FEA8C2360
:101600004FEAC12243EA51514FEA1C5018BF00F57E
:10161000F0404FEA300018BF41F000415FEA6C5CD7
:1016200000F02980BCF1FF3F08BF40F080407047C8
:10163000130C06BF12044FF0100C4FF0000C130EE9
:1016400004BF12020CF1080C130F04BF12010CF1BD
:10165000040C930F04BF92000CF1020CD30F04BFD3
:1016600052000CF1010C11464FF00002A0F11F00D6
:10167000A0EB0C00704711F0004F08BF704731F02D
:1016800000413FF4D5AF0B0C06BF09044FF0100C1E
:101690004FF0000C0B0E04BF09020CF1080C0B0FED
:1016A00004BF09010CF1040C8B0F04BF89000CF17D
:1016B000020CCB0F04BF49000CF1010CCCF120034C
:1016C000A0EB0C0022FA03F302FA0CF241EA030148
:1016D00000F10100704720F07F4C80EA030023F006
:1016E0007F47ACEB070303F57C5300F0004003F1A8
:1016F000FF032DE980494FEA154B09B44FEA144323
:1017000025EA0B4E24EA03480FF2042606EB1327C2
:1017100049083E785FEA320203FB0667C7F5000717
:1017200007FB06F64FEA54374FEAD64606F10206A3
:1017300007FB066CCCF1005C4FEA1C472CEA074C17
:1017400007FB06F40CFB06F504EB15464FEA96166C
:1017500034BF00204FF000404FEAD13706FB07FCB2
:101760004FEA1C4C0CFB0BF7D21B03FB0CF761EB95
:1017700007010CFB0EF7B0EB074072EB17420CFBB6
:1017800008F734BFA2EB0742B2EB074261EB174107
:101790004FEA0C444FEA910706FB07FC4FEA1C4C4A
:1017A0000CFB0BF7B0EBC74072EB573203FB0CF7A7
:1017B00034BFA2EBC742B2EBC74261EB57310CFB1F
:1017C0000EF7B0EBC70072EB57720CFB08F734BF93
:1017D000A2EBC702B2EBC70261EB5771039F4FEA5E
:1017E000816141EA921104EBCC044FEAD1374FEA10
:1017F000826206FB07FC42EA90124FEA80604FEAE1
:101800001C4C0CFB0BF7D21B03FB0CF761EB070125
:101810000CFB0EF7B0EB074072EB17420CFB08F71E
:1018200034BFA2EB0742B2EB074261EB17414FEA2C
:101830008C554FEA910704EB9C2406FB07FC4FEA0A
:101840001C4C0CFB0BF7B0EBC74072EB573203FBA1
:101850000CF734BFA2EBC742B2EBC74261EB573182
:101860000CFB0EF7B0EBC70072EB57720CFB08F7DE
:1018700034BFA2EBC702B2EBC70261EB577115EBA5
:101880004C254FEA816141EA92114FEA82624FEAA8
:10189000D13742EA901206FB07FC44F100044FEAFC
:1018A00080604FEA1C4C0CFB0BF7D21B03FB0CF7C0
:1018B00061EB07010CFB0EF7B0EB074072EB174230
:1018C0000CFB08F734BFA2EB0742B2EB074261EB17
:1018D000174115EB1C154FEA813141EA92414FEA5D
:1018E000823242EA90424FEA80304FEA0C7644F16D
:1018F000000448EA03434EEA0B484FF0000EB2EBF7
:10190000080C71EB030724BF624639464EEB0E0EFE
:101910004FF0000B0018524149414BEB0B0BB2EB5F
:10192000080C71EB03077BF1000B24BF62463946BC
:101930004EEB0E0E4FF0000B0018524149414BEB9D
:101940000B0BB2EB080C71EB03077BF1000B24BF10
:10195000624639464EEB0E0E51EA020718BF46F0BA
:10196000010616EB0E7655F1000254F1000103D585
:10197000BDE88901BDE80088BDE88901BDE80048EF
:10198000B619524141EB0101A3F101037047808078
:101990007F7E7D7C7B7A79787776767574737271C9
:1019A00071706F6E6E6D6C6C6B6A6A696868676681
:1019B00066656464636362616160605F5F5E5E5D13
:1019C0005D5C5C5B5B5A5A59595858575756565587
:1019D00055555454535352525251515050504F4FE9
:1019E0004F4E4E4D4D4D4C4C4C4B4B4B4A4A4A4939
:1019F000494948484847474747464646454545447C
:101A00004444444343434342424242414141002B08
:101A10009C4630D477002BD01CB54FEA370703B46F
:101A20004FF010004FF01001BAF1000F06D0BCF1DA
:101A3000000FDCBF40F0080040F008014FF000004C
:101A40000FBCBDE810400BF1010BBBF1010F08BF4B
:101A50005FEA170722BF12F1010211F101014FF0F5
:101A6000004143F1000300F0004043EA00007047EA
:101A7000F9D35708D0E746EA064613F1400F4FEA7C
:101A800016461FDD13F1200FDFBF16430A46002163
:101A900020335B42BED0C3F1200746EA064602FA75
:101AA00007F74FEA164646EA0706C3F1200722FA6F
:101AB00003F201FA07F721FA03F14FF0000342EABB
:101AC0000702A7E746EA020646EA06464FEA164636
:101AD00046EA0106BCBF46EA0646360C4FF0000354
:101AE0004FF000024FF0000194E72DE9804C9A4638
:101AF000934670B491E8380007C831EA400C48BFFB
:101B000034EA430C03D5FFF7E6FDFFF780FFF0BC96
:101B1000BDE8008C2DE9804C9A46934670B491E85C
:101B2000380007C810F0804F08BF13F0804F03D172
:101B300000F005F8FFF76BFFF0BCBDE8008C20F06B
:101B40007F4780EA030023F07F4C07EB0C03A3F5EB
:101B50007C5300F00040A3F1FE0392F0000F00F070
:101B6000B38095F0000F00F077802DE901494FEA2E
:101B700011404FEA144621EA004800FB06FC24EA23
:101B8000064708FB06F607FB08F800FB07F718EB0B
:101B900006484CEB164C4FEA124B18EB07484FEA3D
:101BA00015464CEB174022EA0B4E0BFB06FC25EAD0
:101BB00006470EFB06F607FB0EFE0BFB07F71EEBB8
:101BC000064E4CEB164C4FF000061EEB074E4CEB4E
:101BD000174B18EB0B0840F1000018EB0E0B58EBFD
:101BE000000840F100008F1A4FF000013CBFC943CC
:101BF000661B14BFB5EB040C00213CBFC943F61BA8
:101C00004FEA17444EEA8E0E27EA04454FEA1C4776
:101C100004FB07622CEA074C05FB07F70CFB05F6F3
:101C200004FB0CFC16EB074642EB174216EB0C4686
:101C300042EB1C421BEB060658EB0202414146EA0E
:101C40009E0601D5BDE80189B619524141EB01015B
:101C5000A3F10103BDE801894FEA14454FEA11479A
:101C600024EA054621EA074C05FB07F406FB07F7C3
:101C70000CFB06F105FB0CFC11EB074144EB174490
:101C80004FEA124711EB0C4144EB1C4422EA074C8B
:101C900005FB07F206FB07F70CFB06F605FB0CFC41
:101CA00016EB074642EB174216EB0C4642EB1C457F
:101CB0006A1854F1000148BF7047B619524141EB10
:101CC0000101A3F10103704795F0000F37D04FEAEF
:101CD00011424FEA144721EA024624EA074C02FB6C
:101CE00007F106FB07F70CFB06F402FB0CFC14EBF8
:101CF000074441EB17414FEA154714EB0C4441EB05
:101D00001C4125EA074C02FB07F506FB07F70CFB15
:101D100006F602FB0CFC16EB074645EB174516EBE7
:101D20000C4645EB1C42121951F1000148BF7047A7
:101D3000B619524141EB0101A3F1010370474FEA8B
:101D400014454FEA114724EA054621EA074C05FBF2
:101D500007F106FB07F70CFB06F24FF0000605FB48
:101D60000CFC12EB074241EB174112EB0C4251EB1A
:101D70001C4148BF7047921841EB0101A3F10103D8
:101D800070470000014800F0BFBA000010000020BA
:101D9000FEE70000014800F04BBD00007C00002081
:101DA0000D4902688A4201D20C4901E00B492031F9
:101DB000D2B21423083AB2FBF3F2436C02F01F02D2
:101DC00023F003031944816404498031C164012173
:101DD000914001657047000008040240000802407D
:101DE0000179074A02EB81024265054A4432491EE5
:101DF000826501F01F0201219140C165704700001A
:101E0000FC080240704772B6FEE7704770477047A3
:101E1000704770472DE9F047044690F858009CB091
:101E20000E464FF00009012815D0012084F8580013
:101E300000251795189520684FF0A04840450ED111
:101E4000284F0097384601F0C6FD8246206801F011
:101E5000C2FD60B10EE002201CB0BDE8F087E06D6D
:101E600040F02000E06584F858500120F4E7BAF112
:101E7000000F09D0E06D40F02000E0654FF001094F
:101E800084F858504846E7E71748326840F61F7113
:101E9000002A826822F4604216D094F8383042EA70
:101EA000433273681A438260D8F80820BB6802F096
:101EB000010203F001031A43E2D1B36832681A4306
:101EC00083688B431A430BE08260D8F80820BB6814
:101ED00002F0010203F001031A43D1D182688A4360
:101EE0008260CDE700010050000300502DE9F84F5B
:101EF00000270446009790F85800DFF8D8930D4665
:101F0000B846012811D0012684F85860206801F0F5
:101F10005EFD60B1E06D40F02000E0655FF001071C
:101F200084F858803846BDE8F88F0220FBE7D5E9F1
:101F300000210C23206803EA91131844036B01F07D
:101F40001F014FF01F0C0CFA01FCC2F3846223EA5C
:101F50000C038A4013430363206801F038FD824676
:101F6000206801F030FD5AEA00003CD1AA682968D7
:101F70002068B2F1004F37D001F039FD2068416987
:101F800021F00041416120686969C268C2F3C10261
:101F9000520091402A69042A31D000EB82002B685C
:101FA000026EDFF834C303F0F84302EA0C020B437D
:101FB0001A4342F00041016620682A69A96900EBD2
:101FC0008200026E22F080720A430266297F226834
:101FD0002869012910D0002102EB8000026E22F056
:101FE00000720A4302667DE0002201F000FD2068D5
:101FF000416941F00041C5E74FF00071ECE7002175
:1020000001F0DBFC400320684FF0000172D001F0CA
:10201000D4FC90FAA0F0B0FA80F1286842036ED0A8
:1020200090FAA0F0B0FA80F0814204D1002211466B
:10203000206801F0EBFC0121206801F0BEFC4003A8
:1020400020684FF001015DD001F0B7FC90FAA0F0DC
:10205000B0FA80F12868420359D090FAA0F0B0FAA3
:1020600080F0814204D100220121206801F0CEFCE1
:102070000221206801F0A1FC400320684FF002011A
:1020800048D001F09AFC90FAA0F0B0FA80F12868EC
:10209000420344D090FAA0F0B0FA80F0814204D11B
:1020A00000220221206801F0B1FC0321206801F028
:1020B00084FC400320684FF0030133D001F07DFC25
:1020C00090FAA0F0B0FA80F1286842032FD090FA7D
:1020D000A0F0B0FA80F0814204D1002203212068F0
:1020E00001F094FC2068816811F0010F22D0A8E073
:1020F00000E004E001F061FCC0F384618DE7C0F30F
:10210000846091E701F059FCC0F38461A2E7C0F359
:102110008460A6E701F051FCC0F38461B7E7C0F327
:102120008460BBE701F049FCC0F38461CCE7C0F3F5
:102130008460D0E7EB6829684B4550F8B03FC1F3A5
:10214000120101D10B4300E08B430360E86848456E
:1021500077D1286841031CD090FAA0F1B1FA81F13F
:10216000491C01F01F0109294FEA403132D80029EA
:1021700012D000BF90FAA0F1B1FA81F101F1010192
:1021800001F01F0106FA01F609D100BFC0F3846116
:1021900009E0C0F38461E3E7C0F38461EEE790FAFD
:1021A000A0F1B1FA81F101F1010101F01F0146EA4C
:1021B000816102D1C0F3846003E090FAA0F0B0FA2C
:1021C00080F000F1010000F01F0000EB400041EA48
:1021D000005132E000290ED090FAA0F1B1FA81F15D
:1021E00001F1010101F01F0106FA01F606D100BF5D
:1021F000C0F3846106E0C0F38461F1E790FAA0F1D6
:10220000B1FA81F101F1010101F01F0146EA81619A
:1022100002D1C0F3846003E090FAA0F0B0FA80F03D
:1022200000F1010000F01F002C4A00EB400002EB1F
:10223000005041EA000141F00071AA68206801F0F5
:10224000D6FB27482A6802423FF46AAE25488168D7
:10225000254B01F0E0719A4202D0244B9A421CD1E6
:102260000B021AD42268B2F1A04F7FF459AE8268F3
:1022700041F4000122F0E0720A4382601C481D49CB
:102280000068B0FBF1F0401C00EB4000800000E073
:10229000401E00900028FBD142E6174D174BAA4282
:1022A00007D1CD0105D422689A42F5D041F0807162
:1022B00009E0134DAA42EFD14A02EDD422689A42B6
:1022C000EAD041F48001826822F0E0720A43826021
:1022D00026E6000000007F4000F0FF03000020FE23
:1022E0000000088000030050000021C31000C090CF
:1022F0000C000020400D0300000052C700010050F8
:10230000000084CB704770472DE9F05F04460068F9
:1023100006684568DFF854B2DBF8080000F01F07D4
:10232000B0070ED5A8070CD5E06DC00603D4E06D4C
:1023300040F40060E0652046FFF767FD2168022059
:102340000860DFF82CA270074FF0A04801D568079D
:1023500003D4300737D5280735D5E06DC00603D440
:10236000E06D40F40070E065206801F038FB20B3B8
:102370002068504501D1424600E00246824208D022
:102380003FB1052F05D0092F03D0504503D1414659
:1023900002E0C16801E00146C96889040DD4016802
:1023A00009070AD501F013FB58B3E06D40F01000A7
:1023B000E065206E40F0010020662046FFF7A2FF96
:1023C00021680C200860B00601D5A80603D4700669
:1023D00058D5680656D5E06DC00603D4E06D40F4CC
:1023E0000050E0652068C16C11F4C07F1AD0002154
:1023F000894601F0F4FA02462068504514D143465C
:1024000013E02068416821F00C014160E06D20F488
:102410008070E065E06DC004CFD4E06D40F0010055
:10242000E065CAE70121E3E70346834208D03FB1F4
:10243000062F05D0072F03D0504503D1414602E0B7
:10244000C16801E00146C968B9F1000F14D08B01E1
:1024500002D58AB18A040FD4026852060CD58902CB
:102460000AD401F0B0FAE8B3E06D40F01000E06586
:10247000206E40F0010020662046FFF7C7FC21686F
:102480006020086030060BD5280609D5E06D40F4C1
:102490008030E065204600F06BF9216880200860FC
:1024A000F0050CD5E8050AD5E06D40F40030E06594
:1024B0002046FFF7ADFC21684FF480700860B0053E
:1024C0000CD5A8050AD5E06D40F48020E0652046D3
:1024D000FFF79FFC21684FF400700860F0062ED5CE
:1024E000E80600E008E02AD5E06BD0B1AFB1DBF838
:1024F000080000F4604013E02068416821F06001AA
:102500004160E06D20F48050E065E06DC005B3D41B
:10251000E06D40F00100E065AEE72068C068C007EC
:1025200050B1E06D40F48060E065206E40F0020044
:1025300020662046FFF7E7FE21681020086070053E
:1025400012D5680510D5E06D40F48040E065206E3E
:1025500040F00800206621684FF480600860204643
:10256000BDE8F05FFFF753BCBDE8F09F00030050EB
:1025700000010050F8B54FF0000504002E4600950C
:1025800002D0E06D10B107E00120F8BD204600F058
:10259000F1F8266684F8586020688168C1F34071BC
:1025A00019B181686A4A1140816020688168C1F36D
:1025B000007189B98168674A114041F0805181609A
:1025C000654866490068B0FBF1F04000801C00E0FF
:1025D000401E00900028FBD120688168C1F3007183
:1025E00041B9E16D41F01001E165216E41F0010159
:1025F0002166012501F0EBF9E16DC90600D430B187
:10260000E06D40F01000E06501252846F8BDE06D62
:1026100020F4807040F00200E0652068806810F0CF
:10262000010F11D14FF0A04080684D4900F001002A
:10263000896801F00101084306D14A48616882684F
:1026400022F47C120A438260E168E06B627F0843F7
:10265000A16841EA4231084394F8241040EA01405D
:10266000012904D1218D404A02EB41410843E16A2E
:1026700029B101F47871226B014342EA010021681B
:10268000CA683A4B1A400243CA6020680169626B0B
:1026900021F0406111430161206801F098F906467C
:1026A000206801F090F930432ED1207F94F8381043
:1026B000800340EA41022068C16844F20203994362
:1026C0001143C16020690028206801690AD041F4E3
:1026D00080310161206850F8C01F22696FF30D013D
:1026E000114307E021F480310161206850F8C01FD8
:1026F0006FF30D01016094F8400001280CD02068B0
:10270000016921F001010161606901282068016B04
:1027100021F00F0111D013E0D4E911010843D4E9ED
:1027200013121143084321680A6940F2FC739A436B
:10273000104340F001000861E6E7226A521E11438F
:102740000163E06D20F0020040F00100E0655CE70D
:10275000C0FFFF5FC0FFFF7F0C000020400D0300A3
:1027600000010050000300500000FEFF0740F0FF92
:102770007047000070B598B00646142111A8FDF707
:10278000A2FE44216846FDF79EFE3068B0F1A04FDE
:1027900045D14FF40040009080030F90684600F050
:1027A00027FB08B1FFF72FFB1E49C86C40F400500F
:1027B000C864C86C00F400501690C86C40F001006A
:1027C000C864C86C002500F001001690012011902B
:1027D0000320CDE9120511A94FF0904000F0E6F872
:1027E000124C114820600520C4E901058020C4E98D
:1027F0000350400060618000C4E906052046256260
:1028000000F074F808B1FFF7FEFA74650022114673
:102810001220A66200F054FA122000F043FA18B019
:1028200070BD000000100240080002407C00002043
:10283000F0B4016C0C6801680D6890F8442002F057
:102840001F06042202FA06F3234211D06B070FD5AC
:102850000B689B0603D40B6823F004030B6090F80D
:10286000441001F01F018A40016C4A60016B1DE0B9
:10287000022303FA06F727424FF0000C4FF0010243
:1028800018D0AF0716D50C68A40605D40C6824F040
:102890000A040C6080F8252090F8441001F01F0114
:1028A0008B40016C4B6080F824C0C16A00291AD0AB
:1028B000F0BC08470823B340234214D02B0712D59D
:1028C0000B6823F00E030B6090F84410036C01F0CA
:1028D0001F0102FA01F15960C26380F8252080F8D7
:1028E00024C0416BE2E7F0BC7047000070B5040003
:1028F0000CD02B4A21681420914209D2294A0A445B
:10290000B2FBF0F08000606427480AE0012070BD4F
:10291000234A52420A44B2FBF0F08000606420482F
:1029200008382064022084F825000A6847F6F07011
:102930008243D4E902031843D4E904352B431843F6
:10294000A3691843E3691843236A184310430860D6
:102950002046FFF725FAA0680025B0F5804F00D18A
:102960006560A16C20790860D4E91301416060685A
:10297000401E032808D82046FFF732FA606D056034
:10298000D4E91601416002E06565A565E565E5638A
:10299000012084F8250084F82450002070BD000038
:1029A00008040240F8FFFDBF000002402DE9F04F8F
:1029B000DFF82092002301260324A9F1040B85B03F
:1029C0000F2709F1040AABF1040EFAE006FA03F549
:1029D0002A407CD091F804C00CF0030CBCF1010F2C
:1029E00002D0BCF1020F26D1D0F808C0CDF800C04B
:1029F0004FEA430C04FA0CF8CDF810C0DDF800C023
:102A00002CEA080CCDF800C0D1F80C80DDF810C01D
:102A100008FA0CF8DDF800C048EA0C08C0F8088095
:102A2000D0F804C02CEA050C0D79C5F300159D40C3
:102A300045EA0C0545600D79ED43AD070ED0C5683C
:102A40004FEA430804FA08FC25EA0C05D1F808C04F
:102A50000CFA08FC4CEA050CC0F80CC00D7905F026
:102A60000305022D16D1DD0800EB850CCDF808C05A
:102A7000DCF820805D074FEAD56C07FA0CF528EAF0
:102A800005080D6905FA0CF5DDF808C045EA0805EA
:102A9000CCF8205005684FEA430CCDF808C004FA82
:102AA0000CFC25EA0C0591F804C00CF00308DDF8D5
:102AB00008C008FA0CF848EA0508C0F800804D681C
:102AC00015F4403F7CD0444DD5F860C000E077E07D
:102AD0004CF0010CC5F860C02D6E23F0030C05F01E
:102AE000010500953D4D65440295AD684FEA837C34
:102AF0004FEA1C7807FA08FC25EA0C05B0F1904F64
:102B000006D0DFF8DCC0604505D14FF0010C20E0B5
:102B10004FF0000C1DE0DFF8CCC0604502D14FF053
:102B2000020C16E0DFF8C0C0604502D14FF0030C84
:102B30000FE0DFF8B8C0604502D14FF0040C08E0A8
:102B4000DFF8ACC0604502D14FF0050C01E04FF05A
:102B5000060C0CFA08FC4CEA050C029DC5F808C0EE
:102B6000D9F80050CC46D1F8048095435FEAC828D4
:102B700000D51543CCF80050DAF80050D446D1F80F
:102B8000048095435FEA882800D51543CCF80050AF
:102B9000DBF80050DC46D1F8048095435FEA8838C2
:102BA00000D51543CCF80050DEF80050F446D1F8BB
:102BB000048095435FEAC83800D51543CCF800502F
:102BC0005B1C0A6832FA03F57FF400AF05B0BDE87C
:102BD000F08F000008040140001002400000014096
:102BE0000004004800080048000C0048001000489D
:102BF0000014004801488068704700000000002071
:102C000002488168426811448160704700000020DA
:102C100010B50024032000F073F80F2000F008F82E
:102C200008B1012401E000F025F8204610BD0000A5
:102C300070B50E4E05460024706898B14FF47A7155
:102C4000B1FBF0F00A490968B1FBF0F000F062FD59
:102C500040B9102D06D200222946501E00F030F84F
:102C6000356000E00124204670BD00000000002017
:102C70000C0000200A4882B0016E41F0010101669B
:102C8000016E01F001010091816D41F0805181657B
:102C9000806D00F08050009002B000F0A1B80000FC
:102CA00000100240002809DB00F01F0201219140C2
:102CB0004009800000F1E020C0F8001170470000DA
:102CC000F0B40E4B1B680C46C3F30223C3F1070597
:102CD000042D00D90425191D072901D2002300E085
:102CE000DB1E012606FA05F1491E214099409E404F
:102CF000761E16403143F0BC01F0FCB90CED00E04B
:102D0000064900F0070208684FF6FF03184040EA42
:102D10000220034A10430860704700000CED00E0F9
:102D20000000FA052B492C4B0A6832214A432B49F3
:102D300040B1B0F5007F086829D020F4C06040F4AD
:102D400080602CE00868C0F34120022804D051F8CC
:102D5000800F20F4807022E0D1F8800020F4807091
:102D6000C1F88000086820F4C06040F4007008607A
:102D7000B2FBF3F0401C00E0401E4A69520501D549
:102D80000028F9D1486940050AD503207047C0F3EF
:102D90004120022806D051F8800F40F4807008606E
:102DA00000207047D1F8800040F48070C1F88000A6
:102DB000086820F4C06040F400700860B2FBF3F0D3
:102DC000401C00E0401E4A695205DBD50028F9D1BD
:102DD000D8E700000C00002040420F0000700040C7
:102DE0000248816841F48041816070470070004072
:102DF0002DE9F8430446006800269D4D00035ED58A
:102E0000A86D0027C00008D4A86D40F08050A865C8
:102E1000A86D012700F080500090DFF85892D9F893
:102E2000001041F48071C9F80010FFF7E3FE8046FE
:102E300006E000BFFFF7DEFEA0EB080002282BD85B
:102E4000D9F80000C005F5D5D5F8900010F4407011
:102E500014D0216C814211D0D5F89000D5F8901093
:102E600020F4407041F48031C5F89010D5F89010EE
:102E700021F48031C5F89010C5F89000C00711D03A
:102E8000FFF7B8FE804641F2883907E0FFF7B2FE4F
:102E9000A0EB0801494501D903260BE0D5F89000C5
:102EA0008007F3D5D5F89000216C20F440700843DA
:102EB000C5F890001FB1A86D20F08050A86520785B
:102EC000C00707D0D5F88800616820F003000843E8
:102ED000C5F888002078800707D5D5F88800A16854
:102EE00020F00C000843C5F888002078400707D57B
:102EF000D5F88800E16820F030000843C5F8880064
:102F00002078000707D5D5F88800216920F0C00097
:102F10000843C5F888002078800607D5D5F88800D2
:102F2000616920F440600843C5F8880020784006B5
:102F300007D5D5F88800A16920F440500843C5F8AA
:102F400088002078000607D5D5F88800E16920F4CC
:102F500040400843C5F888002088C00507D5D5F84B
:102F60008800216A20F440300843C5F88800208892
:102F7000800507D5D5F88800616A20F44020084311
:102F8000C5F88800208840050FD5D5F88800A16ACB
:102F900020F440100843C5F88800A06AB0F5801FEF
:102FA00003D1E86840F48010E860208800050FD560
:102FB000D5F88800E16A20F440000843C5F888008D
:102FC000E06AB0F5800F03D1E86840F48010E86053
:102FD0002088C0040FD5D5F88800216B20F0407000
:102FE0000843C5F88800206BB0F1807F03D1E86802
:102FF00040F48010E86020884FF0006180040ED516
:10300000D5F88800626B20F040601043C5F8880056
:10301000606B884203D1E86840F48010E860208843
:1030200040040ED5D5F88800A26B20F04060104314
:10303000C5F88800A06B884203D1E86840F480108E
:10304000E860208800040FD5D5F88800E16B20F0F7
:1030500040500843C5F88800E06BB0F1805F03D1B1
:10306000E86840F48030E8603046BDE8F88300004E
:1030700000100240007000402DE9F0470E460500A8
:103080004FF0000725D0DFF8AC81D8F8000000F041
:103090000F00B0420CD2D8F8001021F00F013143DC
:1030A000C8F80010D8F8000000F00F00B04210D1AE
:1030B0002968614CC80741F2883A5AD06868DFF83D
:1030C0007C91032808D0022820682DD040050028D4
:1030D0002CDB0120BDE8F08720688001F9D5E0688D
:1030E00000F00302E068C0F30310401C032A19D06B
:1030F000534A00BFB2FBF0F0E268C2F3062250432D
:10310000E268C2F34162521C5200B0FBF2F0484543
:1031100017D9A06810F0F00F0CD0880711D5A86857
:1031200040B10EE0474AE5E78003D0E700F0B6F88B
:10313000484506D9A06820F0F00040F08000A0606B
:103140008027A068696820F003000843A060FFF7AB
:1031500051FD814606E000BFFFF74CFDA0EB0901E1
:1031600051453AD8A068696800F00C00B0EB810FB7
:10317000F2D12868810714D5400703D5A06840F430
:10318000E060A0602878000705D5A06820F46050B2
:1031900040F4E060A060A068A96820F0F000084357
:1031A00004E0802F03D1A06820F0F000A060D8F8E0
:1031B0000010404601F00F01B14216D9016821F01C
:1031C0000F0131430160FFF715FD074607E000BF1F
:1031D000FFF710FDC11B514501D903207AE7D8F84C
:1031E000000000F00F00B042F2D12878400705D56A
:1031F000A068E96820F4E0600843A0602878000730
:1032000006D5A068296920F4605040EAC100A0609A
:1032100000F044F8A1680C4AC1F30311515C01F0BD
:103220001F01C8400949086009480068BDE8F04727
:10323000FFF7FEBC002002400010024000B4C404AE
:103240000024F40000127A00164200080C0000204E
:10325000000000200548064900688968054AC1F356
:103260000221515C01F01F01C84070470C00002092
:103270000010024026420008054806490068896897
:10328000054AC1F3C221515C01F01F01C8407047DB
:103290000C0000200010024026420008184910B51A
:1032A0008868C0F381021748012A0BD08A6843104E
:1032B000C2F38102022A06D08A68C2F38102032A7D
:1032C00003D0002010BD184610BDCA6802F00304E8
:1032D000CA68C2F30312521C032C02D0B0FBF2F0F6
:1032E00001E0B3FBF2F0CA68C968C2F3062250439A
:1032F000C1F34161491C4900B0FBF1F010BD000071
:10330000001002400024F4002DE9F84304007AD0B4
:103310002078FA4DC00747D0A868E96800F00C0093
:1033200001F003010C2802D0082817D001E003297E
:1033300014D06068B0F5803F17D0B0F5A02F286892
:1033400017D020F480302860286820F4802028607E
:103350006068E0B1FFF74EFC064614E02868800381
:1033600022D560680028D2D01EE0286840F4803062
:10337000EDE740F480202860F7E700BFFFF73AFC54
:10338000801B642870D828688003F7D50CE0FFF70D
:1033900031FC064605E000BFFFF72CFC801B6428CB
:1033A000F0D828688003F7D4207880074CD5A86827
:1033B000E96800F00C0001F003010C2802D0042899
:1033C0000DD001E002290AD0E068002828682BD03F
:1033D00040F480702860FFF70DFC064619E028686D
:1033E000400502D5E068002891D06868217C20F073
:1033F000FE4040EA01606860C1480068FFF718FCC1
:10340000002800D120E076E1FFF7F4FB801B0228C2
:10341000B8D828684005F7D56868217C20F0FE40C0
:1034200040EA016068600FE020F480702860FFF7D8
:10343000E1FB064605E000BFFFF7DCFB801B02282E
:10344000A0D828684005F7D42078000729D56069FE
:103450000028D5F8940013D040F00100C5F894007E
:10346000FFF7C8FB064606E090E000BFFFF7C2FB8F
:10347000801B022886D8D5F894008007F6D510E086
:1034800020F00100C5F89400FFF7B4FB064604E005
:10349000FFF7B0FB801B022878D8D5F8940080078E
:1034A000F6D42078400761D5A86D0026C00008D466
:1034B000A86D40F08050A865A86D012600F08050EE
:1034C000009090480168C90511D40168804641F414
:1034D00080710160FFF78EFB074604E0FFF78AFB6F
:1034E000C01B022852D8D8F80000C005F6D5A06845
:1034F000012815D00528D5F8900016D020F001003D
:10350000C5F89000D5F8900020F00400C5F89000B0
:10351000A06841F28838B8B1FFF76CFB07460EE0AF
:10352000D5F8900040F00100F0E740F00400C5F845
:103530009000F5E7FFF75EFBC11B414526D8D5F8A3
:1035400090008007F6D50CE0FFF754FB074604E037
:10355000FFF750FBC11B414518D8D5F890008007F4
:10356000F6D41EB1A86D20F08050A86520788006A2
:1035700029D5A0690028D5F8980013D040F00100A3
:10358000C5F89800FFF736FB064606E077E000BF77
:10359000FFF730FB801B022877D8D5F8980080070A
:1035A000F6D510E020F00100C5F89800FFF722FBE7
:1035B000064604E0FFF71EFB801B022865D8D5F8FD
:1035C00098008007F6D4E069F0B3A968C1F38101DF
:1035D000032961D00228286820F0807028600BD071
:1035E000E86820F00300E860E86847490840E860C0
:1035F000FFF700FB04464BE0FFF7FCFA064604E049
:10360000FFF7F8FA801B02283FD828688001F7D41A
:10361000F4E908016FF00F0202EB01110843218A5F
:103620005204490802EB4151A26841EA02210843D1
:10363000217D4FF07E42490802EB41610843217B26
:1036400040EAC160E96800E062E0304A11400843A6
:10365000E860286840F080702860E86840F080707A
:10366000E860FFF7C7FA044605E000BFFFF7C2FABB
:10367000001B022809D828688001F7D548E004E03B
:10368000FFF7B8FA001B022802D90320BDE8F8832F
:1036900028688001F4D43BE00128F7D0E868226A6A
:1036A00000F00301914226D1616A00F0F0020901A5
:1036B000103991421FD1A26A00F4FE41B1EB022FF2
:1036C00019D194F82C2000F07841B1EBC26F12D1DF
:1036D000218E00F4C00249084905A1F5001191426C
:1036E00009D194F8341000F0C06049084906A1F1EE
:1036F000007181420CD00120C8E700000010024098
:103700000000002000700040FFFFEEFE0C809F01D3
:103710000020BBE710B5401EB0F1807F01D301202F
:1037200010BD4FF0E02460610F21601700F0E2FC53
:103730000020A06107202061002010BD90F88010BB
:10374000012918D0012180F880102421C0F88410AC
:1037500050F8641B0A680B6823F001030B6022F029
:1037600000510022026050F8643C1960202101627F
:103770000277104670470220704770B5044690F8F3
:10378000800001281DD0012084F880002420C4F886
:10379000840020680568026822F001020260206847
:1037A000826822F060620A438260204600F036FAA6
:1037B000206805602020C4F88400002084F8800080
:1037C00070BD022070BD70B5044690F880000128DD
:1037D0001DD0012084F880002420C4F884002068D3
:1037E0000568026822F0010202602068826822F007
:1037F00060420A438260204600F010FA20680560AB
:103800002020C4F88400002084F8800070BD0220CD
:1038100070BD10B5040003D0D4F8840010B107E0E7
:10382000012010BD002084F88000204600F026F81A
:103830002420C4F884002068016821F0010101609F
:10384000204600F0A1FA0128EBD0A06A10B1204672
:1038500000F006FA2068416821F490414160206838
:10386000816821F02A0181602068016841F001012E
:1038700001602046BDE8104000F056BA10B598B07F
:103880000446142111A8FCF71EFE44216846FCF7EB
:103890001AFE17492068884227D10420002400908E
:1038A00003946846FFF7A4FA08B1FEF7ACFA114892
:1038B000816D41F480218165816D01F48021169133
:1038C000C16C41F00201C164C06C11A900F002009A
:1038D00016904FF4406011900220CDE912040720A9
:1038E000CDE914400448FFF761F818B010BD00009E
:1038F0000048004000100240000400482DE9F84351
:103900000446D0F884001F4616460D46202851D1A3
:10391000DDB1D6B194F8800001284BD0012084F8A5
:1039200080004FF00008C4F88C802120C4F8840087
:103930001834FFF75FF9A6878146E68754F8100C24
:10394000183CB0F5805F03D004E00120BDE8F883A7
:10395000206920B12E46002584F8808010E00026E2
:10396000FAE78021204600F049FBB8B9C6B116F845
:10397000010B21688862B4F85600401EA4F8560076
:10398000B4F856004B464FF0000200970028E8D1EB
:103990004FF04001204600F031FB30B10320D5E765
:1039A00035F8020BC0F30800E3E72020C4F88400D8
:1039B0000020CBE70220C9E7FEE700EB8100006EA4
:1039C00000F0F84070478068C0F3C000704780681E
:1039D000C0F3800070478068C0F380007047C06803
:1039E00010F4406F01D0002070470120704704237D
:1039F00003EAD15310B518444369C1F304510724B5
:103A00008C40A3438A401343436110BD00EB810007
:103A1000016E21F0004111430166704730B58BB053
:103A2000002408940994202168460A94FCF74BFD71
:103A30001C484FF0A041042501604FF40021C0E96B
:103A40000114C4600461C0E9054504770121417790
:103A5000016280F82440C462046380F83840C46383
:103A600080F84040FEF786FD08B1FEF7CCF908A9C2
:103A70000C480894FEF7CEF908B1FEF7C4F90A48DD
:103A800000900620CDE901057F200594CDE90305CE
:103A900069460448FEF72AFA002801D0FEF7B3F978
:103AA0000BB030BD10000020020030040D4808B5F6
:103AB000816C41F004018164816C01F0040100918A
:103AC000816C41F001018164806C002200F00100F2
:103AD000009011460B20FFF7F3F8BDE808400B20DB
:103AE000FFF7E0B800100240114808B5C16C41F082
:103AF0000401C164C16C01F004010091C16C41F08A
:103B00002001C164C16C01F020010091C16C41F041
:103B10000101C164C16C01F001010091C16C41F06F
:103B20000201C164C06C00F00200009008BD0000FA
:103B300000100240184810B5164901604FF4E131F9
:103B40004160002181600C22C160C0E904128161E2
:103B5000C161016241628162FFF75BFE08B1FEF75D
:103B600052F900210C48FFF72EFE08B1FEF74BF981
:103B700000210948FFF701FE08B1FEF744F90648A5
:103B8000FFF7DCFD002803D0BDE81040FEF73BB98D
:103B900010BD000000480040DC000020FEE7FEE70A
:103BA00070477047FFF72CB810B594B038216846BD
:103BB000FCF789FC14210EA8FCF785FC0020FFF718
:103BC000B1F8012000900004019002200324CDE907
:103BD00007045521CDE909010B900C900D90684622
:103BE000FFF792FB08B172B6FEE70F20CDE90E0495
:103BF000002010901190129004210EA8FFF73CFABB
:103C0000002801D072B6FEE714B010BD024801686A
:103C100041F470010160704788ED00E030B5416EFD
:103C2000B9B1026891689268C1F342610B4B520FBF
:103C30009C5CE50003F10804A25CB5FBF2F2A0F87D
:103C40006A205A5C615CD200B2FBF1F1A0F8681006
:103C500030BD0121A0F86A10F8E700000642000814
:103C600090F82810C90706D001684A68C36A22F490
:103C700000321A434A6090F82810890706D5016877
:103C80004A68036B22F480321A434A6090F8281085
:103C9000490706D501684A68436B22F480221A431B
:103CA0004A6090F82810090706D501684A68836BB6
:103CB00022F400421A434A6090F82810C90606D53B
:103CC00001688A68C36B22F480521A438A6090F8B4
:103CD0002810890606D501688A68036C22F4005210
:103CE0001A438A6090F82810490611D501684A687D
:103CF000436C22F480121A434A60416CB1F5801F74
:103D000006D101684A68836C22F4C0021A434A60F3
:103D100090F82810090606D501684A68C06C22F49C
:103D2000002202434A607047F8B500260446C0F8F6
:103D30008C60FEF75FFF0546206800686FF07E47E5
:103D4000000708D52B4600224FF4001120460097AB
:103D500000F054F960B92068006840070AD52B4686
:103D600000224FF480012046009700F047F908B187
:103D70000320F8BD2020C4F88400C4F8880044F86B
:103D80006C6F00202675F8BD2DE9F04104460168EE
:103D900080682269E3691043626900251A43104371
:103DA000DFF82CC20A688B4B1A4002430A60206875
:103DB0004168E26821F44051114341602168A069E3
:103DC000614501D0226A10438A68834B1A4002433E
:103DD0008A602068C16A626A21F00F011143C162E2
:103DE0007E4923687E488B420DD1D0F8880010F0C0
:103DF000030006D0012855D0022842D003283FD125
:103E000052E001203DE077498B420BD1D0F8880089
:103E100010F00C0035D0042833D0082840D00C28EE
:103E20002ED141E070498B420BD1D0F8880010F0C0
:103E3000300026D0102835D0202831D030281FD18E
:103E400032E06A498B420BD1D0F8880010F0C000F4
:103E500017D0402826D0802822D0C02810D123E0B7
:103E600063450DD1D0F8880010F4406009D0B0F55A
:103E7000806F17D0B0F5006F12D0B0F5406F13D03F
:103E800010205B495B4F00264FF4004263453BD155
:103E900060B1022813D004280BD0082872D10DE09D
:103EA0000220EEE70420ECE70820EAE7FFF7D2F96A
:103EB00001E0FFF7F3F9010001D17CE01146606AEF
:103EC00037F810206768B1FBF2F007EB4703834235
:103ED00070D8B0EB073F6DD8002308461946FCF7B1
:103EE00041FA090241EA1061020278081018714192
:103EF0003A460023FCF736FA3F4AA0F5407191425A
:103F000058D82168C86056E0E3694FF6EF789342CD
:103F10002CD109284ED2DFE800F00508114D0D4DD7
:103F20004D4D1000FFF796F901E0FFF7A5F90100EC
:103F300004D140E0FFF7B2F9F9E71146606A37F8BB
:103F40001000B1FBF0F04100606801EB5001B1FBE3
:103F5000F0F0A0F1100141452CD84FF6F07101406E
:103F6000C0F3420001432068C16024E0092821D247
:103F7000DFE800F0050912200E2020201100FFF7D5
:103F800069F902E016E0FFF777F9010004D112E0C9
:103F9000FFF784F9F9E71146606A37F81000B1FBC2
:103FA000F0F1606801EB5001B1FBF0F0A0F11001FD
:103FB00041450AD901250120A4F86A0024F8680FB8
:103FC0002846A660E660BDE8F08180B299E700006F
:103FD00000800040F369FFCFFFF4FF11003801407B
:103FE000001002400044004000480040004C0040E7
:103FF0000024F400EE410008FFFC0F002DE9F0471B
:104000009A4617460E4604464FF000094FF0200826
:10401000089D4AE0681C48D0FEF7ECFDA0EB0A00C2
:10402000A8422AD84DB32068016849073DD5C06928
:10403000C043000539D421684FF40060086220684D
:1040400050E8001F21F4D07140E80012002AF6D198
:104050002068083050E8001F21F0010140E80012FC
:10406000002AF5D144F8848FC4F80480C4F808808D
:1040700004F8049C0320BDE8F087216851E8000F94
:1040800020F4D07041E80002002AF6D12068083000
:1040900050E8001F21F0010140E80012002AF5D18C
:1040A00044F8848FC4F80480E2E72068C06936EAE7
:1040B000000004D00020B842ACD00020DBE7012093
:1040C000F9E7FEE703B401984100009850EAC120E7
:1040D00018BF04204A0D18BF40F0010040F2FF72E3
:1040E000B2EB515F08BF40F00200012808BF052075
:1040F00002B070470907090E002804DB00F1E02038
:1041000080F80014704700F00F0000F1E02080F804
:10411000141D704730380A2801D201207047002052
:1041200070470000FEF774FDFFF73EFDFFF7DCFC73
:10413000FFF7BCFCFFF772FCFFF7FCFC01A000F0EE
:1041400009F8FEE753797374656D205374617274D6
:10415000210A00000FB4802100B5A1B023AB68464E
:10416000229AFCF777F96846FCF78EF982B24FF095
:10417000FF3369460248FFF7C1FB21B05DF814FB2D
:10418000DC00002010B500290AD00878002807D0EC
:1041900005487844FDF7E6F9002801D0002010BD5D
:1041A0000248784410BD0000BA010000B2010000CE
:1041B00010B500290AD00878002807D005487844AF
:1041C000FDF7D0F9002801D0002010BD0248784446
:1041D00010BD0000AA010000A20100004FF04070D5
:1041E000E1EE100A7047FCF7CABDFCF7FFBE010004
:1041F00002000400060008000A000C001000200065
:1042000040008000000101010103070100000804D3
:10421000020408010101000000000000000001028A
:10422000030406070809000000000102030400005F
:1042300000000000000000003031323334353637E2
:1042400038394142434445464030580030313233DA
:1042500034353637383961626364656640307800DA
:10426000040000080000000000000002000100003F
:104270001030313233343536373839616263646532
:104280006678700030313233343536373839414250
:10429000434445465850000002400000000000A082
:1042A0000000000005400000000000C80000000001
:1042B0000C4000000000409C00000000194000007D
:1042C0000020BCBE0000000034400000BFC91B8EAF
:1042D00000000004B5400000504BCFD06607E2CF8D
:1042E000010000006C4100003E8251AADFEEA734BD
:1042F00001000000D9420000DCB5A0E23A301F976F
:10430000FFFFFFFFB4450000FD25A0C8E9A3C14F92
:10431000FFFFFFFFFF3F00000000008000000000E3
:10432000FF3F00000000008000000000784400080B
:10433000000000201000000014020008884400085B
:1043400010000020C0070000300200081C00000020
:1043500043000000F8FFFFFF0C0000000E0000000B
:104360000F0000002E0000001001000043000000BC
:10437000F8FFFFFF00404040404040404040414186
:10438000414141404040404040404040404040402A
:1043900040404040400502020202020202020202C4
:1043A00002020202022020202020202020202002C1
:1043B0000202020202029090909090901010101051
:1043C00010101010101010101010101010101010ED
:1043D0000202020202028888888888880808080881
:1043E000080808080808080808080808080808084D
:1043F0000202020240000000000000000000000075
:1044000000000000000000000000000000000000AC
:10441000000000000000000000000000000000009C
:10442000000000000000000000000000000000008C
:10443000000000000000000000000000000000007C
:10444000000000000000000000000000000000006C
:10445000000000000000000000000000000000005C
:10446000000000000000000000000000000000004C
:10447000000000000000000010000000010000002B
:08448000000000000024F4001C
:04000005080001D915
:00000001FF
