:020000040800F2
:10000000300B002079020008FF170008E1160008F5
:10001000FD1700089F0300082D19000800000000CC
:1000200000000000000000000000000003180008AD
:10003000B3040008000000000118000805180008BB
:10004000930200089302000893020008930200083C
:10005000930200089302000893020008930200082C
:10006000930200089302000893020008930200081C
:10007000930200089302000893020008930200080C
:100080009302000800000000930200089302000899
:1000900093020008930200089302000893020008EC
:1000A00093020008930200089302000893020008DC
:1000B00093020008930200089302000893020008CC
:1000C00093020008930200089302000893020008BC
:1000D00093020008930200089302000893020008AC
:1000E000930200089302000893020008930200089C
:1000F0009302000893020008930200080000000029
:1001000000000000930200080000000093020008B5
:100110009302000800000000930200089302000808
:1001200005040008930200089302000893020008E7
:100130009302000800000000000000009302000885
:100140009302000893020008000000000000000075
:10015000000000000000000000000000000000009F
:1001600000000000000000000000000093020008F2
:1001700093020008000000000000000000000000E2
:1001800000000000930200080000000000000000D2
:10019000000000000000000000000000000000005F
:1001A0000000000000000000930200089302000815
:1001B0009302000893020008930200080000000068
:1001C0000000000093020008000000000000000092
:1001D000930200089302000800F002F800F03CF8D7
:1001E0000AA090E8000C82448344AAF10107DA4592
:1001F00001D100F031F8AFF2090EBAE80F0013F0A8
:10020000010F18BFFB1A43F001031847F81D000047
:10021000181E0000103A24BF78C878C1FAD85207D7
:1002200024BF30C830C144BF04680C607047000070
:100230000023002400250026103A28BF78C1FBD8EF
:10024000520728BF30C148BF0B6070471FB501F08F
:10025000B7FE1FBD10B510BD00F06CF81146FFF7DA
:10026000F5FF01F00DFD00F08AF803B4FFF7F2FF8F
:1002700003BC00F08DF8000009488047094800479A
:10028000FEE7FEE7FEE7FEE7FEE7FEE7FEE7FEE746
:10029000FEE7FEE704480549054A064B70470000A3
:1002A0006D180008D901000830050020300B00202F
:1002B00030070020300700204FF0000200B5134641
:1002C00094469646203922BFA0E80C50A0E80C5076
:1002D000B1F12001BFF4F7AF090728BFA0E80C5027
:1002E00048BF0CC05DF804EB890028BF40F8042B20
:1002F00008BF704748BF20F8022B11F0804F18BF8D
:1003000000F8012B704770477047704710B500F038
:1003100009F8006810BD10B5044600F003F8046049
:1003200010BD000000487047D0040020004870470E
:10033000D00400207546FFF7F9FFAE460500694678
:10034000534620F00700854618B020B5FFF7A2FFFE
:10035000BDE820404FF000064FF000074FF00008C6
:100360004FF0000B21F00701AC46ACE8C009ACE847
:10037000C009ACE8C009ACE8C0098D46704710B5AB
:100380000446AFF300802046BDE81040FFF76DBF84
:1003900001491820ABBEFEE7260002007047FEE7C9
:1003A00010B5846A204600F065F90120207110BD67
:1003B00010B5846A204600F07FF80120207110BD3E
:1003C00010B5846A206940F004002061204600F0E6
:1003D00053F90120207110BD10B5846A206940F0E6
:1003E00004002061204600F069F80120207110BD52
:1003F00010B5806A00F03FF910BD10B5806A00F0BA
:100400005CF810BD014800F025BA0000240400206B
:100410000D4902688A4201D20C4901E00B492031A2
:10042000D2B21423083AB2FBF3F2436C02F01F027B
:1004300023F003031944816404498031C16401211C
:100440009140016570470000080402400008024026
:100450000179074A02EB81024265054A4432491E8E
:10046000826501F01F0201219140C16570470000C3
:10047000FC08024030B5D0E913456560446D14B105
:10048000D0E91645656090F8444004F01F0501244A
:10049000AC40056C6C60046863608368102B036873
:1004A00003D099600068C26030BD9A600068C16086
:1004B00030BD704772B6FEE7704770477047000066
:1004C0002DE9F0470446407990460D4601280BD0AF
:1004D0004FF0010984F8059002202071A96808F006
:1004E0001006042903D045E00220BDE8F08700F0A3
:1004F000EBFB07465FEA08004FF0030805D01CE05D
:1005000000F0E2FBC01B01280FD82068406B0004FC
:10051000F6D4012000F0A2FA2168686A086416E0A7
:1005200000F0D2FBC01B012807D9206940F0080069
:10053000206184F804800320D7E72068406B0028FE
:10054000EEDB012000F08AFA2168686A48642068BE
:10055000816C40F2FF32B2409143AA6AB24011432B
:1005600081642068C16CFF22B2409143EA6AB240C4
:100570001143C164E869012808D12268916B1F20EA
:10058000B0408143286AB040084390632068C06B44
:100590000721B1408843A969012903D0022955D018
:1005A0006969E9B300216B69AA681A430A434FF4E9
:1005B000807101FA06F398432B79012B00D00021BA
:1005C00011434FF4007202FA06F398436B79012B42
:1005D00000D0002220F44047286842EA010802289F
:1005E00036D00743216808FA06F03843C86320680C
:1005F00001684FF48042B240914301602268116863
:1006000040F6FE70B0408143E868B0400843106097
:1006100020680168C022B24091430160287B00E05D
:1006200014E0297C2268C0F3830001F03C0140EA19
:100630008110116E40F60F73B3409943B0400143EF
:10064000116684F80490002060714EE70121AAE74A
:1006500000F026FD0549884202D947F40047C1E76A
:1006600003498842BED947F48047BBE7006889093F
:1006700000B4C40470477047704770B5040003D0DD
:100680002079002510B105E0012070BD657120467C
:1006900000F008F80220207125610120207100205F
:1006A00070BD0000F0B587B0054614216846FFF71D
:1006B00003FE1D492868884233D11C49C86C40F4A8
:1006C0008030C864C86C00F480300590C86C40F07D
:1006D0000100C864C86C102700F001000097059065
:1006E00003200026CDE9010669464FF0904000F056
:1006F000C7F9104C0E4820600620C4E9010780208D
:10070000C4E90360800060614000A0612020C4E96A
:100710000706204600F0FCF808B1FFF7CBFEAC60FE
:10072000A56207B0F0BD00000008005000100240B4
:1007300008040240240400202DE9F04104460D463F
:100740001746617900220698012920D0012666719A
:1007500002212171F5B1D4F80CC03849CCF82C1025
:10076000D4F80CC03649CCF83010D4F80CC0354958
:10077000CCF834102168D1F800C04CF0805CC1F88E
:1007800000C090B3042834D0082837D134E00220C8
:10079000BDE8F081D4F808C02B49CCF82C10D4F86F
:1007A00008C02A49CCF83010D4F808C02849CCF841
:1007B00034102168D1F800C04CF4805CC1F800C04E
:1007C00020B1042805D0082808D105E022680832A5
:1007D00004E022680C3201E02268103220680168CF
:1007E00041F400510160A0680EE0FFE72268143276
:1007F00004E02268183201E022681C322068016897
:1008000041F000510160E068394600F0E1F807006E
:100810004FF00000607105D0206940F004002061B5
:100820003846B5E72068016805F01002964031436C
:100830000160012000F012F9F2E70000B1030008A6
:10084000FB030008D9030008A1030008F103000816
:10085000C1030008F0B4016C0C6801680D6890F8E1
:10086000442002F01F06042202FA06F3234211D0AC
:100870006B070FD50B689B0603D40B6823F00403AA
:100880000B6090F8441001F01F018A40016C4A602F
:10089000016B1DE0022303FA06F727424FF0000C1C
:1008A0004FF0010218D0AF0716D50C68A40605D486
:1008B0000C6824F00A040C6080F8252090F844109D
:1008C00001F01F018B40016C4B6080F824C0C16AAD
:1008D00000291AD0F0BC08470823B340234214D0A3
:1008E0002B0712D50B6823F00E030B6090F8441011
:1008F000036C01F01F0102FA01F15960C26380F834
:10090000252080F824C0416BE2E7F0BC704700006E
:1009100070B504000CD02B4A21681420914209D2F2
:10092000294A0A44B2FBF0F08000606427480AE0DC
:10093000012070BD234A52420A44B2FBF0F080000D
:100940006064204808382064022084F825000A6882
:1009500047F6F0708243D4E902031843D4E9043522
:100960002B431843A3691843E3691843236A1843C8
:10097000104308602046FFF74BFDA0680025B0F546
:10098000804F00D16560A16C20790860D4E9130123
:1009900041606068401E032808D82046FFF758FDD4
:1009A000606D0560D4E91601416002E06565A565EA
:1009B000E565E563012084F8250084F824500020D3
:1009C00070BD000008040240F8FFFDBF00000240B7
:1009D00070B5044690F82400002501280CD00120B1
:1009E00084F8240094F825600020012E06D084F8B5
:1009F00024000225284670BD022070BD022684F81E
:100A00002560E0632068066826F00106066020463F
:100A1000FFF730FD206B00282068016802D041F00C
:100A20000E0106E021F0040101602068016841F038
:100A30000A010160A06C0168C90303D5016841F493
:100A400080710160606D18B1016841F480710160CE
:100A50002068016841F001010160CBE770B50446F0
:100A600000F032F90546601C02D004484068044496
:100A700000F02AF9401BA042FAD370BD000000200C
:100A80002DE9F04FDFF82092002301260324A9F17D
:100A9000040B85B00F2709F1040AABF1040EFAE04C
:100AA00006FA03F52A407CD091F804C00CF0030C40
:100AB000BCF1010F02D0BCF1020F26D1D0F808C062
:100AC000CDF800C04FEA430C04FA0CF8CDF810C082
:100AD000DDF800C02CEA080CCDF800C0D1F80C807D
:100AE000DDF810C008FA0CF8DDF800C048EA0C0880
:100AF000C0F80880D0F804C02CEA050C0D79C5F3C5
:100B000000159D4045EA0C0545600D79ED43AD07A4
:100B10000ED0C5684FEA430804FA08FC25EA0C0524
:100B2000D1F808C00CFA08FC4CEA050CC0F80CC05F
:100B30000D7905F00305022D16D1DD0800EB850CBB
:100B4000CDF808C0DCF820805D074FEAD56C07FAC5
:100B50000CF528EA05080D6905FA0CF5DDF808C062
:100B600045EA0805CCF8205005684FEA430CCDF85B
:100B700008C004FA0CFC25EA0C0591F804C00CF03E
:100B80000308DDF808C008FA0CF848EA0508C0F8C0
:100B900000804D6815F4403F7CD0444DD5F860C0CE
:100BA00000E077E04CF0010CC5F860C02D6E23F03A
:100BB000030C05F0010500953D4D65440295AD68B7
:100BC0004FEA837C4FEA1C7807FA08FC25EA0C05FB
:100BD000B0F1904F06D0DFF8DCC0604505D14FF092
:100BE000010C20E04FF0000C1DE0DFF8CCC06045A8
:100BF00002D14FF0020C16E0DFF8C0C0604502D110
:100C00004FF0030C0FE0DFF8B8C0604502D14FF0A1
:100C1000040C08E0DFF8ACC0604502D14FF0050CD1
:100C200001E04FF0060C0CFA08FC4CEA050C029DA2
:100C3000C5F808C0D9F80050CC46D1F804809543D7
:100C40005FEAC82800D51543CCF80050DAF8005008
:100C5000D446D1F8048095435FEA882800D515432F
:100C6000CCF80050DBF80050DC46D1F80480954306
:100C70005FEA883800D51543CCF80050DEF8005004
:100C8000F446D1F8048095435FEAC83800D515438F
:100C9000CCF800505B1C0A6832FA03F57FF400AF11
:100CA00005B0BDE8F08F00000804014000100240CC
:100CB000000001400004004800080048000C004803
:100CC0000010004800140048014880687047000088
:100CD000000000200248816842681144816070472A
:100CE0000000002010B50024032000F073F80F204E
:100CF00000F008F808B1012401E000F025F82046D2
:100D000010BD000070B50E4E05460024706898B105
:100D10004FF47A71B1FBF0F00A490968B1FBF0F0C9
:100D200000F000FC40B9102D06D200222946501ECA
:100D300000F030F8356000E00124204670BD00006E
:100D4000000000200C0000200A4882B0016E41F033
:100D500001010166016E01F001010091816D41F018
:100D600080518165806D00F08050009002B000F0ED
:100D7000A1B8000000100240002809DB00F01F02AB
:100D8000012191404009800000F1E020C0F80011ED
:100D900070470000F0B40E4B1B680C46C3F30223EF
:100DA000C3F10705042D00D90425191D072901D217
:100DB000002300E0DB1E012606FA05F1491E214052
:100DC00099409E40761E16403143F0BC00F0C2BDF3
:100DD0000CED00E0064900F0070208684FF6FF033B
:100DE000184040EA0220034A1043086070470000A0
:100DF0000CED00E00000FA052B492C4B0A6832216B
:100E00004A432B4940B1B0F5007F086829D020F44F
:100E1000C06040F480602CE00868C0F341200228E4
:100E200004D051F8800F20F4807022E0D1F88000C7
:100E300020F48070C1F88000086820F4C06040F49D
:100E400000700860B2FBF3F0401C00E0401E4A69ED
:100E5000520501D50028F9D1486940050AD503207B
:100E60007047C0F34120022806D051F8800F40F4AB
:100E70008070086000207047D1F8800040F48070D6
:100E8000C1F88000086820F4C06040F40070086079
:100E9000B2FBF3F0401C00E0401E4A695205DBD56E
:100EA0000028F9D1D8E700000C00002040420F00D4
:100EB000007000400248816841F4804181607047C1
:100EC000007000402DE9F0470E4605004FF0000786
:100ED00025D0DFF8AC81D8F8000000F00F00B04258
:100EE0000CD2D8F8001021F00F013143C8F80010DF
:100EF000D8F8000000F00F00B04210D12968614C12
:100F0000C80741F2883A5AD06868DFF87C91032814
:100F100008D0022820682DD0400500282CDB0120B5
:100F2000BDE8F08720688001F9D5E06800F0030291
:100F3000E068C0F30310401C032A19D0534A00BFD5
:100F4000B2FBF0F0E268C2F306225043E268C2F35B
:100F50004162521C5200B0FBF2F0484517D9A0681C
:100F600010F0F00F0CD0880711D5A86840B10EE042
:100F7000474AE5E78003D0E700F098F8484506D9EE
:100F8000A06820F0F00040F08000A0608027A068FA
:100F9000696820F003000843A060FFF795FE8146D2
:100FA00006E000BFFFF790FEA0EB090151453AD8DB
:100FB000A068696800F00C00B0EB810FF2D12868DE
:100FC000810714D5400703D5A06840F4E060A06015
:100FD0002878000705D5A06820F4605040F4E06050
:100FE000A060A068A96820F0F000084304E0802F0A
:100FF00003D1A06820F0F000A060D8F800104046AF
:1010000001F00F01B14216D9016821F00F013143FF
:101010000160FFF759FE074607E000BFFFF754FEE7
:10102000C11B514501D903207AE7D8F8000000F030
:101030000F00B042F2D12878400705D5A068E968D2
:1010400020F4E0600843A0602878000706D5A06877
:10105000296920F4605040EAC100A06000F026F841
:10106000A1680C4AC1F30311515C01F01F01C84093
:101070000949086009480068BDE8F047FFF742BE2B
:10108000002002400010024000B4C4040024F40018
:1010900000127A00D41F00080C000020000000207D
:1010A00001480068704700000C000020184910B586
:1010B0008868C0F381021748012A0BD08A68431060
:1010C000C2F38102022A06D08A68C2F38102032A8F
:1010D00003D0002010BD184610BDCA6802F00304FA
:1010E000CA68C2F30312521C032C02D0B0FBF2F008
:1010F00001E0B3FBF2F0CA68C968C2F306225043AC
:10110000C1F34161491C4900B0FBF1F010BD000082
:10111000001002400024F4002DE9F84304007AD0C6
:101120002078FA4DC00747D0A868E96800F00C00A5
:1011300001F003010C2802D0082817D001E0032990
:1011400014D06068B0F5803F17D0B0F5A02F2868A4
:1011500017D020F480302860286820F48020286090
:101160006068E0B1FFF7B0FD064614E02868800330
:1011700022D560680028D2D01EE0286840F4803074
:10118000EDE740F480202860F7E700BFFFF79CFD03
:10119000801B642870D828688003F7D50CE0FFF71F
:1011A00093FD064605E000BFFFF78EFD801B642817
:1011B000F0D828688003F7D4207880074CD5A86839
:1011C000E96800F00C0001F003010C2802D00428AB
:1011D0000DD001E002290AD0E068002828682BD051
:1011E00040F480702860FFF76FFD064619E028681C
:1011F000400502D5E068002891D06868217C20F085
:10120000FE4040EA01606860C1480068FFF77AFD6F
:10121000002800D120E076E1FFF756FD801B022870
:10122000B8D828684005F7D56868217C20F0FE40D2
:1012300040EA016068600FE020F480702860FFF7EA
:1012400043FD064605E000BFFFF73EFD801B022878
:10125000A0D828684005F7D42078000729D5606910
:101260000028D5F8940013D040F00100C5F8940090
:10127000FFF72AFD064606E090E000BFFFF724FDD9
:10128000801B022886D8D5F894008007F6D510E098
:1012900020F00100C5F89400FFF716FD064604E0B3
:1012A000FFF712FD801B022878D8D5F8940080073C
:1012B000F6D42078400761D5A86D0026C00008D478
:1012C000A86D40F08050A865A86D012600F0805000
:1012D000009090480168C90511D40168804641F426
:1012E00080710160FFF7F0FC074604E0FFF7ECFCBB
:1012F000C01B022852D8D8F80000C005F6D5A06857
:10130000012815D00528D5F8900016D020F001004E
:10131000C5F89000D5F8900020F00400C5F89000C2
:10132000A06841F28838B8B1FFF7CEFC07460EE05E
:10133000D5F8900040F00100F0E740F00400C5F857
:101340009000F5E7FFF7C0FCC11B414526D8D5F852
:1013500090008007F6D50CE0FFF7B6FC074604E0E6
:10136000FFF7B2FCC11B414518D8D5F890008007A3
:10137000F6D41EB1A86D20F08050A86520788006B4
:1013800029D5A0690028D5F8980013D040F00100B5
:10139000C5F89800FFF798FC064606E077E000BF26
:1013A000FFF792FC801B022877D8D5F898008007B9
:1013B000F6D510E020F00100C5F89800FFF784FC96
:1013C000064604E0FFF780FC801B022865D8D5F8AC
:1013D00098008007F6D4E069F0B3A968C1F38101F1
:1013E000032961D00228286820F0807028600BD083
:1013F000E86820F00300E860E86847490840E860D2
:10140000FFF762FC04464BE0FFF75EFC064604E093
:10141000FFF75AFC801B02283FD828688001F7D4C8
:10142000F4E908016FF00F0202EB01110843218A71
:101430005204490802EB4151A26841EA02210843E3
:10144000217D4FF07E42490802EB41610843217B38
:1014500040EAC160E96800E062E0304A11400843B8
:10146000E860286840F080702860E86840F080708C
:10147000E860FFF729FC044605E000BFFFF724FC05
:10148000001B022809D828688001F7D548E004E04D
:10149000FFF71AFC001B022802D90320BDE8F883DD
:1014A00028688001F4D43BE00128F7D0E868226A7C
:1014B00000F00301914226D1616A00F0F0020901B7
:1014C000103991421FD1A26A00F4FE41B1EB022F04
:1014D00019D194F82C2000F07841B1EBC26F12D1F1
:1014E000218E00F4C00249084905A1F5001191427E
:1014F00009D194F8341000F0C06049084906A1F100
:10150000007181420CD00120C8E7000000100240A9
:101510000000002000700040FFFFEEFE0C809F01E5
:101520000020BBE710B5401EB0F1807F01D3012041
:1015300010BD4FF0E02460610F21601700F00AFA3F
:101540000020A06107202061002010BDF0B590F8B8
:101550003C20012A3AD0012580F83C50022280F834
:101560003D2003685A689C68194E1A4FB34201D057
:10157000BB4204D122F4700C4A6842EA0C02DFF844
:1015800058C002EA0C02D1F800C04CEA020CC3F8C1
:1015900004C00268B2420DD0B2F1804F0AD00F4BA6
:1015A0009A4207D00E4B9A4204D0BA4202D00D4B59
:1015B0009A4204D1896824F080031943916080F82D
:1015C0003D50002180F83C100846F0BD0220F0BDDF
:1015D000002C0140003401408FFFFFFD000400405B
:1015E000000800400040014010B5040003D094F80A
:1015F0003D0010B107E0012010BD002084F83C0040
:10160000204600F023F8022084F83D00211D2068C8
:1016100000F034F9012084F8480084F83E0084F892
:101620003F0084F8400084F8410084F8420084F8C8
:10163000430084F8440084F8450084F8460084F8A8
:10164000470084F83D00002010BD000008B5006888
:101650000649884208D10648816D41F01001816534
:10166000806D00F01000009008BD000000100040E8
:101670000010024090F83D10012901D00120704770
:10168000022180F83D1000680F4988420ED0B0F169
:10169000804F0BD00D49884208D00D49884205D0B3
:1016A0000C49884202D00C49884207D181680B4A14
:1016B0001140062906D0B1F5803F03D0016841F002
:1016C0000101016000207047002C0140000400402F
:1016D00000080040003401400040014007000100C4
:1016E000FEE7000000B58DB030216846FEF7E4FD4E
:1016F0001249114808600846FEF7BFFF08B1FEF71F
:10170000D9FE00201E220221CDE9020200918DF8AF
:101710000400CDE904018DF805000121CDE9061092
:10172000024669460548FEF7CBFE002801D0FEF7C9
:10173000C1FE0DB000BD00000008005010040020E4
:101740000D4808B5816C41F004018164816C01F0A1
:1017500004010091816C41F002018164806C0022DF
:1017600000F00200009011463820FFF713FBBDE89F
:1017700008403820FFF700BB001002400D4808B5B4
:10178000C16C41F00401C164C16C01F0040100911D
:10179000C16C41F02001C164C16C01F020010091D5
:1017A000C16C41F00101C164C06C00F00100009007
:1017B00008BD0000001002403EB500240E48009411
:1017C00001940C490294C0E90014A921C0E9024126
:1017D0008461FFF709FF08B1FEF76CFE202000903E
:1017E000694602940448FFF7B1FE002801D0FEF7D5
:1017F00061FE3EBD0010004084040020FEE7FEE7CD
:1018000070477047FFF766BA10B594B03821684644
:10181000FEF752FD14210EA8FEF74EFD0020FFF743
:10182000EBFA012000900004019002200324CDE98E
:1018300007045521CDE909010B900C900D906846E5
:10184000FFF76AFC08B172B6FEE70F20CDE90E047F
:10185000002010901190129004210EA8FFF732FB87
:10186000002801D072B6FEE714B010BD024801682E
:1018700041F470010160704788ED00E02DE9F0430C
:101880000268234B234D244E244C4FF0804998424C
:1018900007D0484505D0A84203D0B04201D0A042AD
:1018A00003D122F070074A683A431D4FDFF874C035
:1018B000DFF8748098420DD048450BD0A84209D07B
:1018C000B04207D0A04205D0B84203D0604501D055
:1018D000404503D122F44075CA682A434D6922F07D
:1018E00080022A4302608A68C2620A688262984261
:1018F00007D0A04205D0B84203D0604501D0404592
:1019000001D10969016301214161BDE8F083000053
:10191000002C014000040040000800400034014059
:10192000004001400044014000480140FEE7410002
:10193000080218BF04200A0E18BF40F001004FF043
:101940007F4232EA010108BF40F00200012808BFCF
:10195000052070470907090E002804DB00F1E0208C
:1019600080F80014704700F00F0000F1E02080F8CC
:10197000141D704700B510EE101A2DED028B81B0CA
:10198000524A6846B2EB410F2ED94FF0E640B0EB19
:10199000410F94BF00204FF0FF3000900098B0EE50
:1019A000408A00286ADB10F0010F4BD068EE080A6D
:1019B0009FED471A9FED470A00EE810A9FED461AF8
:1019C00010F0020F00EE801AB7EE000A00EE810A56
:1019D00002BF01B0BDEC028B00BD00BF01B0B1EE93
:1019E000400ABDEC028B00BD3C4B21F0004293420B
:1019F00041D911F0004FDFED3A0A20EE201ADFED59
:101A0000390A19BF31EE601A71EE200A31EE201A40
:101A100071EE600ABDEEE01A11EE100A9FED321A67
:101A200000F0030000EEC10A9FED301A009000EEB6
:101A3000C10A9FED2F1A00EEC10A9FED2E1A00EE8B
:101A4000C10AABE728EE080A9FED2B1ADFED2B0A3F
:101A500010F0020F40EE410A9FED291A00EE201A05
:101A600061EE000AB0EE480A08EE200AB6D101B0D5
:101A7000BDEC028B00BD00F059F88FE718EE100A9C
:101A80004000B0F17F4F0DD218EE100AFFF74FFF64
:101A9000042808BF00F042F8B0EE480A01B0BDECDF
:101AA000028B00BD09D10120FEF735FC01B0BDEC71
:101AB000028B5DF804EB00F029B801B0B0EE480AE3
:101AC000BDEC028B5DF804EB00F01CB8B61F927EF3
:101AD000B93AB2BACA9F2A3DDDFFFFBE490E494658
:101AE00083F9223F0000004B0000C93F00A0FD39F0
:101AF0000020A2331A61342C336D4C39DA82083C51
:101B0000A0AA2ABE30EE000A70470000DFED020AEC
:101B100080EEA00A70470000000000009FED020A5E
:101B200020EE000A70470000000000102DE9F001CF
:101B30004FF07F42B2EB410F9FBF4FF0FF3101608A
:101B4000BDE8F00170474FF0004242EA0123C1F3C3
:101B5000C752783A551112F01F0C434CCCF12006B5
:101B60007C44C1F3C752A2F178024FEA621204EB3F
:101B7000820254F8254008BFD2E9015612D05568B8
:101B800004FA0CF425FA06F73C43976805FA0CF5BD
:101B900027FA06F8D26807FA0CFCF24045EA080575
:101BA0004CEA0206A4FB034CA5FB0352A6FB03630D
:101BB0001D449D4234BF012600261319334416B13B
:101BC000934202D903E0934201D2012200E00022B5
:101BD000624402F1200C9206DC0C42EA443200EE30
:101BE000102A5B03DFED210AF8EEC01A00EE103A6E
:101BF0004FEA9C1C11F0004FB8EE400AC0F800C03C
:101C000020EE201A00EE105ADFED190AB8EE400A55
:101C100020EE200A71EE810A70EE800A10EE902A02
:101C200002F500626FF30B0200EE902A70EEE11AEB
:101C300031EEC11ADFED101A30EE411A9FED0D0A98
:101C400020EE800A01EE210A9FED0C1A00EE810AB7
:101C500004BFBDE8F0017047CCF180510160BDE8E0
:101C6000F001B1EE400A7047800400000000003629
:101C70000000802C22AAFD29DB0FC92F0000C92FEC
:101C80002DED088B82B0FFF72DF8FFF7BDFDFFF7B4
:101C900075FDFFF755FDFFF725FDFFF78DFD9FED66
:101CA0001D8B9FED1E9B9FED1FBA1F4D0024B7EEAD
:101CB00000AAF6EE00AA4FF40076204600F06BF87A
:101CC00053EC182B00F07EF853EC192B00F07AF847
:101CD00000F030F800EE100AFFF74CFE30EE0A0A72
:101CE00020EE2A0A20EE0B0ABCEEC00A10EE100A03
:101CF00025F81400641CB442DFDB0C48FFF7BAFC83
:101D00000020014600903346074A0948FEF714FDBB
:101D1000FEE700004AD8124DFB21194000000000E8
:101D20000000603F00F07F45100000208404002088
:101D30001004002021F00042A2F16052B2F5801F91
:101D400001F0004328BFD2F17F6C0BD95FEA001C81
:101D500043EAC20242EB507018BF704728BF20F020
:101D600001007047B2F5801FBCBF184670474FEAAC
:101D7000410C1CF5001F02D2084600F026B970B5D0
:101D800000F0CAF800000089FFF7F6BF4FF00040EE
:101D9000A0F58000704710F0004248BF4042B0FA02
:101DA00080F310FA03F10AD0C3F11D0303F5806339
:101DB0004FEA415002EB035202EBD12170474FF042
:101DC00000007047DFF848C170B51CEA111E1EBF45
:101DD0001CEA13159EEA0C0F95EA0C0F00F06F80B9
:101DE00081EA030423EA4C134EEAD47E21EA4C1123
:101DF00041F4801143F48013AE44A1FB024CA0FBDC
:101E00000365AEF17F7E361955EB0C05A1FB034C43
:101E10004CF10003A0FB021C16EB0C06654153F1CC
:101E20000003094218BF46F0010613F4007F0BD1EE
:101E30004FEA03314FEA0530340341EA155140EAD5
:101E400016506FF003020AE04FEAC3214FEAC520A3
:101E5000F40241EA555140EA56506FF0020202EB9B
:101E60002E4201EB025585EACE710AD05FEA440C9E
:101E700018BF24F0004450F1000041F1000120EAB5
:101E8000D47040F2FE7C624500D270BDA84214BFFF
:101E90004FF080444FF04044002E08BF0024BEF1B4
:101EA000806FA8BFA1F1C041BDE8704080F2828080
:101EB0004FF0000001F1C04101F0004170479EEA7F
:101EC0000C0F0CEA131518BF95EA0C0F06D04FF053
:101ED000000081EA030E0EF0004170BD00F01CF816
:101EE0008900013E00F007B800F009B84FEA430C42
:101EF0005FEA5C5C08D081EA030100F05BB84FEA5E
:101F0000410C5FEA5C5CF6D14FF00000014970477C
:101F10000000FF070000F87F0EF1020E2EF0030E06
:101F20005EF8046B364205D4012A43EB030515F530
:101F3000001F12D8012841EB010C1CF5001F0CD822
:101F40000ED14FEAD17C15F5001F0CEB4C0C0CF1B7
:101F5000020C08BF4CEBD37C04E04FF0080C01E00E
:101F60004FEAD37C0CEB4C0526FA05F606F0070683
:101F7000B6F1040C06D20EEB860CBDE870404CF0B6
:101F8000010C6047DFE80CF0090B02024FF0004142
:101F90004FF00000A1F5002170BD19461046012840
:101FA00051EB010418BFD4F5001484BF002001F0E8
:101FB000004170BD0808A0F500114FEA31017047DB
:101FC0004FF04070E1EE100A7047FF2141EAD05017
:101FD000C00570470000000000000000010203047B
:101FE00006070809000000006E83F9A22915444E77
:101FF000D15727FCC0DD34F5999562DB4190433C15
:10200000AB6351FE242000080000002010000000F7
:10201000140200083420000810000020200B0000EB
:102020003002000810000000010000000000000065
:042030000024F40094
:04000005080001D915
:00000001FF
