:020000040800F2
:10000000000700207902000867140008AD130008FB
:10001000651400086F0400088B1900080000000038
:100020000000000000000000000000006B14000849
:100030007104000800000000691400086D14000835
:10004000930200089302000893020008930200083C
:10005000930200089302000893020008930200082C
:10006000930200089302000893020008930200081C
:10007000930200089302000893020008930200080C
:100080009302000800000000930200089302000899
:1000900093020008930200089302000893020008EC
:1000A00093020008930200089302000893020008DC
:1000B00093020008930200089302000893020008CC
:1000C00093020008930200089302000893020008BC
:1000D00093020008930200089302000893020008AC
:1000E000930200089302000893020008930200089C
:1000F0009302000893020008930200080000000029
:1001000000000000930200080000000093020008B5
:100110009302000800000000930200089302000808
:10012000930200089302000893020008930200085B
:100130009302000800000000000000009302000885
:100140009302000893020008000000000000000075
:10015000000000000000000000000000000000009F
:1001600000000000000000000000000093020008F2
:1001700093020008000000000000000000000000E2
:1001800000000000930200080000000000000000D2
:10019000000000000000000000000000000000005F
:1001A0000000000000000000930200089302000815
:1001B0009302000893020008930200080000000068
:1001C0000000000093020008000000000000000092
:1001D000930200089302000800F002F800F03CF8D7
:1001E0000AA090E8000C82448344AAF10107DA4592
:1001F00001D100F031F8AFF2090EBAE80F0013F0A8
:10020000010F18BFFB1A43F001031847FC17000049
:100210001C180000103A24BF78C878C1FAD85207D9
:1002200024BF30C830C144BF04680C607047000070
:100230000023002400250026103A28BF78C1FBD8EF
:10024000520728BF30C148BF0B6070471FB501F08F
:10025000B6FB1FBD10B510BD00F0D4F81146FFF776
:10026000F5FF01F0A3FB00F0F2F803B4FFF7F2FF93
:1002700003BC00F0F5F80000094880470948004732
:10028000FEE7FEE7FEE7FEE7FEE7FEE7FEE7FEE746
:10029000FEE7FEE704480549054A064B70470000A3
:1002A000D5140008D9010008000100200007002033
:1002B000000300200003002053EA020C00F06980D4
:1002C0002DE9F04B4FF00006002B1FBFB3FA83F56A
:1002D00003FA05F424FA05F65E4012BF1643B2FA9B
:1002E00082F502FA05F4C5F120051EBF22FA05FCCD
:1002F00044EA0C04203556EA044C4FEA144418BF73
:10030000641C4FF000084FF00009904271EB030CA1
:1003100039D3002919BFB1FA81F701FA07F6B0FA0B
:1003200080F700FA07F6C7F120071EBF20FA07FC86
:1003300046EA0C062037B6FBF4FCA7EB0507103F96
:1003400007F01F0BCBF120060CFA0BFB2CFA06F67C
:1003500044BFB3460026202FA4BF5E464FF0000BDB
:100360005BEA060C08BF4FF0010B19EB0B09ABFB66
:10037000027C48EB0608C01B06FB02CC0BFB03CC3F
:1003800071EB0C01C1E70B46024641464846BDE809
:10039000F08B13B54FF000004FF00001AFF3008079
:1003A000BDE81C4070474FF0000200B5134694466C
:1003B0009646203922BFA0E80C50A0E80C50B1F1BD
:1003C0002001BFF4F7AF090728BFA0E80C5048BFD1
:1003D0000CC05DF804EB890028BF40F8042B08BF6F
:1003E000704748BF20F8022B11F0804F18BF00F86B
:1003F000012B7047704770477047000000487047F6
:10040000A00000207546FFF7F9FFAE4605006946DB
:10041000534620F00700854618B020B5FFF73AFF95
:10042000BDE820404FF000064FF000074FF00008F5
:100430004FF0000B21F00701AC46ACE8C009ACE876
:10044000C009ACE8C009ACE8C0098D46704710B5DA
:100450000446AFF300802046BDE81040FFF705BF1B
:1004600001491820ABBEFEE7260002007047FEE7F8
:10047000704772B6FEE700002DE9F04FDFF82092DA
:10048000002301260324A9F1040B85B00F2709F1ED
:10049000040AABF1040EFAE006FA03F52A407CD018
:1004A00091F804C00CF0030CBCF1010F02D0BCF1B8
:1004B000020F26D1D0F808C0CDF800C04FEA430C97
:1004C00004FA0CF8CDF810C0DDF800C02CEA080CD6
:1004D000CDF800C0D1F80C80DDF810C008FA0CF897
:1004E000DDF800C048EA0C08C0F80880D0F804C065
:1004F0002CEA050C0D79C5F300159D4045EA0C0565
:1005000045600D79ED43AD070ED0C5684FEA43084D
:1005100004FA08FC25EA0C05D1F808C00CFA08FC1E
:100520004CEA050CC0F80CC00D7905F00305022D4E
:1005300016D1DD0800EB850CCDF808C0DCF8208072
:100540005D074FEAD56C07FA0CF528EA05080D6936
:1005500005FA0CF5DDF808C045EA0805CCF820508E
:1005600005684FEA430CCDF808C004FA0CFC25EAF4
:100570000C0591F804C00CF00308DDF808C008FA77
:100580000CF848EA0508C0F800804D6815F4403FB3
:100590007CD0444DD5F860C000E077E04CF0010C11
:1005A000C5F860C02D6E23F0030C05F00105009521
:1005B0003D4D65440295AD684FEA837C4FEA1C7857
:1005C00007FA08FC25EA0C05B0F1904F06D0DFF8D9
:1005D000DCC0604505D14FF0010C20E04FF0000C6D
:1005E0001DE0DFF8CCC0604502D14FF0020C16E0F0
:1005F000DFF8C0C0604502D14FF0030C0FE0DFF818
:10060000B8C0604502D14FF0040C08E0DFF8ACC080
:10061000604502D14FF0050C01E04FF0060C0CFADA
:1006200008FC4CEA050C029DC5F808C0D9F800503A
:10063000CC46D1F8048095435FEAC82800D515431D
:10064000CCF80050DAF80050D446D1F80480954335
:100650005FEA882800D51543CCF80050DBF800503D
:10066000DC46D1F8048095435FEA883800D515430D
:10067000CCF80050DEF80050F446D1F804809543E1
:100680005FEAC83800D51543CCF800505B1C0A68F7
:1006900032FA03F57FF400AF05B0BDE8F08F00003B
:1006A000080401400010024000000140000400481E
:1006B00000080048000C00480010004800140048E2
:1006C00001488068704700000000002002488168EF
:1006D00042681144816070470000002010B500247A
:1006E000032000F065F80F2000F008F808B101249D
:1006F00001E000F025F8204610BD000070B50E4E58
:1007000005460024706898B14FF47A71B1FBF0F09F
:100710000A490968B1FBF0F000F054FD40B9102D12
:1007200006D200222946501E00F022F8356000E073
:100730000124204670BD0000000000200C000020B5
:100740000A4882B0016E41F001010166016E01F0BC
:1007500001010091816D41F080518165806D00F053
:100760008050009002B000F093B8000000100240EA
:10077000F0B40E4B1B680C46C3F30223C3F107050C
:10078000042D00D90425191D072901D2002300E0FA
:10079000DB1E012606FA05F1491E214099409E40C4
:1007A000761E16403143F0BC01F0F0B80CED00E0CD
:1007B000064900F0070208684FF6FF03184040EAB8
:1007C0000220034A10430860704700000CED00E06F
:1007D0000000FA052B492C4B0A6832214A432B4969
:1007E00040B1B0F5007F086829D020F4C06040F423
:1007F00080602CE00868C0F34120022804D051F842
:10080000800F20F4807022E0D1F8800020F4807006
:10081000C1F88000086820F4C06040F400700860EF
:10082000B2FBF3F0401C00E0401E4A69520501D5BE
:100830000028F9D1486940050AD503207047C0F364
:100840004120022806D051F8800F40F480700860E3
:1008500000207047D1F8800040F48070C1F880001B
:10086000086820F4C06040F400700860B2FBF3F048
:10087000401C00E0401E4A695205DBD50028F9D132
:10088000D8E700000C00002040420F00007000403C
:100890000248816841F480418160704700700040E7
:1008A0002DE9F8430446006800269D4D00035ED5FF
:1008B000A86D0027C00008D4A86D40F08050A8653E
:1008C000A86D012700F080500090DFF85892D9F809
:1008D000001041F48071C9F80010FFF7F1FE804666
:1008E00006E000BFFFF7ECFEA0EB080002282BD8C3
:1008F000D9F80000C005F5D5D5F8900010F4407087
:1009000014D0216C814211D0D5F89000D5F8901008
:1009100020F4407041F48031C5F89010D5F8901063
:1009200021F48031C5F89010C5F89000C00711D0AF
:10093000FFF7C6FE804641F2883907E0FFF7C0FEA8
:10094000A0EB0801494501D903260BE0D5F890003A
:100950008007F3D5D5F89000216C20F4407008434F
:10096000C5F890001FB1A86D20F08050A8652078D0
:10097000C00707D0D5F88800616820F0030008435D
:10098000C5F888002078800707D5D5F88800A168C9
:1009900020F00C000843C5F888002078400707D5F0
:1009A000D5F88800E16820F030000843C5F88800D9
:1009B0002078000707D5D5F88800216920F0C0000D
:1009C0000843C5F888002078800607D5D5F8880048
:1009D000616920F440600843C5F88800207840062B
:1009E00007D5D5F88800A16920F440500843C5F820
:1009F00088002078000607D5D5F88800E16920F442
:100A000040400843C5F888002088C00507D5D5F8C0
:100A10008800216A20F440300843C5F88800208807
:100A2000800507D5D5F88800616A20F44020084386
:100A3000C5F88800208840050FD5D5F88800A16A40
:100A400020F440100843C5F88800A06AB0F5801F64
:100A500003D1E86840F48010E860208800050FD5D5
:100A6000D5F88800E16A20F440000843C5F8880002
:100A7000E06AB0F5800F03D1E86840F48010E860C8
:100A80002088C0040FD5D5F88800216B20F0407075
:100A90000843C5F88800206BB0F1807F03D1E86877
:100AA00040F48010E86020884FF0006180040ED58B
:100AB000D5F88800626B20F040601043C5F88800CC
:100AC000606B884203D1E86840F48010E8602088B9
:100AD00040040ED5D5F88800A26B20F0406010438A
:100AE000C5F88800A06B884203D1E86840F4801004
:100AF000E860208800040FD5D5F88800E16B20F06D
:100B000040500843C5F88800E06BB0F1805F03D126
:100B1000E86840F48030E8603046BDE8F8830000C3
:100B200000100240007000402DE9F0470E4605001D
:100B30004FF0000725D0DFF8AC81D8F8000000F0B6
:100B40000F00B0420CD2D8F8001021F00F01314351
:100B5000C8F80010D8F8000000F00F00B04210D123
:100B60002968614CC80741F2883A5AD06868DFF8B2
:100B70007C91032808D0022820682DD04005002849
:100B80002CDB0120BDE8F08720688001F9D5E06802
:100B900000F00302E068C0F30310401C032A19D0E0
:100BA000534A00BFB2FBF0F0E268C2F306225043A2
:100BB000E268C2F34162521C5200B0FBF2F04845B9
:100BC00017D9A06810F0F00F0CD0880711D5A868CD
:100BD00040B10EE0474AE5E78003D0E700F0B6F801
:100BE000484506D9A06820F0F00040F08000A060E1
:100BF0008027A068696820F003000843A060FFF721
:100C00005FFD814606E000BFFFF75AFDA0EB09013A
:100C100051453AD8A068696800F00C00B0EB810F2C
:100C2000F2D12868810714D5400703D5A06840F4A5
:100C3000E060A0602878000705D5A06820F4605027
:100C400040F4E060A060A068A96820F0F0000843CC
:100C500004E0802F03D1A06820F0F000A060D8F855
:100C60000010404601F00F01B14216D9016821F091
:100C70000F0131430160FFF723FD074607E000BF86
:100C8000FFF71EFDC11B514501D903207AE7D8F8B3
:100C9000000000F00F00B042F2D12878400705D5DF
:100CA000A068E96820F4E0600843A06028780007A5
:100CB00006D5A068296920F4605040EAC100A06010
:100CC00000F044F8A1680C4AC1F30311515C01F033
:100CD0001F01C8400949086009480068BDE8F0479D
:100CE000FFF70CBD002002400010024000B4C40415
:100CF0000024F40000127A00F01900080C00002013
:100D0000000000200548064900688968054AC1F3CB
:100D10000221515C01F01F01C84070470C00002007
:100D200000100240001A000805480649006889685A
:100D3000054AC1F3C221515C01F01F01C840704750
:100D40000C00002000100240001A0008184910B5DD
:100D50008868C0F381021748012A0BD08A684310C3
:100D6000C2F38102022A06D08A68C2F38102032AF2
:100D700003D0002010BD184610BDCA6802F003045D
:100D8000CA68C2F30312521C032C02D0B0FBF2F06B
:100D900001E0B3FBF2F0CA68C968C2F3062250430F
:100DA000C1F34161491C4900B0FBF1F010BD0000E6
:100DB000001002400024F4002DE9F84304007AD02A
:100DC0002078FA4DC00747D0A868E96800F00C0009
:100DD00001F003010C2802D0082817D001E00329F4
:100DE00014D06068B0F5803F17D0B0F5A02F286808
:100DF00017D020F480302860286820F480202860F4
:100E00006068E0B1FFF75CFC064614E028688003E8
:100E100022D560680028D2D01EE0286840F48030D7
:100E2000EDE740F480202860F7E700BFFFF748FCBB
:100E3000801B642870D828688003F7D50CE0FFF782
:100E40003FFC064605E000BFFFF73AFC801B642824
:100E5000F0D828688003F7D4207880074CD5A8689C
:100E6000E96800F00C0001F003010C2802D004280E
:100E70000DD001E002290AD0E068002828682BD0B4
:100E800040F480702860FFF71BFC064619E02868D4
:100E9000400502D5E068002891D06868217C20F0E8
:100EA000FE4040EA01606860C1480068FFF726FC28
:100EB000002800D120E076E1FFF702FC801B022829
:100EC000B8D828684005F7D56868217C20F0FE4036
:100ED00040EA016068600FE020F480702860FFF74E
:100EE000EFFB064605E000BFFFF7EAFB801B022888
:100EF000A0D828684005F7D42078000729D5606974
:100F00000028D5F8940013D040F00100C5F89400F3
:100F1000FFF7D6FB064606E090E000BFFFF7D0FBE8
:100F2000801B022886D8D5F894008007F6D510E0FB
:100F300020F00100C5F89400FFF7C2FB064604E06C
:100F4000FFF7BEFB801B022878D8D5F894008007F5
:100F5000F6D42078400761D5A86D0026C00008D4DB
:100F6000A86D40F08050A865A86D012600F0805063
:100F7000009090480168C90511D40168804641F489
:100F800080710160FFF79CFB074604E0FFF798FBC8
:100F9000C01B022852D8D8F80000C005F6D5A068BA
:100FA000012815D00528D5F8900016D020F00100B2
:100FB000C5F89000D5F8900020F00400C5F8900026
:100FC000A06841F28838B8B1FFF77AFB07460EE017
:100FD000D5F8900040F00100F0E740F00400C5F8BB
:100FE0009000F5E7FFF76CFBC11B414526D8D5F80B
:100FF00090008007F6D50CE0FFF762FB074604E09F
:10100000FFF75EFBC11B414518D8D5F8900080075B
:10101000F6D41EB1A86D20F08050A8652078800617
:1010200029D5A0690028D5F8980013D040F0010018
:10103000C5F89800FFF744FB064606E077E000BFDE
:10104000FFF73EFB801B022877D8D5F89800800771
:10105000F6D510E020F00100C5F89800FFF730FB4E
:10106000064604E0FFF72CFB801B022865D8D5F864
:1010700098008007F6D4E069F0B3A968C1F3810154
:10108000032961D00228286820F0807028600BD0E6
:10109000E86820F00300E860E86847490840E86035
:1010A000FFF70EFB04464BE0FFF70AFB064604E0A1
:1010B000FFF706FB801B02283FD828688001F7D481
:1010C000F4E908016FF00F0202EB01110843218AD5
:1010D0005204490802EB4151A26841EA0221084347
:1010E000217D4FF07E42490802EB41610843217B9C
:1010F00040EAC160E96800E062E0304A114008431C
:10110000E860286840F080702860E86840F08070EF
:10111000E860FFF7D5FA044605E000BFFFF7D0FA14
:10112000001B022809D828688001F7D548E004E0B0
:10113000FFF7C6FA001B022802D90320BDE8F88396
:1011400028688001F4D43BE00128F7D0E868226ADF
:1011500000F00301914226D1616A00F0F00209011A
:10116000103991421FD1A26A00F4FE41B1EB022F67
:1011700019D194F82C2000F07841B1EBC26F12D154
:10118000218E00F4C00249084905A1F500119142E1
:1011900009D194F8341000F0C06049084906A1F163
:1011A000007181420CD00120C8E70000001002400D
:1011B0000000002000700040FFFFEEFE0C809F0149
:1011C0000020BBE710B5401EB0F1807F01D30120A5
:1011D00010BD4FF0E02460610F21601700F0D6FBD6
:1011E0000020A06107202061002010BD90F8801031
:1011F000012918D0012180F880102421C0F8841022
:1012000050F8641B0A680B6823F001030B6022F09E
:1012100000510022026050F8643C196020210162F4
:101220000277104670470220704770B5044690F868
:10123000800001281DD0012084F880002420C4F8FB
:10124000840020680568026822F0010202602068BC
:10125000826822F060620A438260204600F042F910
:10126000206805602020C4F88400002084F88000F5
:1012700070BD022070BD70B5044690F88000012852
:101280001DD0012084F880002420C4F88400206848
:101290000568026822F0010202602068826822F07C
:1012A00060420A438260204600F01CF92068056015
:1012B0002020C4F88400002084F8800070BD022043
:1012C00070BD10B5040003D0D4F8840010B107E05D
:1012D000012010BD002084F88000204600F026F890
:1012E0002420C4F884002068016821F00101016015
:1012F000204600F0ADF90128EBD0A06A10B12046DD
:1013000000F012F92068416821F4904141602068A2
:10131000816821F02A0181602068016841F00101A3
:1013200001602046BDE8104000F062B910B598B0E9
:101330000446142111A8FFF736F844216846FFF748
:1013400032F817492068884227D1042000240090F1
:1013500003946846FFF7A4FA08B1FFF78AF811482A
:10136000816D41F480218165816D01F480211691A8
:10137000C16C41F00201C164C06C11A900F002000F
:1013800016904FF4406011900220CDE9120407201E
:10139000CDE914400448FFF76FF818B010BD000005
:1013A000004800400010024000040048FEE7000032
:1013B000114808B5C16C41F00401C164C16C01F071
:1013C00004010091C16C41F02001C164C16C01F0C5
:1013D00020010091C16C41F00201C164C16C01F0B7
:1013E00002010091C16C41F00101C164C06C00F0C8
:1013F0000100009008BD000000100240184810B520
:10140000164901604FF4E1314160002181600C22F6
:10141000C160C0E904128161C161016241628162FF
:10142000FFF74FFF08B1FFF724F800210C48FFF742
:1014300022FF08B1FFF71DF800210948FFF7F5FE6C
:1014400008B1FFF716F80648FFF7D0FE002803D0D2
:10145000BDE81040FFF70DB810BD00000048004087
:1014600010000020FEE7FEE770477047FFF72EB937
:1014700010B594B038216846FEF795FF14210EA8E8
:10148000FEF791FF0020FFF7A5F90120009000046E
:10149000019002200324CDE907045521CDE909017B
:1014A0000B900C900D906846FFF786FC08B172B661
:1014B000FEE70F20CDE90E0400201090119012904D
:1014C00004210EA8FFF730FB002801D072B6FEE71A
:1014D00014B010BD0248016841F47001016070470A
:1014E00088ED00E030B5416EB9B10268916892684C
:1014F000C1F342610B4B520F9C5CE50003F1080401
:10150000A25CB5FBF2F2A0F86A205A5C615CD200E2
:10151000B2FBF1F1A0F8681030BD0121A0F86A100B
:10152000F8E70000E019000890F82810C90706D075
:1015300001684A68C36A22F400321A434A6090F88C
:101540002810890706D501684A68036B22F48032A7
:101550001A434A6090F82810490706D501684A687E
:10156000436B22F480221A434A6090F8281009073E
:1015700006D501684A68836B22F400421A434A6028
:1015800090F82810C90606D501688A68C36B22F452
:1015900080521A438A6090F82810890606D501689F
:1015A0008A68036C22F400521A438A6090F828106B
:1015B000490611D501684A68436C22F480121A4327
:1015C0004A60416CB1F5801F06D101684A68836C9E
:1015D00022F4C0021A434A6090F82810090606D582
:1015E00001684A68C06C22F4002202434A607047D6
:1015F000F8B500260446C0F88C60FFF761F8054690
:10160000206800686FF07E47000708D52B4600224F
:101610004FF400112046009700F054F960B920689B
:10162000006840070AD52B4600224FF4800120466F
:10163000009700F047F908B10320F8BD2020C4F856
:101640008400C4F8880044F86C6F00202675F8BD4B
:101650002DE9F0410446016880682269E36910437E
:10166000626900251A431043DFF82CC20A688B4BCD
:101670001A4002430A6020684168E26821F4405140
:10168000114341602168A069614501D0226A10437D
:101690008A68834B1A4002438A602068C16A626A82
:1016A00021F00F011143C1627E4923687E488B42BD
:1016B0000DD1D0F8880010F0030006D0012855D0D5
:1016C000022842D003283FD152E001203DE0774973
:1016D0008B420BD1D0F8880010F00C0035D00428D4
:1016E00033D0082840D00C282ED141E070498B42DD
:1016F0000BD1D0F8880010F0300026D0102835D05B
:10170000202831D030281FD132E06A498B420BD1DA
:10171000D0F8880010F0C00017D0402826D08028CC
:1017200022D0C02810D123E063450DD1D0F8880025
:1017300010F4406009D0B0F5806F17D0B0F5006F9D
:1017400012D0B0F5406F13D010205B495B4F0026DC
:101750004FF4004263453BD160B1022813D0042806
:101760000BD0082872D10DE00220EEE70420ECE750
:101770000820EAE7FFF7C6FA01E0FFF7E7FA010001
:1017800001D17CE01146606A37F810206768B1FB30
:10179000F2F007EB4703834270D8B0EB073F6DD8F8
:1017A000002308461946FEF787FD090241EA106149
:1017B00002027808101871413A460023FEF77CFDBA
:1017C0003F4AA0F54071914258D82168C86056E060
:1017D000E3694FF6EF7893422CD109284ED2DFE827
:1017E00000F00508114D0D4D4D4D1000FFF78AFA20
:1017F00001E0FFF799FA010004D140E0FFF7A6FAF3
:10180000F9E71146606A37F81000B1FBF0F04100CB
:10181000606801EB5001B1FBF0F0A0F1100141450F
:101820002CD84FF6F0710140C0F34200014320680C
:10183000C16024E0092821D2DFE800F00509122068
:101840000E2020201100FFF75DFA02E016E0FFF7FE
:101850006BFA010004D112E0FFF778FAF9E71146BC
:10186000606A37F81000B1FBF0F1606801EB5001DD
:10187000B1FBF0F0A0F1100141450AD9012501208A
:10188000A4F86A0024F8680F2846A660E660BDE860
:10189000F08180B299E7000000800040F369FFCF3B
:1018A000FFF4FF11003801400010024000440040E6
:1018B00000480040004C00400024F400C819000813
:1018C000FFFC0F002DE9F0479A4617460E460446E6
:1018D0004FF000094FF02008089D4AE0681C48D0EE
:1018E000FEF7EEFEA0EB0A00A8422AD84DB320680E
:1018F000016849073DD5C069C043000539D4216856
:101900004FF400600862206850E8001F21F4D07195
:1019100040E80012002AF6D12068083050E8001F85
:1019200021F0010140E80012002AF5D144F8848F2B
:10193000C4F80480C4F8088004F8049C0320BDE8BF
:10194000F087216851E8000F20F4D07041E80002D0
:10195000002AF6D12068083050E8001F21F001016C
:1019600040E80012002AF5D144F8848FC4F80480BE
:10197000E2E72068C06936EA000004D00020B842DF
:10198000ACD00020DBE70120F9E7FEE70907090EEC
:10199000002804DB00F1E02080F80014704700F01C
:1019A0000F0000F1E02080F8141D7047FEF796FE4E
:1019B000FFF75EFDFFF7FCFCFFF720FDFEE74FF0B1
:1019C0004070E1EE100A70470100020004000600BA
:1019D00008000A000C0010002000400080000001F8
:1019E00001010103070100000804020408010101CC
:1019F00000000000000000000102030406070809BF
:101A00000000000001020304281A00080000002062
:101A10001000000014020008381A0008100000200E
:101A2000F006000030020008100000000100000075
:081A3000000000000024F40096
:04000005080001D915
:00000001FF
