:020000040800F2
:100000000027002025030008532E0008992D000822
:10001000512E00089F1D00087733000800000000E3
:10002000000000000000000000000000572E000843
:10003000A11D000800000000552E0008592E0008E0
:100040003F0300083F0300083F0300083F03000888
:100050003F0300083F0300083F0300083F03000878
:100060003F0300083F0300083F0300083F03000868
:100070003F0300083F0300083F0300083F03000858
:100080003F030008000000003F0300083F03000892
:100090003F0300083F0300083F0300083F03000838
:1000A0003F0300083F0300083F0300083F03000828
:1000B0003F0300083F0300083F0300083F03000818
:1000C0003F0300083F0300083F0300083F03000808
:1000D0003F0300083F0300083F0300083F030008F8
:1000E0003F0300083F0300083F0300083F030008E8
:1000F0003F0300083F0300083F0300080000000022
:10010000000000003F030008000000003F0300085B
:100110003F030008000000003F0300083F03000801
:100120003F0300083F0300083F0300083F030008A7
:100130003F03000800000000000000003F0300082B
:100140003F0300083F03000800000000000000001B
:10015000000000000000000000000000000000009F
:100160000000000000000000000000003F03000845
:100170003F03000800000000000000000000000035
:10018000000000003F030008000000000000000025
:10019000000000000000000000000000000000005F
:1001A00000000000000000003F0300083F030008BB
:1001B0003F0300083F0300083F0300080000000061
:1001C000000000003F0300080000000000000000E5
:1001D0003F0300083F03000800F002F800F092F827
:1001E0000AA090E8000C82448344AAF10107DA4592
:1001F00001D100F087F8AFF2090EBAE80F0013F052
:10020000010F18BFFB1A43F0010318476C58000098
:100210008C580000103A24BF78C878C1FAD8520729
:1002200024BF30C830C144BF04680C607047000070
:100230000023002400250026103A28BF78C1FBD8EF
:10024000520728BF30C148BF0B6070476E2900F0CD
:100250000D82702900F05783662904F09181652989
:1002600004F08E81672904F08B81612904F08A8172
:1002700003681B0A28BF41F08001692900F0BA8198
:10028000642900F0B781752900F0B4816F2900F06E
:10029000E482782900F02383E92900F07F82E429B1
:1002A00000F07C82F52900F07982EF2900F0E182EC
:1002B000F82900F022830368DB0928BF41F08001A0
:1002C000632901F02980732901F02E80E32901F0D0
:1002D0003980F32901F03E80002070471FB504F0FB
:1002E0004AF901F08DF804000020002104F0B6F86E
:1002F000401C60600020002104F09AF8E0601FBDFF
:1003000010B510BD01F04EF81146FFF7E7FF03F0FE
:10031000E1FF01F02BF903B4FFF7F2FF03BC01F09A
:100320006FF900000948804709480047FEE7FEE7EB
:10033000FEE7FEE7FEE7FEE7FEE7FEE7FEE7FEE795
:1003400004480549054A064B70470000C12E0008C5
:10035000D9010008002100200027002000230020F0
:100360000023002053EA020C00F069802DE9F04BD5
:100370004FF00006002B1FBFB3FA83F503FA05F414
:1003800024FA05F65E4012BF1643B2FA82F502FA6D
:1003900005F4C5F120051EBF22FA05FC44EA0C0451
:1003A000203556EA044C4FEA144418BF641C4FF041
:1003B00000084FF00009904271EB030C39D300297B
:1003C00019BFB1FA81F701FA07F6B0FA80F700FA1F
:1003D00007F6C7F120071EBF20FA07FC46EA0C0605
:1003E0002037B6FBF4FCA7EB0507103F07F01F0B07
:1003F000CBF120060CFA0BFB2CFA06F644BFB346F1
:100400000026202FA4BF5E464FF0000B5BEA060CCF
:1004100008BF4FF0010B19EB0B09ABFB027C48EB5B
:100420000608C01B06FB02CC0BFB03CC71EB0C01D6
:10043000C1E70B46024641464846BDE8F08B13B57E
:100440004FF000004FF00001AFF30080BDE81C400A
:10045000704700007CB51D4616460C00009001D088
:100460002044401E074B7B442A4669460190304693
:1004700000F015F905461CB10020694600F022F98C
:1004800028467CBD6502000010B5431C02E010F850
:10049000011B71B18107FAD14FF0013202C88C1AE9
:1004A0008C4314EAC211F9D0C01A0A0603D0C01E48
:1004B00010BDC01A10BD0A0401D0801E10BD090273
:1004C000FCD0401E10BD4FF0000200B5134694460C
:1004D0009646203922BFA0E80C50A0E80C50B1F19C
:1004E0002001BFF4F7AF090728BFA0E80C5048BFB0
:1004F0000CC05DF804EB890028BF40F8042B08BF4E
:10050000704748BF20F8022B11F0804F18BF00F849
:10051000012B704770477047704710B500F0C2FA62
:10052000006810BD10B5044600F0BCFA046010BDB0
:1005300070B5044685690068C10601D5302600E023
:100540002026C00707D070BDD4E90121304690476E
:10055000206A401C20626D1EF6D570BD70B5044641
:1005600085690078C00707D170BDD4E9012120203A
:100570009047206A401C20626D1EF6D570BD096848
:100580004A0501D540B27047C905FCD500B2704795
:1005900009684A0501D5C0B27047C905FCD580B2CB
:1005A000704770B50C460546012A05D028788006AC
:1005B00000D5EA69002302E0012305E05B1C9342B9
:1005C00002D2E05C0028F9D1A869E618C01AA86137
:1005D000286A184428622846FFF7AAFF04E0D5E9F4
:1005E000012114F8010B9047B442F8D32846FFF7D5
:1005F000B5FF70BD2DE9F04106460024106875294D
:10060000314616A510D0FFF7BAFF002802DA4042A3
:1006100013A507E031688A0701D512A502E0490752
:1006200004D511A5012401E0FFF7B2FF00210A2241
:1006300006F1240709E0B0FBF2FCB0FBF2F302FB89
:100640001C00303078541846491C0028F3D123464A
:100650002A463046BDE8F04100F06DBA00000000C7
:100660002D0000002B00000020000000116802682F
:10067000006A530501D508700AE0D30501D508804A
:1006800006E0130603D5C217C1E9000200E00860C6
:100690000120704701694A1C02610878704700B563
:1006A0008FB0CDE901310021059105497944CDE9AB
:1006B00003101146684600F031F90FB000BD00008C
:1006C000E5FFFFFF0A6802F8010B0A607047D1E9F5
:1006D00000239A4202D2531C0B6010707047000036
:1006E0002DE9FF5F15468A460446DFF8AC80F844E2
:1006F0000027D8E900103E46CDE9001010E03AF896
:1007000016106A4602A800F029FE411C07D0217885
:10071000890603D5E269391891420DD80744761C41
:100720002078800602D5E069B84205DDAE42E6DBFE
:100730003AF816000028E2D1A069C01BA06120464B
:10074000FFF7F6FED8E90010CDE90010002017E011
:100750003AF818106A4602A800F000FEB0F1FF3F18
:1007600081460BD000250DF1080B05E0D4E90121ED
:100770001BF8050090476D1C4D45F7D308F10100AB
:10078000B0428046E4DB206A384420622046FFF70E
:10079000E5FEBDE8FF9F0000665200002DE9F04134
:1007A0008046D21D22F007020025D2E90002F52979
:1007B00015A614D0011E72F1000106DA0023D0EB59
:1007C000030063EB020211A608E0D8F800108B07C3
:1007D00001D50FA602E0490701D50EA60125114655
:1007E000002408F1240704E000F060F930323A55A3
:1007F000641C50EA0102F7D12B463246214640469E
:10080000BDE8F04100F097B9000000002D000000A5
:100810002B0000002000000030B4002100F124046F
:1008200008E002F00705D208303542EA4372DB08DF
:100830006554491C52EA0305F3D10468002310A251
:10084000250707D5A40600D421B1C46901230DA250
:10085000641EC46130BC00F06EB910B50446214678
:100860001068FFF795FE02462046BDE810400023C1
:10087000D2E7D21D22F00701D1E90023CCE7000026
:100880000000000030000000F0B40D4601880905AA
:1008900002D5214C7C4402E01F4C7C440E340021E4
:1008A00000F1240608E002F00F071209E75D42EAB2
:1008B00003721B097754491C52EA0307F3D10278EB
:1008C0000023120704D5702D06D009B1022311347C
:1008D0002246F0BC00F02FB901231034F8E770B5C0
:1008E00004460D4621461068FFF752FE024629468F
:1008F0002046BDE870400023C6E7D21D22F0070362
:10090000D3E90023C0E70368126843F020030360C3
:100910000823C3610023B7E7C85000002DE9F05F4A
:10092000894604464FF0000ADFF874B1FB44C0F872
:1009300020A02046E1688847002874D0252806D0EA
:10094000D4E901219047206A401C2062F1E700268B
:100950005F462046E16888472028054607DB312DA1
:1009600005D2781910F8200C08B10643F1E7B0075A
:1009700001D526F00406C4F81CA00027C4F818A06E
:100980002A2D09D0284602F0B9FE38B304EB8708B7
:10099000303DC8F8185019E059F8041B204604EB04
:1009A00087029161E1688847012F054618D1E06907
:1009B000002820DA26F020061DE0D8F8180000EB09
:1009C000800005EB40003038C8F818002046E16888
:1009D0008847054602F092FE0028EED1012F0AD08A
:1009E0002E2D08D12046E16888477F1C0546022F3E
:1009F00046F02006C4DBA069002803DA404246F036
:100A00000106A061F00701D026F010066C2D0BD076
:100A1000682D09D04C2D39D06A2D35D0742D35D0A4
:100A20007A2D33D016E038E0E1682F46204688471B
:100A3000B842054609D16C2F26D04FF48060E1689A
:100A4000064320468847054604E06C2F1AD04FF431
:100A5000807006430DB3A5F14100192802D8203556
:100A600046F400664A462946204626604E46FFF771
:100A7000EDFB80B101280BD0F61D26F0070000F138
:100A8000080956E74020E4E78020D8E70020D6E7B1
:100A900006F104094DE7284652E7206ABDE8F09FB9
:100AA0005850000000487047A020002030B5B0F139
:100AB0000A024FEA900E71F100034EEA817EB0EB1C
:100AC0000E0061EB91014FEA101E4EEA017E10EB21
:100AD0000E0041EB11114FEA102E4EEA016E10EBA1
:100AE0000E0041EB11214FEA104E4EEA014E10EB81
:100AF0000E0041EB1141401841F100014FEAD000D6
:100B000040EA41704FEAD10110EB80054FEA8104C1
:100B100044EA907444EB01046D1944EB0404521B45
:100B2000A3414FF0000348BF0A3200D530BD401C3E
:100B300041F1000130BD2DE9F0470D46994692463E
:100B4000044600F124080168880604D5E06921F014
:100B50001001216000E00120A84201DD471B00E0F8
:100B60000027A1697A1902EB0900081AA061207810
:100B7000C00602D42046FFF7DBFC002608E0D4E9DB
:100B800001211AF806009047206A401C761C20625A
:100B90004E45F4DB2078C0060AD52046FFF7C8FC96
:100BA00006E0D4E9012130209047206A401C2062F1
:100BB000381EA7F10107F4DC07E0D4E9012118F899
:100BC00005009047206A401C2062281EA5F10105FF
:100BD000F3DC2046FFF7C2FC2078000602D5022095
:100BE000BDE8F0870120FBE770472DE9FF4F0C4679
:100BF0001E464FF0FF378BB0D2E90001DDF8608070
:100C00000A908A46C1F30A5505B93D4600210846B7
:100C10004FF00000BAF1000F00F4400005DA00EBDD
:100C200080004FF4400101EA50004FEA9059B9F1B9
:100C3000010F00DDB9460A9850EA4A000ED044F68A
:100C40001050A5F2FF3545432F14B8F1000F1ED008
:100C50007542291E1EDDC9F100021CE0B8F1010F2A
:100C60004FF0000001D0302103E0F24305E02154B1
:100C7000401CB042FBDB30460022002121540B997E
:100C8000C1F80880C1E900200FB0BDE8F08FBD1B9E
:100C90006D1CDEE74A4600DA694206A800F0F4FB64
:100CA00006AB93E8070003AB83E8070050460A99B8
:100CB00000F0ADFC8DE80700A0F500501F38009053
:100CC0000398002D0ADD42F21F014A460844002322
:100CD00003A90390684600F016FF09E0A0F5005054
:100CE0004A461F38002303A90390684600F020FFFE
:100CF0008DE807000004000C03D04FF0FF304108DE
:100D000000E01046B8F1000F03D000220092154613
:100D10001EE0751E05D4FFF7C9FE303262556D1E08
:100D2000F9D5B3460122084302D000227F1C04E01B
:100D30002078302801D100227F1E002A099784D014
:100D40001DE0112D07DAFFF7B1FE303262556D1C40
:100D500050EA0102F5D1084302D00098C8B10EE074
:100D60000021681E05E0235C625C63542254401E2F
:100D7000491C8142F7DBAB46A81B401E09900020AE
:100D800004F80B000B98099AC0F80880C0E9002B02
:100D90007AE711264FF0000857E72DE9F04F884613
:100DA0000446D21D22F0070191B0D1E90001CDE93E
:100DB0000A0102F0E1FA02460B98C00F01D02D2083
:100DC00007E02068810701D52B2002E0202101EAFD
:100DD000C000032A099001D0072A05DB03464146DB
:100DE000204600F011FB0BE12078800601D5E06978
:100DF00000E00620B8F1650F814606D0B8F1660F15
:100E000018D0B8F1670F70D131E00020B9F1110F9F
:100E1000009001DB112301E009F101030AAA01A9F5
:100E20000CA8FFF7E2FEDDE90C70002609F10105D0
:100E3000834647E001204B4600904FF000470AAA46
:100E400001A90CA8FFF7D1FEDDE90DB00C995D46B4
:100E5000002610B909F101000D18B9EB050003D403
:100E6000C0F1FF3609F10105A5EB09002BE0B9F14E
:100E7000010F01DA4FF001090020B9F1110F0090C4
:100E8000484601DD112300E003460AAA01A90CA887
:100E9000FFF7ABFEDDE90C704D4600268346207857
:100EA00000070AD4AB4500DA5D4601A8012D04DD38
:100EB000411911F8011C302907D04F4502DA17F10A
:100EC000040F04DA012082460FE06D1EEEE7002FCA
:100ED00002DCED1B3E4403E0781CA84200DD7D1CD3
:100EE000B81B00F1010A4FF000472078000703D437
:100EF000AA4501DB4FF0FF3A0021B7F1004F0DF199
:100F000043088DF8431024D002202B23002F01DA50
:100F10007F422D230A21021EA0F1010000DC5FB1F7
:100F200097FBF1FC97FBF1F201FB1C7C17460CF1DF
:100F3000300C08F801CDEEE7A8F10100037021881C
:100F4000090501D5452100E06521A0F1010800F85F
:100F5000011C09980FA9A1EB0807FF1D00B1012092
:100F6000411901EBEA70A1693844081A401EA061DA
:100F70002078C00602D42046FFF7DAFA099828B193
:100F8000D4E901219047206A401C20622078C006E5
:100F900022D52046FFF7CCFA1EE0002E04DBB34535
:100FA00002DD01A8805D00E03020D4E901219047F6
:100FB000206A401C2062761CAAF101005FEA000A48
:100FC0000AD100F01DFAC0680168405CD4E9012133
:100FD0009047206A401C2062281EA5F10105DCDC38
:100FE00007E0D4E9012118F8010B9047206A401C62
:100FF0002062381EA7F10107F3DC2046FFF7AEFAA6
:10100000032011B041E600002DE9F04F04460D46E3
:10101000D21D22F0070089B0D0E900974846394632
:1010200002F0AAF90246F80F01D02D2307E020684C
:10103000810701D52B2302E0202101EAC0038DF8AE
:1010400020300BB1012000E00020032A824601D0AD
:10105000072A04DB2946204600F0D6F93FE1207834
:10106000800601D40D2500E0E569C7F30A560D2D71
:1010700049DA00214FEA175B08464FF00000002FC5
:1010800000F4400007DA00EB80004FF4400100EB71
:10109000D07001EA60008115012901DD4FF0FF31B8
:1010A00000224FEA850CBCF1180F06D31346ACF1B1
:1010B00018004FF08052C24003E04FF4801323FA2F
:1010C0000CF30CF10C0CBCF1200F04D3ACF1200C90
:1010D00009FA0CF001E007FA0CF000294FF0004883
:1010E00001DD18B90FE00ED140450CD319EB020910
:1010F0005F4121B9404502D19F4329EA0209BBEB78
:10110000175F00D0761C2088000502D57B48784404
:1011100002E07A487844193808AA302302F80A30E5
:10112000037C0AF10101002E0AF1020A53546A46B7
:1011300002DC4FF0300101E04FF031014FF00108C7
:101140008DF8001002D0A6F2FF3603E059EA4701FD
:1011500000D06B4E002D02DC2178090704D54FF03A
:1011600002082E218DF80110C44600210BE0C7F3C0
:1011700003433F01C35C491C6D1E02F8083005297A
:1011800008F1010801DA002DF1DC00210CE000EB90
:101190001973491C1B786D1E082902F808304FEAA4
:1011A000091908F1010801DA002DF0DC21688B062D
:1011B00002D516E0A8F10108E04505DD02EB0803C1
:1011C00013F8013C302BF5D0B8F1000F09DD02EB2C
:1011D000080313F8013C2E2B03D1090701D4A8F111
:1011E0000108002D05DD3E2102F808106D1E08F1F2
:1011F0000108407C002E02F8080008F1010804DA1A
:101200002D20764202F8080002E02B2002F80800A8
:101210000A214FF47A70864208F101080BDB96FB35
:10122000F0F3303302F8083096FBF0F308F10108D0
:1012300000FB136601E0642E0CDB642096FBF0F3E8
:10124000303302F8083096FBF0F308F1010800FB98
:10125000136601E00A2E06DB96FBF1F0303002F84F
:10126000080008F1010896FBF1F001FB1060303036
:1012700002F80800A16908F1010808EB050202EB79
:101280000A00081AA0612078C00602D42046FFF7A1
:101290004FF9216A08AE01EB0A00206204E0D4E9AC
:1012A000012116F8010B9047BAF1010AF7D2207814
:1012B000C00602D52046FFF73BF96E4609E016F856
:1012C000010B3E280FD0D4E901219047206A401C31
:1012D0002062B8F10108F2D22046FFF73FF909B0C9
:1012E0000320BDE8F08F206A2844206203E0D4E99F
:1012F0000121302090476D1EEBD3F8E7BD48000078
:1013000002FCFFFF10B5436913B1AFF3008001E0A9
:10131000FFF747F9012010BD127800F124010A708F
:1013200000224A700122EDE711684FF0FF32E9E731
:1013300010B5436913B1AFF3008001E0FFF7D0F9B6
:10134000012010BD128800F1240182840022C28491
:101350000122EDE711684FF0FF32E9E770B516465C
:101360000C46054600F044F8036893F80101012893
:1013700006D0FF2C0FD8185D68B101202C7070BD0D
:10138000D3F807013246214603F2071303442846E7
:10139000BDE8704018474FF0FF3070BD00487047FF
:1013A000A02000207546FFF7F9FFAE46050069460C
:1013B000534620F00700854618B020B5FEF7C0FF61
:1013C000BDE820404FF000064FF000074FF0000846
:1013D0004FF0000B21F00701AC46ACE8C009ACE8C7
:1013E000C009ACE8C009ACE8C0098D4670470000F0
:1013F00010B500F005F8001D10BD00BF6130000001
:1014000000487047C02000202DE9F0411F460446E7
:1014100003260168072A01F4006004DB08B116A561
:1014200005E016A503E008B115A500E015A521F01B
:1014300010002060A069C01EA0610FB1401EA06115
:101440002046FFF775F84FB1D4E90121384690479F
:10145000206A401C2062C01C206206E0206AFAE775
:10146000D4E9012115F8010B9047761EF8D22046E9
:10147000FFF774F8BDE8F0814E414E006E616E00DA
:10148000494E4600696E66002DE9F04781461646D2
:101490008AB0354878440DC88DE80D00324878444C
:1014A000801C03AC0DC884E80D0041F69B30084455
:1014B000372190FBF1F290FBF1F5A5F1800501FBDE
:1014C00012041B3C02D56442012000E00020DFF83A
:1014D00098A080460027FA44AAF1BE0A0EE0E00771
:1014E0000AD03246684607EB470101230AEB810127
:1014F00000F01EFB8DE8070064107F1C002CEED16D
:10150000194F7F44AE3F19E0E80715D007EB0410F0
:101510000DF1180A90E80E008AE80E00C068F0424B
:1015200001D1981908903246012306A903A800F0BA
:10153000FFFA03AB83E807006D10641C002DE3D1B4
:101540004FF0010332466946B8F1000F03A802D0FC
:1015500000F0D9FA01E000F0EBFAC9E90001C9F89E
:1015600008200AB0BDE8F087C845000010B5044661
:10157000AFF300802046BDE81040FEF7CCBE00006F
:101580004FF0013C50F8042B51F8043B9A4221D112
:10159000A2EB0C03934313EACC1317D150F8042B9E
:1015A00051F8043B9A4215D1A2EB0C03934313EA82
:1015B000CC130BD150F8042B51F8043B9A4209D1BB
:1015C000A2EB0C03934313EACC13DBD04FF00000E3
:1015D000704700BFD01A01BAB1FA81F101F01801C9
:1015E00022FA01F0CB40C1F12001DBB2C0B2C01A37
:1015F0002CFA01F3D11A914311EAC311E6D17047D5
:1016000001491820ABBEFEE72600020070475FEAE2
:10161000400C08BF91F0000F4FEA8C234FEAC12223
:1016200043EA51514FEA1C5018BF00F5F0404FEA11
:10163000300018BF41F000415FEA6C5C00F0298087
:10164000BCF1FF3F08BF40F080407047130C06BF5D
:1016500012044FF0100C4FF0000C130E04BF1202D6
:101660000CF1080C130F04BF12010CF1040C930FC2
:1016700004BF92000CF1020CD30F04BF52000CF116
:10168000010C11464FF00002A0F11F00A0EB0C006E
:10169000704711F0004F08BF704731F000413FF430
:1016A000D5AF0B0C06BF09044FF0100C4FF0000C27
:1016B0000B0E04BF09020CF1080C0B0F04BF09014B
:1016C0000CF1040C8B0F04BF89000CF1020CCB0F42
:1016D00004BF49000CF1010CCCF12003A0EB0C007D
:1016E00022FA03F302FA0CF241EA030100F10100CD
:1016F000704720F07F4C80EA030023F07F47ACEB7B
:10170000070303F57C5300F0004003F1FF032DE9CC
:1017100080494FEA154B09B44FEA144325EA0B4EB2
:1017200024EA03480FF2042606EB132749083E7803
:101730005FEA320203FB0667C7F5000707FB06F600
:101740004FEA54374FEAD64606F1020607FB066C0D
:10175000CCF1005C4FEA1C472CEA074C07FB06F46F
:101760000CFB06F504EB15464FEA961634BF002035
:101770004FF000404FEAD13706FB07FC4FEA1C4C04
:101780000CFB0BF7D21B03FB0CF761EB07010CFB07
:101790000EF7B0EB074072EB17420CFB08F734BFB3
:1017A000A2EB0742B2EB074261EB17414FEA0C4450
:1017B0004FEA910706FB07FC4FEA1C4C0CFB0BF7AA
:1017C000B0EBC74072EB573203FB0CF734BFA2EB10
:1017D000C742B2EBC74261EB57310CFB0EF7B0EBDF
:1017E000C70072EB57720CFB08F734BFA2EBC702BD
:1017F000B2EBC70261EB5771039F4FEA816141EA87
:10180000921104EBCC044FEAD1374FEA826206FB17
:1018100007FC42EA90124FEA80604FEA1C4C0CFB36
:101820000BF7D21B03FB0CF761EB07010CFB0EF768
:10183000B0EB074072EB17420CFB08F734BFA2EB8A
:101840000742B2EB074261EB17414FEA8C554FEA72
:10185000910704EB9C2406FB07FC4FEA1C4C0CFB95
:101860000BF7B0EBC74072EB573203FB0CF734BFFA
:10187000A2EBC742B2EBC74261EB57310CFB0EF74C
:10188000B0EBC70072EB57720CFB08F734BFA2EB4A
:10189000C702B2EBC70261EB577115EB4C254FEA5B
:1018A000816141EA92114FEA82624FEAD13742EAFE
:1018B000901206FB07FC44F100044FEA80604FEAF7
:1018C0001C4C0CFB0BF7D21B03FB0CF761EB070165
:1018D0000CFB0EF7B0EB074072EB17420CFB08F75E
:1018E00034BFA2EB0742B2EB074261EB174115EBA5
:1018F0001C154FEA813141EA92414FEA823242EAB5
:1019000090424FEA80304FEA0C7644F1000448EAF6
:1019100003434EEA0B484FF0000EB2EB080C71EB9C
:10192000030724BF624639464EEB0E0E4FF0000B04
:101930000018524149414BEB0B0BB2EB080C71EB19
:1019400003077BF1000B24BF624639464EEB0E0EB7
:101950004FF0000B0018524149414BEB0B0BB2EB1F
:10196000080C71EB03077BF1000B24BF624639467C
:101970004EEB0E0E51EA020718BF46F0010616EBB9
:101980000E7655F1000254F1000103D5BDE889013E
:10199000BDE80088BDE88901BDE80048B61952419C
:1019A00041EB0101A3F10103704780807F7E7D7CC4
:1019B0007B7A7978777676757473727171706F6EE1
:1019C0006E6D6C6C6B6A6A6968686766666564648C
:1019D000636362616160605F5F5E5E5D5D5C5C5B16
:1019E0005B5A5A5959585857575656555555545485
:1019F000535352525251515050504F4F4F4E4E4DE3
:101A00004D4D4C4C4C4B4B4B4A4A4A49494948482E
:101A1000484747474746464645454544444444436E
:101A200043434342424242414141002B9C4630D411
:101A300077002BD01CB54FEA370703B44FF01000E6
:101A40004FF01001BAF1000F06D0BCF1000FDCBF5F
:101A500040F0080040F008014FF000000FBCBDE866
:101A600010400BF1010BBBF1010F08BF5FEA170734
:101A700022BF12F1010211F101014FF0004143F1C7
:101A8000000300F0004043EA00007047F9D3570814
:101A9000D0E746EA064613F1400F4FEA16461FDD2F
:101AA00013F1200FDFBF16430A46002120335B42AB
:101AB000BED0C3F1200746EA064602FA07F74FEA0E
:101AC000164646EA0706C3F1200722FA03F201FA96
:101AD00007F721FA03F14FF0000342EA0702A7E7F4
:101AE00046EA020646EA06464FEA164646EA010676
:101AF000BCBF46EA0646360C4FF000034FF000022A
:101B00004FF0000194E72DE9804C9A46934670B45B
:101B100091E8380007C831EA400C48BF34EA430C6A
:101B200003D5FFF7E6FDFFF780FFF0BCBDE8008CB2
:101B30002DE9804C9A46934670B491E8380007C866
:101B400010F0804F08BF13F0804F03D100F005F86C
:101B5000FFF76BFFF0BCBDE8008C20F07F4780EA08
:101B6000030023F07F4C07EB0C03A3F57C5300F03C
:101B70000040A3F1FE0392F0000F00F0B38095F057
:101B8000000F00F077802DE901494FEA11404FEA3C
:101B9000144621EA004800FB06FC24EA064708FB3D
:101BA00006F607FB08F800FB07F718EB06484CEBB6
:101BB000164C4FEA124B18EB07484FEA15464CEB10
:101BC000174022EA0B4E0BFB06FC25EA06470EFBEC
:101BD00006F607FB0EFE0BFB07F71EEB064E4CEB63
:101BE000164C4FF000061EEB074E4CEB174B18EB54
:101BF0000B0840F1000018EB0E0B58EB000840F109
:101C000000008F1A4FF000013CBFC943661B14BF90
:101C1000B5EB040C00213CBFC943F61B4FEA174447
:101C20004EEA8E0E27EA04454FEA1C4704FB076282
:101C30002CEA074C05FB07F70CFB05F604FB0CFC34
:101C400016EB074642EB174216EB0C4642EB1C42E2
:101C50001BEB060658EB0202414146EA9E0601D5FF
:101C6000BDE80189B619524141EB0101A3F101031D
:101C7000BDE801894FEA14454FEA114724EA0546B9
:101C800021EA074C05FB07F406FB07F70CFB06F1FE
:101C900005FB0CFC11EB074144EB17444FEA1247DC
:101CA00011EB0C4144EB1C4422EA074C05FB07F204
:101CB00006FB07F70CFB06F605FB0CFC16EB0746CC
:101CC00042EB174216EB0C4642EB1C456A1854F1E6
:101CD000000148BF7047B619524141EB0101A3F121
:101CE0000103704795F0000F37D04FEA11424FEAD9
:101CF000144721EA024624EA074C02FB07F106FBDF
:101D000007F70CFB06F402FB0CFC14EB074441EB59
:101D100017414FEA154714EB0C4441EB1C4125EAEF
:101D2000074C02FB07F506FB07F70CFB06F602FB68
:101D30000CFC16EB074645EB174516EB0C4645EB3E
:101D40001C42121951F1000148BF7047B6195241A7
:101D500041EB0101A3F1010370474FEA14454FEA3B
:101D6000114724EA054621EA074C05FB07F106FB6B
:101D700007F70CFB06F24FF0000605FB0CFC12EB1C
:101D8000074241EB174112EB0C4251EB1C4148BF9B
:101D90007047921841EB0101A3F101037047FEE780
:101DA000704772B6FEE700002DE9F04FDFF8209291
:101DB000002301260324A9F1040B85B00F2709F1A4
:101DC000040AABF1040EFAE006FA03F52A407CD0CF
:101DD00091F804C00CF0030CBCF1010F02D0BCF16F
:101DE000020F26D1D0F808C0CDF800C04FEA430C4E
:101DF00004FA0CF8CDF810C0DDF800C02CEA080C8D
:101E0000CDF800C0D1F80C80DDF810C008FA0CF84D
:101E1000DDF800C048EA0C08C0F80880D0F804C01B
:101E20002CEA050C0D79C5F300159D4045EA0C051B
:101E300045600D79ED43AD070ED0C5684FEA430804
:101E400004FA08FC25EA0C05D1F808C00CFA08FCD5
:101E50004CEA050CC0F80CC00D7905F00305022D05
:101E600016D1DD0800EB850CCDF808C0DCF8208029
:101E70005D074FEAD56C07FA0CF528EA05080D69ED
:101E800005FA0CF5DDF808C045EA0805CCF8205045
:101E900005684FEA430CCDF808C004FA0CFC25EAAB
:101EA0000C0591F804C00CF00308DDF808C008FA2E
:101EB0000CF848EA0508C0F800804D6815F4403F6A
:101EC0007CD0444DD5F860C000E077E04CF0010CC8
:101ED000C5F860C02D6E23F0030C05F001050095D8
:101EE0003D4D65440295AD684FEA837C4FEA1C780E
:101EF00007FA08FC25EA0C05B0F1904F06D0DFF890
:101F0000DCC0604505D14FF0010C20E04FF0000C23
:101F10001DE0DFF8CCC0604502D14FF0020C16E0A6
:101F2000DFF8C0C0604502D14FF0030C0FE0DFF8CE
:101F3000B8C0604502D14FF0040C08E0DFF8ACC037
:101F4000604502D14FF0050C01E04FF0060C0CFA91
:101F500008FC4CEA050C029DC5F808C0D9F80050F1
:101F6000CC46D1F8048095435FEAC82800D51543D4
:101F7000CCF80050DAF80050D446D1F804809543EC
:101F80005FEA882800D51543CCF80050DBF80050F4
:101F9000DC46D1F8048095435FEA883800D51543C4
:101FA000CCF80050DEF80050F446D1F80480954398
:101FB0005FEAC83800D51543CCF800505B1C0A68AE
:101FC00032FA03F57FF400AF05B0BDE8F08F0000F2
:101FD00008040140001002400000014000040048D5
:101FE00000080048000C0048001000480014004899
:101FF00001488068704700000000002002488168A6
:1020000042681144816070470000002010B5002430
:10201000032000F065F80F2000F008F808B1012453
:1020200001E000F025F8204610BD000070B50E4E0E
:1020300005460024706898B14FF47A71B1FBF0F056
:102040000A490968B1FBF0F000F054FD40B9102DC9
:1020500006D200222946501E00F022F8356000E02A
:102060000124204670BD0000000000200C0000206C
:102070000A4882B0016E41F001010166016E01F073
:1020800001010091816D41F080518165806D00F00A
:102090008050009002B000F093B8000000100240A1
:1020A000F0B40E4B1B680C46C3F30223C3F10705C3
:1020B000042D00D90425191D072901D2002300E0B1
:1020C000DB1E012606FA05F1491E214099409E407B
:1020D000761E16403143F0BC01F079B90CED00E0FA
:1020E000064900F0070208684FF6FF03184040EA6F
:1020F0000220034A10430860704700000CED00E026
:102100000000FA052B492C4B0A6832214A432B491F
:1021100040B1B0F5007F086829D020F4C06040F4D9
:1021200080602CE00868C0F34120022804D051F8F8
:10213000800F20F4807022E0D1F8800020F48070BD
:10214000C1F88000086820F4C06040F400700860A6
:10215000B2FBF3F0401C00E0401E4A69520501D575
:102160000028F9D1486940050AD503207047C0F31B
:102170004120022806D051F8800F40F4807008609A
:1021800000207047D1F8800040F48070C1F88000D2
:10219000086820F4C06040F400700860B2FBF3F0FF
:1021A000401C00E0401E4A695205DBD50028F9D1E9
:1021B000D8E700000C00002040420F0000700040F3
:1021C0000248816841F4804181607047007000409E
:1021D0002DE9F8430446006800269D4D00035ED5B6
:1021E000A86D0027C00008D4A86D40F08050A865F5
:1021F000A86D012700F080500090DFF85892D9F8C0
:10220000001041F48071C9F80010FFF7F1FE80461C
:1022100006E000BFFFF7ECFEA0EB080002282BD879
:10222000D9F80000C005F5D5D5F8900010F440703D
:1022300014D0216C814211D0D5F89000D5F89010BF
:1022400020F4407041F48031C5F89010D5F890101A
:1022500021F48031C5F89010C5F89000C00711D066
:10226000FFF7C6FE804641F2883907E0FFF7C0FE5F
:10227000A0EB0801494501D903260BE0D5F89000F1
:102280008007F3D5D5F89000216C20F44070084306
:10229000C5F890001FB1A86D20F08050A865207887
:1022A000C00707D0D5F88800616820F00300084314
:1022B000C5F888002078800707D5D5F88800A16880
:1022C00020F00C000843C5F888002078400707D5A7
:1022D000D5F88800E16820F030000843C5F8880090
:1022E0002078000707D5D5F88800216920F0C000C4
:1022F0000843C5F888002078800607D5D5F88800FF
:10230000616920F440600843C5F8880020784006E1
:1023100007D5D5F88800A16920F440500843C5F8D6
:1023200088002078000607D5D5F88800E16920F4F8
:1023300040400843C5F888002088C00507D5D5F877
:102340008800216A20F440300843C5F888002088BE
:10235000800507D5D5F88800616A20F4402008433D
:10236000C5F88800208840050FD5D5F88800A16AF7
:1023700020F440100843C5F88800A06AB0F5801F1B
:1023800003D1E86840F48010E860208800050FD58C
:10239000D5F88800E16A20F440000843C5F88800B9
:1023A000E06AB0F5800F03D1E86840F48010E8607F
:1023B0002088C0040FD5D5F88800216B20F040702C
:1023C0000843C5F88800206BB0F1807F03D1E8682E
:1023D00040F48010E86020884FF0006180040ED542
:1023E000D5F88800626B20F040601043C5F8880083
:1023F000606B884203D1E86840F48010E860208870
:1024000040040ED5D5F88800A26B20F04060104340
:10241000C5F88800A06B884203D1E86840F48010BA
:10242000E860208800040FD5D5F88800E16B20F023
:1024300040500843C5F88800E06BB0F1805F03D1DD
:10244000E86840F48030E8603046BDE8F88300007A
:1024500000100240007000402DE9F0470E460500D4
:102460004FF0000725D0DFF8AC81D8F8000000F06D
:102470000F00B0420CD2D8F8001021F00F01314308
:10248000C8F80010D8F8000000F00F00B04210D1DA
:102490002968614CC80741F2883A5AD06868DFF869
:1024A0007C91032808D0022820682DD04005002800
:1024B0002CDB0120BDE8F08720688001F9D5E068B9
:1024C00000F00302E068C0F30310401C032A19D097
:1024D000534A00BFB2FBF0F0E268C2F30622504359
:1024E000E268C2F34162521C5200B0FBF2F0484570
:1024F00017D9A06810F0F00F0CD0880711D5A86884
:1025000040B10EE0474AE5E78003D0E700F0B6F8B7
:10251000484506D9A06820F0F00040F08000A06097
:102520008027A068696820F003000843A060FFF7D7
:102530005FFD814606E000BFFFF75AFDA0EB0901F1
:1025400051453AD8A068696800F00C00B0EB810FE3
:10255000F2D12868810714D5400703D5A06840F45C
:10256000E060A0602878000705D5A06820F46050DE
:1025700040F4E060A060A068A96820F0F000084383
:1025800004E0802F03D1A06820F0F000A060D8F80C
:102590000010404601F00F01B14216D9016821F048
:1025A0000F0131430160FFF723FD074607E000BF3D
:1025B000FFF71EFDC11B514501D903207AE7D8F86A
:1025C000000000F00F00B042F2D12878400705D596
:1025D000A068E96820F4E0600843A060287800075C
:1025E00006D5A068296920F4605040EAC100A060C7
:1025F00000F044F8A1680C4AC1F30311515C01F0EA
:102600001F01C8400949086009480068BDE8F04753
:10261000FFF70CBD002002400010024000B4C404CB
:102620000024F40000127A00B04500080C000020DD
:10263000000000200548064900688968054AC1F382
:102640000221515C01F01F01C84070470C000020BE
:1026500000100240C0450008054806490068896826
:10266000054AC1F3C221515C01F01F01C840704707
:102670000C00002000100240C0450008184910B5A9
:102680008868C0F381021748012A0BD08A6843107A
:10269000C2F38102022A06D08A68C2F38102032AA9
:1026A00003D0002010BD184610BDCA6802F0030414
:1026B000CA68C2F30312521C032C02D0B0FBF2F022
:1026C00001E0B3FBF2F0CA68C968C2F306225043C6
:1026D000C1F34161491C4900B0FBF1F010BD00009D
:1026E000001002400024F4002DE9F84304007AD0E1
:1026F0002078FA4DC00747D0A868E96800F00C00C0
:1027000001F003010C2802D0082817D001E00329AA
:1027100014D06068B0F5803F17D0B0F5A02F2868BE
:1027200017D020F480302860286820F480202860AA
:102730006068E0B1FFF75CFC064614E0286880039F
:1027400022D560680028D2D01EE0286840F480308E
:10275000EDE740F480202860F7E700BFFFF748FC72
:10276000801B642870D828688003F7D50CE0FFF739
:102770003FFC064605E000BFFFF73AFC801B6428DB
:10278000F0D828688003F7D4207880074CD5A86853
:10279000E96800F00C0001F003010C2802D00428C5
:1027A0000DD001E002290AD0E068002828682BD06B
:1027B00040F480702860FFF71BFC064619E028688B
:1027C000400502D5E068002891D06868217C20F09F
:1027D000FE4040EA01606860C1480068FFF726FCDF
:1027E000002800D120E076E1FFF702FC801B0228E0
:1027F000B8D828684005F7D56868217C20F0FE40ED
:1028000040EA016068600FE020F480702860FFF704
:10281000EFFB064605E000BFFFF7EAFB801B02283E
:10282000A0D828684005F7D42078000729D560692A
:102830000028D5F8940013D040F00100C5F89400AA
:10284000FFF7D6FB064606E090E000BFFFF7D0FB9F
:10285000801B022886D8D5F894008007F6D510E0B2
:1028600020F00100C5F89400FFF7C2FB064604E023
:10287000FFF7BEFB801B022878D8D5F894008007AC
:10288000F6D42078400761D5A86D0026C00008D492
:10289000A86D40F08050A865A86D012600F080501A
:1028A000009090480168C90511D40168804641F440
:1028B00080710160FFF79CFB074604E0FFF798FB7F
:1028C000C01B022852D8D8F80000C005F6D5A06871
:1028D000012815D00528D5F8900016D020F0010069
:1028E000C5F89000D5F8900020F00400C5F89000DD
:1028F000A06841F28838B8B1FFF77AFB07460EE0CE
:10290000D5F8900040F00100F0E740F00400C5F871
:102910009000F5E7FFF76CFBC11B414526D8D5F8C1
:1029200090008007F6D50CE0FFF762FB074604E055
:10293000FFF75EFBC11B414518D8D5F89000800712
:10294000F6D41EB1A86D20F08050A86520788006CE
:1029500029D5A0690028D5F8980013D040F00100CF
:10296000C5F89800FFF744FB064606E077E000BF95
:10297000FFF73EFB801B022877D8D5F89800800728
:10298000F6D510E020F00100C5F89800FFF730FB05
:10299000064604E0FFF72CFB801B022865D8D5F81B
:1029A00098008007F6D4E069F0B3A968C1F381010B
:1029B000032961D00228286820F0807028600BD09D
:1029C000E86820F00300E860E86847490840E860EC
:1029D000FFF70EFB04464BE0FFF70AFB064604E058
:1029E000FFF706FB801B02283FD828688001F7D438
:1029F000F4E908016FF00F0202EB01110843218A8C
:102A00005204490802EB4151A26841EA02210843FD
:102A1000217D4FF07E42490802EB41610843217B52
:102A200040EAC160E96800E062E0304A11400843D2
:102A3000E860286840F080702860E86840F08070A6
:102A4000E860FFF7D5FA044605E000BFFFF7D0FACB
:102A5000001B022809D828688001F7D548E004E067
:102A6000FFF7C6FA001B022802D90320BDE8F8834D
:102A700028688001F4D43BE00128F7D0E868226A96
:102A800000F00301914226D1616A00F0F0020901D1
:102A9000103991421FD1A26A00F4FE41B1EB022F1E
:102AA00019D194F82C2000F07841B1EBC26F12D10B
:102AB000218E00F4C00249084905A1F50011914298
:102AC00009D194F8341000F0C06049084906A1F11A
:102AD000007181420CD00120C8E7000000100240C4
:102AE0000000002000700040FFFFEEFE0C809F0100
:102AF0000020BBE710B5401EB0F1807F01D301205C
:102B000010BD4FF0E02460610F21601700F05FFC02
:102B10000020A06107202061002010BD90F88010E7
:102B2000012918D0012180F880102421C0F88410D8
:102B300050F8641B0A680B6823F001030B6022F055
:102B400000510022026050F8643C196020210162AB
:102B50000277104670470220704770B5044690F81F
:102B6000800001281DD0012084F880002420C4F8B2
:102B7000840020680568026822F001020260206873
:102B8000826822F060620A438260204600F0A0F969
:102B9000206805602020C4F88400002084F88000AC
:102BA00070BD022070BD70B5044690F88000012809
:102BB0001DD0012084F880002420C4F884002068FF
:102BC0000568026822F0010202602068826822F033
:102BD00060420A438260204600F07AF9206805606E
:102BE0002020C4F88400002084F8800070BD0220FA
:102BF00070BD10B5040003D0D4F8840010B107E014
:102C0000012010BD002084F88000204600F026F846
:102C10002420C4F884002068016821F001010160CB
:102C2000204600F00BFA0128EBD0A06A10B1204634
:102C300000F070F92068416821F4904141602068FB
:102C4000816821F02A0181602068016841F001015A
:102C500001602046BDE8104000F0C0B910B598B042
:102C60000446142111A8FDF72EFC44216846FDF707
:102C70002AFC17492068884227D1042000240090AC
:102C800003946846FFF7A4FA08B1FFF78AF81148E1
:102C9000816D41F480218165816D01F4802116915F
:102CA000C16C41F00201C164C06C11A900F00200C6
:102CB00016904FF4406011900220CDE912040720D5
:102CC000CDE914400448FFF76FF818B010BD0000BC
:102CD0000048004000100240000400482DE9F8437D
:102CE0000446D0F884001F4616460D46202851D1D0
:102CF000DDB1D6B194F8800001284BD0012084F8D2
:102D000080004FF00008C4F88C802120C4F88400B3
:102D10001834FFF76DF9A6878146E68754F8100C42
:102D2000183CB0F5805F03D004E00120BDE8F883D3
:102D3000206920B12E46002584F8808010E000260E
:102D4000FAE78021204600F0B3FAB8B9C6B116F808
:102D5000010B21688862B4F85600401EA4F85600A2
:102D6000B4F856004B464FF0000200970028E8D117
:102D70004FF04001204600F09BFA30B10320D5E728
:102D800035F8020BC0F30800E3E72020C4F8840004
:102D90000020CBE70220C9E7FEE70000114808B594
:102DA000C16C41F00401C164C16C01F004010091E7
:102DB000C16C41F02001C164C16C01F0200100919F
:102DC000C16C41F00201C164C16C01F002010091CB
:102DD000C16C41F00101C164C06C00F001000090C1
:102DE00008BD000000100240184810B516490160E7
:102DF0004FF4E1314160002181600C22C160C0E9E3
:102E000004128161C161016241628162FFF7F1FEDA
:102E100008B1FEF7C6FF00210C48FFF7C4FE08B159
:102E2000FEF7BFFF00210948FFF797FE08B1FEF744
:102E3000B8FF0648FFF772FE002803D0BDE8104037
:102E4000FEF7AFBF10BD000000480040102000207A
:102E5000FEE7FEE770477047FFF7D0B810B594B0B3
:102E600038216846FDF72FFB14210EA8FDF72BFB38
:102E70000020FFF747F90120009000040190022094
:102E80000324CDE907045521CDE909010B900C90ED
:102E90000D906846FFF728FC08B172B6FEE70F20D8
:102EA000CDE90E04002010901190129004210EA87C
:102EB000FFF7D2FA002801D072B6FEE714B010BDB9
:102EC0000248016841F470010160704788ED00E03C
:102ED00030B5416EB9B1026891689268C1F3426140
:102EE0000B4B520F9C5CE50003F10804A25CB5FBA0
:102EF000F2F2A0F86A205A5C615CD200B2FBF1F1F8
:102F0000A0F8681030BD0121A0F86A10F8E70000B1
:102F1000A045000890F82810C90706D001684A6843
:102F2000C36A22F400321A434A6090F828108907D5
:102F300006D501684A68036B22F480321A434A605E
:102F400090F82810490706D501684A68436B22F4B7
:102F500080221A434A6090F82810090706D50168B4
:102F60004A68836B22F400421A434A6090F82810A2
:102F7000C90606D501688A68C36B22F480521A43D9
:102F80008A6090F82810890606D501688A68036C63
:102F900022F400521A438A6090F82810490611D58D
:102FA00001684A68436C22F480121A434A60416CFB
:102FB000B1F5801F06D101684A68836C22F4C00213
:102FC0001A434A6090F82810090606D501684A6835
:102FD000C06C22F4002202434A607047F8B5002614
:102FE0000446C0F88C60FFF703F8054620680068C7
:102FF0006FF07E47000708D52B4600224FF40011E2
:103000002046009700F054F960B920680068400736
:103010000AD52B4600224FF480012046009700F08D
:1030200047F908B10320F8BD2020C4F88400C4F893
:10303000880044F86C6F00202675F8BD2DE9F0413A
:103040000446016880682269E369104362690025CB
:103050001A431043DFF82CC20A688B4B1A40024314
:103060000A6020684168E26821F4405111434160E0
:103070002168A069614501D0226A10438A68834BA8
:103080001A4002438A602068C16A626A21F00F0117
:103090001143C1627E4923687E488B420DD1D0F82E
:1030A000880010F0030006D0012855D0022842D035
:1030B00003283FD152E001203DE077498B420BD1FC
:1030C000D0F8880010F00C0035D0042833D0082840
:1030D00040D00C282ED141E070498B420BD1D0F862
:1030E000880010F0300026D0102835D0202831D0AC
:1030F00030281FD132E06A498B420BD1D0F88800CA
:1031000010F0C00017D0402826D0802822D0C02838
:1031100010D123E063450DD1D0F8880010F4406051
:1031200009D0B0F5806F17D0B0F5006F12D0B0F5B0
:10313000406F13D010205B495B4F00264FF40042D4
:1031400063453BD160B1022813D004280BD0082876
:1031500072D10DE00220EEE70420ECE70820EAE758
:10316000FFF768FA01E0FFF789FA010001D17CE07E
:103170001146606A37F810206768B1FBF2F007EB80
:103180004703834270D8B0EB073F6DD80023084651
:103190001946FDF7E7F8090241EA106102027808D2
:1031A000101871413A460023FDF7DCF83F4AA0F5BC
:1031B0004071914258D82168C86056E0E3694FF6E3
:1031C000EF7893422CD109284ED2DFE800F00508B1
:1031D000114D0D4D4D4D1000FFF72CFA01E0FFF79A
:1031E0003BFA010004D140E0FFF748FAF9E7114645
:1031F000606A37F81000B1FBF0F04100606801EB45
:103200005001B1FBF0F0A0F1100141452CD84FF670
:10321000F0710140C0F3420001432068C16024E026
:10322000092821D2DFE800F0050912200E20202015
:103230001100FFF7FFF902E016E0FFF70DFA0100B9
:1032400004D112E0FFF71AFAF9E71146606A37F87D
:103250001000B1FBF0F1606801EB5001B1FBF0F040
:10326000A0F1100141450AD901250120A4F86A0006
:1032700024F8680F2846A660E660BDE8F08180B2B9
:1032800099E7000000800040F369FFCFFFF4FF11D1
:103290000038014000100240004400400048004057
:1032A000004C00400024F40088450008FFFC0F009B
:1032B0002DE9F0479A4617460E4604464FF000099E
:1032C0004FF02008089D4AE0681C48D0FEF790FEA9
:1032D000A0EB0A00A8422AD84DB32068016849072C
:1032E0003DD5C069C043000539D421684FF4006062
:1032F0000862206850E8001F21F4D07140E80012F5
:10330000002AF6D12068083050E8001F21F00101A2
:1033100040E80012002AF5D144F8848FC4F80480F4
:10332000C4F8088004F8049C0320BDE8F0872168F5
:1033300051E8000F20F4D07041E80002002AF6D1D5
:103340002068083050E8001F21F0010140E8001219
:10335000002AF5D144F8848FC4F80480E2E720689D
:10336000C06936EA000004D00020B842ACD000208A
:10337000DBE70120F9E7FEE703B40198410000987C
:1033800050EAC12018BF04204A0D18BF40F00100C8
:1033900040F2FF72B2EB515F08BF40F0020001281B
:1033A00008BF052002B070474100080218BF042082
:1033B0000A0E18BF40F001004FF07F4232EA0101CF
:1033C00008BF40F00200012808BF05207047090728
:1033D000090E002804DB00F1E02080F8001470479B
:1033E00000F00F0000F1E02080F8141D704700008D
:1033F00000B510EE101A2DED028B81B0524A6846CE
:10340000B2EB410F2ED94FF0E640B0EB410F94BF25
:1034100000204FF0FF3000900098B0EE408A002866
:103420006ADB10F0010F4BD068EE080A9FED471AD7
:103430009FED470A00EE810A9FED461A10F0020F39
:1034400000EE801AB7EE000A00EE810A02BF01B05A
:10345000BDEC028B00BD00BF01B0B1EE400ABDEC77
:10346000028B00BD3C4B21F00042934241D911F048
:10347000004FDFED3A0A20EE201ADFED390A19BFBE
:1034800031EE601A71EE200A31EE201A71EE600AF8
:10349000BDEEE01A11EE100A9FED321A00F00300A3
:1034A00000EEC10A9FED301A009000EEC10A9FEDB8
:1034B0002F1A00EEC10A9FED2E1A00EEC10AABE7EB
:1034C00028EE080A9FED2B1ADFED2B0A10F0020FF1
:1034D00040EE410A9FED291A00EE201A61EE000A23
:1034E000B0EE480A08EE200AB6D101B0BDEC028B5E
:1034F00000BD00F059F88FE718EE100A4000B0F157
:103500007F4F0DD218EE100AFFF74EFF042808BFB8
:1035100000F042F8B0EE480A01B0BDEC028B00BDED
:1035200009D10120FCF7FEFF01B0BDEC028B5DF874
:1035300004EB00F029B801B0B0EE480ABDEC028BF4
:103540005DF804EB00F01CB8B61F927EB93AB2BA2F
:10355000CA9F2A3DDDFFFFBE490E494683F9223F3F
:103560000000004B0000C93F00A0FD390020A2333D
:103570001A61342C336D4C39DA82083CA0AA2ABE79
:1035800030EE000A70470000DFED020A80EEA00A6C
:1035900070470000000000009FED020A20EE000AC4
:1035A00070470000000000102DE9F0014FF07F424D
:1035B000B2EB410F9FBF4FF0FF310160BDE8F0015A
:1035C00070474FF0004242EA0123C1F3C752783AF4
:1035D000551112F01F0C434CCCF120067C44C1F372
:1035E000C752A2F178024FEA621204EB820254F849
:1035F000254008BFD2E9015612D0556804FA0CF4F0
:1036000025FA06F73C43976805FA0CF527FA06F801
:10361000D26807FA0CFCF24045EA08054CEA0206BB
:10362000A4FB034CA5FB0352A6FB03631D449D4270
:1036300034BF012600261319334416B1934202D930
:1036400003E0934201D2012200E00022624402F131
:10365000200C9206DC0C42EA443200EE102A5B0396
:10366000DFED210AF8EEC01A00EE103A4FEA9C1C7A
:1036700011F0004FB8EE400AC0F800C020EE201A4A
:1036800000EE105ADFED190AB8EE400A20EE200ACB
:1036900071EE810A70EE800A10EE902A02F5006247
:1036A0006FF30B0200EE902A70EEE11A31EEC11AB0
:1036B000DFED101A30EE411A9FED0D0A20EE800A60
:1036C00001EE210A9FED0C1A00EE810A04BFBDE84D
:1036D000F0017047CCF180510160BDE8F001B1EE1E
:1036E000400A7047BC230000000000360000802C18
:1036F00022AAFD29DB0FC92F0000C92F30380A2864
:1037000001D201207047002070470000F0B500236F
:1037100018E000BF02EB430532F813406D88A4089F
:10372000AD0850F8246050F8257040F8247040F837
:10373000256000EB840400EB850566686F686760B0
:103740009B1C6E608B42E5D3F0BD2DE9F0410588EE
:10375000984617460C460646012A0CD1201D00212A
:1037600007E090ED000AB1EE400A80ED000A083053
:10377000491CA942F5D3B5F5807F1BD008DC102D7C
:1037800013D0202D16D0402D19D0802D1DD10CE046
:10379000B5F5007F13D0B5F5806F06D0B5F5006F95
:1037A00008D0B5F5805F10D109E02146304600F021
:1037B00032F80AE02146304600F0F1F805E02946EB
:1037C00001232046726800F023FBB8F1000F04D0FB
:1037D000B1892046B268FFF799FF012F19D100EE99
:1037E000105AB7EE001A0020F8EE400A81EE200AC7
:1037F0000DE0D4ED000A401C60EE800AC4ED000A22
:10380000D4ED010A60EEC00AC4ED010A0834A842F2
:10381000EFD3BDE8F0812DE9F04105462DED028B97
:103820008C4602886E6801EB82005408804601EBEA
:10383000840200EB8403A7087CD091ED003AD0ED20
:10384000002A91ED015A90ED014A33EE228AD1ED22
:10385000027A91ED031A90ED022AD0ED033A92ED2F
:10386000007AD2ED016AD2ED021AD2ED034AD3ED0D
:10387000000A93ED010AD3ED025A93ED036A81ED3C
:10388000008A35EE048A33EE623A75EE442A81ED01
:10389000018A37EE828A31EE635A37EEC24A81EDF1
:1038A000028A31EE238A37EE201A30EEC72A81EDE4
:1038B000038A82ED001A36EE801A76EE643A82EDC3
:1038C000011A31EEA51A75EEE11A82ED021A34EEF4
:1038D000861A82ED031A30EE661A96ED000AD6EDCE
:1038E000010A63EE004A62EEA05A62EE802A23EEDD
:1038F000203A74EEA54A72EEC32AC0ED004A22EEC9
:10390000203AC0ED012A61EE002A61EE200A22EE83
:10391000000A33EE621A30EE800A83ED001A83ED5E
:10392000010A96ED020AD6ED030A24EE002A25EEDE
:10393000201A00E023E065EE002A24EE203A32EE61
:10394000011A23EE802A21EE800A80ED021A32EE5F
:10395000C31A1031103280ED031A21EEA01A63EE63
:10396000A00A1030103631EE421A30EE800A83ED94
:10397000021A83ED030A10337F1E7FF45EAF2146E7
:10398000022360466A6800F043FA6A682146BDEC8B
:10399000028B4046BDE8F041022300F039BA2DE920
:1039A000F34F2DED048B87B00B9800884FEA500839
:1039B00001EB880000EB880303EB8804CDE90043AA
:1039C000DDF82CC0221F02EB8807CDE902014FEA87
:1039D0005808DCF804A0CDF810804FF00408CDF8AA
:1039E00018804FF00608CDF81480D1ED000A93ED51
:1039F000000AD0ED013A94ED013A30EE802A70EEE3
:103A0000C01AD1ED010A93ED010A061F1D1F70EEC9
:103A1000802A30EEC01A33EEA10AD4ED000A71EE0E
:103A2000E31A0AF1080B70EE435A90ED000A71EEAA
:103A3000831A0AF1100931EE404A72EE404A30EE24
:103A4000011A30EE020A34EE204A34EEE05A31EE2A
:103A5000601A30EE200A72EEE34A0AF1180A81ED8C
:103A6000000A90ED010AD4ED010A74EEC34A30EE6B
:103A7000220A30EE200A81ED010AC0ED005A80EDE5
:103A8000014A83ED005AC3ED014AC4ED001A84EDEA
:103A9000011ADDF810800830A8F102080831083357
:103AA0004FEA580C0834D1ED000A93ED000A5FEAA2
:103AB0000C0E70EE804A70EEC01AD1ED010A93ED43
:103AC000010A7ED090ED015A30EE802A30EEC01A05
:103AD00035EE210AD4ED013AD0ED000A71EEC51A97
:103AE00070EE635A71EE602A94ED000A30EE811A8E
:103AF00071EEA31A32EE804A74EEE02A70EEA40A48
:103B000031EE401A32EEC03A30EE800A72EE452AAB
:103B100081ED000A90ED010AD4ED010A72EEE32A6C
:103B200030EE020A30EE200A81ED010A56ED010A5C
:103B300012ED010A15ED015A57ED017A70EE808AF7
:103B400030EEC02AD6ED000A92ED000A95ED007A1B
:103B500030EE808A30EEC00AD7ED000A70EE453AAA
:103B600037EE609A73EEA76A78EEC53A37EEC55A1B
:103B700039EE026A39EE422A73EEE74A35EE405AD0
:103B800037EE080A78EE473A30EE200A73EEE03A54
:103B900086ED000A15ED010A57ED010A30EE280AFC
:103BA00030EE200A06ED010A9BED000ADBED010A6A
:103BB0000BF1080B25EE807A64EE207A24EE008A61
:103BC00000E074E025EEA04A77EE275A0831083E5F
:103BD000C0ED005A38EE444A66EEA05A66EE200A5E
:103BE00080ED014A26EE004A26EE800A0830AEF14A
:103BF000010C35EEC44A30EE800A85ED004A05ED31
:103C0000010AD9ED000A99ED010ADDF8188023EECA
:103C1000204A62EE805A62EEA02A23EE003A09EBB7
:103C2000880934EE254A083D72EEC32A83ED004A26
:103C300023EEE03AC3ED012A64EE802A64EEA00A86
:103C400023EE800A083373EE622A30EE600AC2ED7A
:103C5000002A02ED010ADAED000A9AED010ADDF808
:103C6000148021EEA03A61EE002A61EE203A21EEA6
:103C7000801A083A73EE221A0AEB880A33EEC11A48
:103C8000C4ED001A62EE201A84ED011A25EE001A26
:103C900022EE000A65EE200A083431EE611A30EE99
:103CA000200A87ED001A07ED010A083FFBE630EE17
:103CB000805A90ED011A70EEC05A94ED012A31EE4F
:103CC000210AD0ED000A35EE414A31EEC11A70EEFC
:103CD000422A94ED000A35EEE03A74EEE03A70EED6
:103CE000A51A70EEA40A33EE003A73EEC03A71EEF4
:103CF000C01A30EE800A34EE424A31EE021A81EDEB
:103D0000000A90ED010AD4ED010A30EE050A30EE0A
:103D1000200A81ED010A9BEC020A62EE804A23EE42
:103D2000202A23EE000A62EEA00A34EE822A30EE48
:103D3000600A80ED002A80ED010AD9ED000A99EDB4
:103D4000010A23EEA02A64EE002A64EE200A23EE84
:103D5000800A32EE222A30EEC00A83ED002A83ED7B
:103D6000010A04239AEC020A21EE002A61EEA02A3D
:103D700021EE800A61EE200A32EE221A30EE600A4D
:103D800084ED001A84ED010A0B984268DDE9030115
:103D900000F03EF80B98042304994268029800F062
:103DA00037F80B98042304994268019800F030F822
:103DB0000B98049904234268009807B0BDEC048B6B
:103DC00002B0BDE8F04F00F023B800009FED0F1ADD
:103DD00018E000BF90ED000AD0ED010A0B4620EE7E
:103DE000000A091D083000EEA00AB5EEC00AF1EE87
:103DF00010FA04DBF1EEC00AC3ED000A01E083ED26
:103E0000001A521E002AE5D1704700000000000091
:103E10002DE9FF4F2DED108B84B09FEDFE0A159913
:103E20000291C90800235E18771807EB010E0EEB0C
:103E3000010404EB010C0CEB010808EB010900EB99
:103E4000C305CDF8009000EBC40495ED001AD4ED45
:103E5000000A00EBC60B00EBCC0671EE201A31EE27
:103E6000604A9BED001AD6ED000A00EBC70A00EB92
:103E7000C80831EE202A71EE604ADDF80090DAEDD4
:103E8000000A98ED001A00EBCE0700EBC90CD7ED45
:103E9000003ADCED002A30EE813A30EEC11A73EEC2
:103EA000A20A33EEE25A71EEC32A31EE833A72EE81
:103EB000601A72EE200A33EE202A73EE600A85ED56
:103EC000002AC4ED000A95ED013AD4ED010ADBEDBC
:103ED000013ADAED015A33EE202A33EE603AD6ED9C
:103EE000010AD7ED017A73EEA06A73EEE00AD8ED0D
:103EF000013A35EEA37A75EEE33ADCED015A37EE7E
:103F0000A56A77EEE55A72EE477A32EE077A36EE18
:103F1000C62A36EE866A77EE066A37EE466AC5ED41
:103F2000016A84ED016A32EE826A32EEC22A8AEDBB
:103F3000006A88ED002A37EEE12A77EEA11A8AEDB1
:103F4000012AC8ED011A74EEC51A21EE802A74EE1A
:103F5000851A74EE424A61EE802A70EEE51A70EE20
:103F6000A50A34EE022A61EE801A20EE805A71EE24
:103F7000620A31EE221A73EE612A73EE211A33EED1
:103F8000C53A73EE853A32EE234A32EE632A8BED60
:103F9000004A8CED002A34EE832A86ED002A34EEA6
:103FA000C32A87ED002A31EEC12A31EE811A8BED4A
:103FB000012A8CED011A32EEE01A72EEA00A86EDAB
:103FC000011AC7ED010A029C2344159CA342FFF489
:103FD0002AAF08297ED30023019301230093179C65
:103FE000019B234401939E004FEA430CF5180CEB10
:103FF0000307EC182344DDF8048002EBC30302EB53
:10400000C80802EBCC0C02EBC70702EBC60602EBBA
:10401000C50502EBC40493ED009A93ED01AAD8ED17
:1040200000DA9CED00DAD7ED00CA96ED00CAD5EDB6
:1040300000BA94ED00BAD8ED018A9CED018AD7ED63
:1040400001AAD6ED017A95ED017AD4ED016A009BC3
:104050005D186E1806EB010CCDF80CC08C440CEB0F
:10406000010700EBC30400EBCC0A94ED001ADAED73
:10407000000A00EBC50E00EBC70B9EED002ADBED3E
:10408000001A71EE203A07EB010831EE601A72EE69
:10409000210A00EBC60500EBC80772EE611AD5EDE8
:1040A000002A97ED002ADDF80CC008EB010972EE3A
:1040B000824A00EBCC0600EBC90832EEC22A96ED2C
:1040C000003AD8ED002A33EE224A73EE622A33EE2C
:1040D000E43A00E0F9E070EEC45A73EEA43A70EEF0
:1040E000840A33EEA04A33EEE0EA84ED004AD4EDD0
:1040F000013ADAED010A9EED014AD5ED014A33EEAF
:10410000A0FA73EEE03ADBED010AD6ED01EA98ED94
:10411000015A74EE209A34EE604AD7ED010A34EE6B
:10412000A06A74EEE04A7EEE850A3EEEC55A7FEE46
:1041300046EA3FEE066A39EEE0FA79EEA09A73EEAF
:104140000F0A33EE4F3A36EE29FA76EE699A3EEED2
:10415000E56A84ED01FA7EEEA55A6CEE0EEA27EED2
:10416000A9FA6CEE299A27EE8EEA7EEE8FEA79EEB6
:10417000CE9ACAED00EA28EE06EACAED019A6DEE83
:10418000209A2DEE066A68EE200A79EE8E9A76EE77
:10419000600AC5ED009A2BEE036A66EEA59AC5ED9E
:1041A000010A6BEE255A66EE830A36EE293A75EE61
:1041B000E00A87ED003A34EE053AC7ED010A71EEE8
:1041C000E20A71EEA21A74EE452A23EE004A60EE6E
:1041D000800A61EE801A62EE802A31EE603A71EE5A
:1041E000200A32EE611A72EE211A33EEE22A73EEE1
:1041F000A22A74EEC43A74EE844A30EEA44A70EEF9
:10420000E40A73EE234A33EE633A72EEE13A72EE59
:10421000A12A01E0F304353F72EE411A32EE011A91
:104220002DEE842A28EEA35A6DEEA33A28EE844A96
:1042300032EE052A8EED002A33EEC42A6AEE223AC7
:1042400069EE222A8EED012A29EE202A6AEE200A42
:1042500032EE232A72EEE00A67EE242A88ED002A65
:10426000C8ED010A6BEEA40A27EE212A6BEEA11A13
:1042700070EE820A2AEE832ACBED000A71EEE20A82
:104280006AEE811A2CEE811ACBED010A6CEE830ADC
:1042900070EEA10AC6ED000A71EE420AC6ED010AEF
:1042A000029C2344159CA342FFF4D2AE009B5B1CEE
:1042B00000938B42FFF493AE179B4FF6FF7404EA12
:1042C000C303179307293FF6ABAD04B0BDEC108BC9
:1042D000BDE8FF8F2DED068BFDF798FEFEF7BEFDC6
:1042E000FEF75CFDFEF780FD9FED398ADFED398A30
:1042F000394E0024B1EE009AF4EE009AF0EE00AAD6
:10430000B5EE00AA4FF4007700EE104AB8EEC00AEE
:1043100020EE080A20EE280AFFF76AF806EB84056B
:10432000D5ED000A40EE090A00EE104AB8EEC00AC8
:10433000C5ED000A20EE080A20EE290AFFF758F81A
:10434000D5ED000A40EE2A0A00EE104AB8EEC00A87
:10435000C5ED000A20EE080A20EE0A0AFFF748F829
:10436000D5ED000A641CBC4230EE200A85ED000A3F
:10437000CADB1A4A9FED1A0A002000BF06EB800133
:10438000D1ED000A02EBC001401CC1ED000A81ED35
:10439000010AB842F2DB0123002210491148FFF75D
:1043A000D4F93A4610490D48FFF710FD0E4D002490
:1043B00055F8240000F06EF841EC100B214653EC48
:1043C000102B0AA000F01CF8641CBC42F0DBFEE7D6
:1043D000DB0FC9400000803C1000002010080020C6
:1043E00000000000485900081018002044535020D5
:1043F000526573756C743A25642C25660A000000BA
:104400000FB4802100B5A1B023AB6846229AFCF717
:1044100021F86846FCF738F882B24FF0FF3369465E
:104420000248FEF75BFC21B05DF814FB1020002071
:1044300010B500290AD00878002807D0054878442C
:10444000FDF79EF8002801D0002010BD02487844F6
:1044500010BD00005A1600005216000010B50029C9
:104460000AD00878002807D005487844FDF788F876
:10447000002801D0002010BD0248784410BD000083
:104480004A160000421600000808A0F500114FEA85
:104490003101704743004FEAD30C4FEA3C0C4340D4
:1044A0001FBF40070CF1605113F0FE4F70471CF026
:1044B000006F03D100200CF0004170470CF0004366
:1044C00043EA507010B540EACC0000F00EF800BF8F
:1044D000000000924FEA0001FFF7D6BF4FF0004105
:1044E0004FF00000A1F5002170470EF1020E2EF0F2
:1044F000030E5EF8044B244204D44FEA4102B2F1A9
:104500007F4F11D84FEA4003B3F17F4F0CD80ED143
:104510004FEAD07CB2F17F4F0CEB4C0C0CF1020C4B
:1045200008BF4CEBD17C04E04FF0080C01E04FEAEF
:10453000D17C0CEB4C0324FA03F404F00704B4F12F
:10454000040C06D20EEB840CBDE810404CF0010CBC
:104550006047DFE80CF0070802024FF00040A0F5CA
:10456000800010BD0846420018BFD2F1807288BF9B
:1045700000F0004010BD4FF04070E1EE100A7047AF
:10458000FCF70BBCFCF740BD010002000400060074
:1045900008000A000C00100020004000800000010C
:1045A00001010103070100000804020408010101E0
:1045B00000000000000000000102030406070809D3
:1045C00000000000010203040000803F0000000022
:1045D00011FB7F3F900E493C43EC7F3FB00AC93C42
:1045E00098D37F3F2CC3163D0FB17F3F2FFB483D33
:1045F000AB847F3F742B7B3D6D4E7F3F05A9963D7D
:10460000580E7F3F80B6AF3D6DC47E3F36BDC83D7E
:10461000B0707E3F2EBCE13D24137E3F73B2FA3D65
:10462000CCAB7D3F86CF093EAC3A7D3F8340163E02
:10463000C9BF7C3FB6AB223E283B7C3FA2102F3E39
:10464000CDAC7B3FCF6E3B3EBE147B3FC2C5473EE9
:1046500002737A3F0115543E9DC7793F135C603E5B
:104660009812793F7F9A6C3EF853783FCCCF783ED2
:10467000C58B773FC07D823E07BA763F938E883EDA
:10468000C6DE753F229A8E3E0BFA743F31A0943EEF
:10469000DD0B743F86A09A3E4714733FE59AA03E17
:1046A0005213723F128FA63E0809713FD47CAC3E74
:1046B00073F56F3FEF63B23E9ED86E3F2A44B83E1B
:1046C00093B26D3F4A1DBE3E5E836C3F15EFC33E05
:1046D0000C4B6B3F53B9C93EA7096A3FCA7BCF3E1B
:1046E0003CBF683F4136D53ED86B673F80E8DA3E35
:1046F000880F663F4F92E03E59AA643F7533E63E0D
:104700005A3C633FBBCBEB3E98C5613FEA5AF13E52
:104710002146603FCBE0F63E05BE5E3F275DFC3E96
:10472000532D5D3FE4E7003F1A945B3F3D9C033F00
:104730006AF2593F824B063F5348583F9BF5083F6A
:10474000E595563F6B9A0B3F31DB543FDA390E3F0C
:104750004918533FCDD3103F3D4D513F2A68133F79
:104760001F7A4F3FD9F6153F029F4D3FC07F183F3C
:10477000F8BB4B3FC6021B3F12D1493FD17F1D3FC3
:1047800065DE473FCBF61F3F03E4453F9967223F75
:1047900000E2433F25D2243F70D8413F5636273FA1
:1047A00067C73F3F1594293FF9AE3D3F4AEB2B3F8A
:1047B0003B8F3B3FDE3B2E3F4268393FBB85303F5E
:1047C000233A373FC9C8323FF304353FF304353F3E
:1047D000C9C8323F233A373FBB85303F4268393F33
:1047E000DE3B2E3F3B8F3B3F4AEB2B3FF9AE3D3F3D
:1047F0001594293F67C73F3F5636273F70D8413F42
:1048000025D2243F00E2433F9967223F03E4453F1E
:10481000CBF61F3F65DE473FD17F1D3F12D1493F99
:10482000C6021B3FF8BB4B3FC07F183F029F4D3F66
:10483000D9F6153F1F7A4F3F2A68133F3D4D513F30
:10484000CDD3103F4918533FDA390E3F31DB543F87
:104850006B9A0B3FE595563F9BF5083F5348583FF1
:10486000824B063F6AF2593F3D9C033F1A945B3FDF
:10487000E4E7003F532D5D3F275DFC3E05BE5E3FF4
:10488000CBE0F63E2146603FEA5AF13E98C5613FD3
:10489000BBCBEB3E5A3C633F7533E63E59AA643FBF
:1048A0004F92E03E880F663F80E8DA3ED86B673F64
:1048B0004136D53E3CBF683FCA7BCF3EA7096A3F21
:1048C00053B9C93E0C4B6B3F15EFC33E5E836C3F43
:1048D0004A1DBE3E93B26D3F2A44B83E9ED86E3FFD
:1048E000EF63B23E73F56F3FD47CAC3E0809713F75
:1048F000128FA63E5213723FE59AA03E4714733FB3
:1049000086A09A3EDD0B743F31A0943E0BFA743FB3
:10491000229A8E3EC6DE753F938E883E07BA763F5A
:10492000C07D823EC58B773FCCCF783EF853783F31
:104930007F9A6C3E9812793F135C603E9DC7793F29
:104940000115543E02737A3FC2C5473EBE147B3FF9
:10495000CF6E3B3ECDAC7B3FA2102F3E283B7C3F31
:10496000B6AB223EC9BF7C3F8340163EAC3A7D3F8A
:1049700086CF093ECCAB7D3F73B2FA3D24137E3F18
:104980002EBCE13DB0707E3F36BDC83D6DC47E3F5C
:1049900080B6AF3D580E7F3F05A9963D6D4E7F3FD7
:1049A000742B7B3DAB847F3F2FFB483D0FB17F3F96
:1049B0002CC3163D98D37F3FB00AC93C43EC7F3FE0
:1049C000900E493C11FB7F3F000000000000803F3B
:1049D000900E49BC11FB7F3FB00AC9BC43EC7F3F3E
:1049E0002CC316BD98D37F3F2FFB48BD0FB17F3F2F
:1049F000742B7BBDAB847F3F05A996BD6D4E7F3F79
:104A000080B6AFBD580E7F3F36BDC8BD6DC47E3F7A
:104A10002EBCE1BDB0707E3F73B2FABD24137E3F61
:104A200086CF09BECCAB7D3F834016BEAC3A7D3FFE
:104A3000B6AB22BEC9BF7C3FA2102FBE283B7C3F35
:104A4000CF6E3BBECDAC7B3FC2C547BEBE147B3FE5
:104A5000011554BE02737A3F135C60BE9DC7793F57
:104A60007F9A6CBE9812793FCCCF78BEF853783FCE
:104A7000C07D82BEC58B773F938E88BE07BA763FD6
:104A8000229A8EBEC6DE753F31A094BE0BFA743FEB
:104A900086A09ABEDD0B743FE59AA0BE4714733F13
:104AA000128FA6BE5213723FD47CACBE0809713F70
:104AB000EF63B2BE73F56F3F2A44B8BE9ED86E3F17
:104AC0004A1DBEBE93B26D3F15EFC3BE5E836C3F01
:104AD00053B9C9BE0C4B6B3FCA7BCFBEA7096A3F17
:104AE0004136D5BE3CBF683F80E8DABED86B673F31
:104AF0004F92E0BE880F663F7533E6BE59AA643F09
:104B0000BBCBEBBE5A3C633FEA5AF1BE98C5613F4E
:104B1000CBE0F6BE2146603F275DFCBE05BE5E3F92
:104B2000E4E700BF532D5D3F3D9C03BF1A945B3FFC
:104B3000824B06BF6AF2593F9BF508BF5348583F66
:104B40006B9A0BBFE595563FDA390EBF31DB543F08
:104B5000CDD310BF4918533F2A6813BF3D4D513F75
:104B6000D9F615BF1F7A4F3FC07F18BF029F4D3F38
:104B7000C6021BBFF8BB4B3FD17F1DBF12D1493FBF
:104B8000CBF61FBF65DE473F996722BF03E4453F71
:104B900025D224BF00E2433F563627BF70D8413F9D
:104BA000159429BF67C73F3F4AEB2BBFF9AE3D3F86
:104BB000DE3B2EBF3B8F3B3FBB8530BF4268393F5A
:104BC000C9C832BF233A373FF30435BFF304353F3A
:104BD000233A37BFC9C8323F426839BFBB85303F2F
:104BE0003B8F3BBFDE3B2E3FF9AE3DBF4AEB2B3F39
:104BF00067C73FBF1594293F70D841BF5636273F3E
:104C000000E243BF25D2243F03E445BF9967223F1A
:104C100065DE47BFCBF61F3F12D149BFD17F1D3F95
:104C2000F8BB4BBFC6021B3F029F4DBFC07F183F62
:104C30001F7A4FBFD9F6153F3D4D51BF2A68133F2C
:104C4000491853BFCDD3103F31DB54BFDA390E3F83
:104C5000E59556BF6B9A0B3F534858BF9BF5083FED
:104C60006AF259BF824B063F1A945BBF3D9C033FDB
:104C7000532D5DBFE4E7003F05BE5EBF275DFC3EF0
:104C8000214660BFCBE0F63E98C561BFEA5AF13ECF
:104C90005A3C63BFBBCBEB3E59AA64BF7533E63EBB
:104CA000880F66BF4F92E03ED86B67BF80E8DA3E60
:104CB0003CBF68BF4136D53EA7096ABFCA7BCF3E1D
:104CC0000C4B6BBF53B9C93E5E836CBF15EFC33E3F
:104CD00093B26DBF4A1DBE3E9ED86EBF2A44B83EF9
:104CE00073F56FBFEF63B23E080971BFD47CAC3E71
:104CF000521372BF128FA63E471473BFE59AA03EAF
:104D0000DD0B74BF86A09A3E0BFA74BF31A0943EAF
:104D1000C6DE75BF229A8E3E07BA76BF938E883E56
:104D2000C58B77BFC07D823EF85378BFCCCF783E2D
:104D3000981279BF7F9A6C3E9DC779BF135C603E25
:104D400002737ABF0115543EBE147BBFC2C5473EF5
:104D5000CDAC7BBFCF6E3B3E283B7CBFA2102F3E2D
:104D6000C9BF7CBFB6AB223EAC3A7DBF8340163E86
:104D7000CCAB7DBF86CF093E24137EBF73B2FA3D14
:104D8000B0707EBF2EBCE13D6DC47EBF36BDC83D58
:104D9000580E7FBF80B6AF3D6D4E7FBF05A9963DD3
:104DA000AB847FBF742B7B3D0FB17FBF2FFB483D92
:104DB00098D37FBF2CC3163D43EC7FBFB00AC93CDC
:104DC00011FB7FBF900E493C000080BF0000000037
:104DD00011FB7FBF900E49BC43EC7FBFB00AC9BC3A
:104DE00098D37FBF2CC316BD0FB17FBF2FFB48BD2B
:104DF000AB847FBF742B7BBD6D4E7FBF05A996BD75
:104E0000580E7FBF80B6AFBD6DC47EBF36BDC8BD76
:104E1000B0707EBF2EBCE1BD24137EBF73B2FABD5D
:104E2000CCAB7DBF86CF09BEAC3A7DBF834016BEFA
:104E3000C9BF7CBFB6AB22BE283B7CBFA2102FBE31
:104E4000CDAC7BBFCF6E3BBEBE147BBFC2C547BEE1
:104E500002737ABF011554BE9DC779BF135C60BE53
:104E6000981279BF7F9A6CBEF85378BFCCCF78BECA
:104E7000C58B77BFC07D82BE07BA76BF938E88BED2
:104E8000C6DE75BF229A8EBE0BFA74BF31A094BEE7
:104E9000DD0B74BF86A09ABE471473BFE59AA0BE0F
:104EA000521372BF128FA6BE080971BFD47CACBE6C
:104EB00073F56FBFEF63B2BE9ED86EBF2A44B8BE13
:104EC00093B26DBF4A1DBEBE5E836CBF15EFC3BEFD
:104ED0000C4B6BBF53B9C9BEA7096ABFCA7BCFBE13
:104EE0003CBF68BF4136D5BED86B67BF80E8DABE2D
:104EF000880F66BF4F92E0BE59AA64BF7533E6BE05
:104F00005A3C63BFBBCBEBBE98C561BFEA5AF1BE4A
:104F1000214660BFCBE0F6BE05BE5EBF275DFCBE8E
:104F2000532D5DBFE4E700BF1A945BBF3D9C03BFF8
:104F30006AF259BF824B06BF534858BF9BF508BF62
:104F4000E59556BF6B9A0BBF31DB54BFDA390EBF04
:104F5000491853BFCDD310BF3D4D51BF2A6813BF71
:104F60001F7A4FBFD9F615BF029F4DBFC07F18BF34
:104F7000F8BB4BBFC6021BBF12D149BFD17F1DBFBB
:104F800065DE47BFCBF61FBF03E445BF996722BF6D
:104F900000E243BF25D224BF70D841BF563627BF99
:104FA00067C73FBF159429BFF9AE3DBF4AEB2BBF82
:104FB0003B8F3BBFDE3B2EBF426839BFBB8530BF56
:104FC000233A37BFC9C832BFF30435BFF30435BF36
:104FD000C9C832BF233A37BFBB8530BF426839BF2B
:104FE000DE3B2EBF3B8F3BBF4AEB2BBFF9AE3DBF35
:104FF000159429BF67C73FBF563627BF70D841BF3A
:1050000025D224BF00E243BF996722BF03E445BF16
:10501000CBF61FBF65DE47BFD17F1DBF12D149BF91
:10502000C6021BBFF8BB4BBFC07F18BF029F4DBF5E
:10503000D9F615BF1F7A4FBF2A6813BF3D4D51BF28
:10504000CDD310BF491853BFDA390EBF31DB54BF7F
:105050006B9A0BBFE59556BF9BF508BF534858BFE9
:10506000824B06BF6AF259BF3D9C03BF1A945BBFD7
:10507000E4E700BF532D5DBF275DFCBE05BE5EBFEC
:10508000CBE0F6BE214660BFEA5AF1BE98C561BFCB
:10509000BBCBEBBE5A3C63BF7533E6BE59AA64BFB7
:1050A0004F92E0BE880F66BF80E8DABED86B67BF5C
:1050B0004136D5BE3CBF68BFCA7BCFBEA7096ABF19
:1050C00053B9C9BE0C4B6BBF15EFC3BE5E836CBF3B
:1050D0004A1DBEBE93B26DBF2A44B8BE9ED86EBFF5
:1050E000EF63B2BE73F56FBFD47CACBE080971BF6D
:1050F000128FA6BE521372BFE59AA0BE471473BFAB
:1051000086A09ABEDD0B74BF31A094BE0BFA74BFAB
:10511000229A8EBEC6DE75BF938E88BE07BA76BF52
:10512000C07D82BEC58B77BFCCCF78BEF85378BF29
:105130007F9A6CBE981279BF135C60BE9DC779BF21
:10514000011554BE02737ABFC2C547BEBE147BBFF1
:10515000CF6E3BBECDAC7BBFA2102FBE283B7CBF29
:10516000B6AB22BEC9BF7CBF834016BEAC3A7DBF82
:1051700086CF09BECCAB7DBF73B2FABD24137EBF10
:105180002EBCE1BDB0707EBF36BDC8BD6DC47EBF54
:1051900080B6AFBD580E7FBF05A996BD6D4E7FBFCF
:1051A000742B7BBDAB847FBF2FFB48BD0FB17FBF8E
:1051B0002CC316BD98D37FBFB00AC9BC43EC7FBFD8
:1051C000900E49BC11FB7FBF00000080000080BF33
:1051D000900E493C11FB7FBFB00AC93C43EC7FBF36
:1051E0002CC3163D98D37FBF2FFB483D0FB17FBF27
:1051F000742B7B3DAB847FBF05A9963D6D4E7FBF71
:1052000080B6AF3D580E7FBF36BDC83D6DC47EBF72
:105210002EBCE13DB0707EBF73B2FA3D24137EBF59
:1052200086CF093ECCAB7DBF8340163EAC3A7DBFF6
:10523000B6AB223EC9BF7CBFA2102F3E283B7CBF2D
:10524000CF6E3B3ECDAC7BBFC2C5473EBE147BBFDD
:105250000115543E02737ABF135C603E9DC779BF4F
:105260007F9A6C3E981279BFCCCF783EF85378BFC6
:10527000C07D823EC58B77BF938E883E07BA76BFCE
:10528000229A8E3EC6DE75BF31A0943E0BFA74BFE3
:1052900086A09A3EDD0B74BFE59AA03E471473BF0B
:1052A000128FA63E521372BFD47CAC3E080971BF68
:1052B000EF63B23E73F56FBF2A44B83E9ED86EBF0F
:1052C0004A1DBE3E93B26DBF15EFC33E5E836CBFF9
:1052D00053B9C93E0C4B6BBFCA7BCF3EA7096ABF0F
:1052E0004136D53E3CBF68BF80E8DA3ED86B67BF29
:1052F0004F92E03E880F66BF7533E63E59AA64BF01
:10530000BBCBEB3E5A3C63BFEA5AF13E98C561BF46
:10531000CBE0F63E214660BF275DFC3E05BE5EBF8A
:10532000E4E7003F532D5DBF3D9C033F1A945BBFF4
:10533000824B063F6AF259BF9BF5083F534858BF5E
:105340006B9A0B3FE59556BFDA390E3F31DB54BF00
:10535000CDD3103F491853BF2A68133F3D4D51BF6D
:10536000D9F6153F1F7A4FBFC07F183F029F4DBF30
:10537000C6021B3FF8BB4BBFD17F1D3F12D149BFB7
:10538000CBF61F3F65DE47BF9967223F03E445BF69
:1053900025D2243F00E243BF5636273F70D841BF95
:1053A0001594293F67C73FBF4AEB2B3FF9AE3DBF7E
:1053B000DE3B2E3F3B8F3BBFBB85303F426839BF52
:1053C000C9C8323F233A37BFF304353FF30435BF32
:1053D000233A373FC9C832BF4268393FBB8530BF27
:1053E0003B8F3B3FDE3B2EBFF9AE3D3F4AEB2BBF31
:1053F00067C73F3F159429BF70D8413F563627BF36
:1054000000E2433F25D224BF03E4453F996722BF12
:1054100065DE473FCBF61FBF12D1493FD17F1DBF8D
:10542000F8BB4B3FC6021BBF029F4D3FC07F18BF5A
:105430001F7A4F3FD9F615BF3D4D513F2A6813BF24
:105440004918533FCDD310BF31DB543FDA390EBF7B
:10545000E595563F6B9A0BBF5348583F9BF508BFE5
:105460006AF2593F824B06BF1A945B3F3D9C03BFD3
:10547000532D5D3FE4E700BF05BE5E3F275DFCBEE8
:105480002146603FCBE0F6BE98C5613FEA5AF1BEC7
:105490005A3C633FBBCBEBBE59AA643F7533E6BEB3
:1054A000880F663F4F92E0BED86B673F80E8DABE58
:1054B0003CBF683F4136D5BEA7096A3FCA7BCFBE15
:1054C0000C4B6B3F53B9C9BE5E836C3F15EFC3BE37
:1054D00093B26D3F4A1DBEBE9ED86E3F2A44B8BEF1
:1054E00073F56F3FEF63B2BE0809713FD47CACBE69
:1054F0005213723F128FA6BE4714733FE59AA0BEA7
:10550000DD0B743F86A09ABE0BFA743F31A094BEA7
:10551000C6DE753F229A8EBE07BA763F938E88BE4E
:10552000C58B773FC07D82BEF853783FCCCF78BE25
:105530009812793F7F9A6CBE9DC7793F135C60BE1D
:1055400002737A3F011554BEBE147B3FC2C547BEED
:10555000CDAC7B3FCF6E3BBE283B7C3FA2102FBE25
:10556000C9BF7C3FB6AB22BEAC3A7D3F834016BE7E
:10557000CCAB7D3F86CF09BE24137E3F73B2FABD0C
:10558000B0707E3F2EBCE1BD6DC47E3F36BDC8BD50
:10559000580E7F3F80B6AFBD6D4E7F3F05A996BDCB
:1055A000AB847F3F742B7BBD0FB17F3F2FFB48BD8A
:1055B00098D37F3F2CC316BD43EC7F3FB00AC9BCD4
:1055C00011FB7F3F900E49BC080000021000000450
:1055D00018000006200000082800000A3000000C17
:1055E0003800000E480040025000400458004006B9
:1055F000600040086800400A7000400C7800400ECF
:10560000880080029000800498008006A000800836
:10561000A800800AB000800CB800800EC800C0024C
:10562000D000C004D800C006E000C008E800C00AEE
:10563000F000C00CF800C00E0801000310010005C6
:1056400018010007200100092801000B3001000D9E
:105650003801000F48014003500140055801400740
:10566000600140096801400B7001400D7801400F56
:10567000880180039001800598018007A0018009BE
:10568000A801800BB001800DB801800FC801C003D4
:10569000D001C005D801C007E001C009E801C00B76
:1056A000F001C00DF801C00F10020804180208062E
:1056B000200208082802080A3002080C3802080EE6
:1056C0005002480458024806600248086802480A26
:1056D0007002480C7802480E9002880498028806EE
:1056E000A0028808A802880AB002880CB802880EB6
:1056F000D002C804D802C806E002C808E802C80AF6
:10570000F002C80CF802C80E1003080518030807B9
:10571000200308092803080B3003080D3803080F7D
:105720005003480558034807600348096803480BBD
:105730007003480D7803480F900388059803880785
:10574000A0038809A803880BB003880DB803880F4D
:10575000D003C805D803C807E003C809E803C80B8D
:10576000F003C80DF803C80F180410062004100831
:105770002804100A3004100C3804100E5804500687
:10578000600450086804500A7004500C7804500EED
:1057900098049006A0049008A804900AB004900C05
:1057A000B804900ED804D006E004D008E804D00A6B
:1057B000F004D00CF804D00E1805100720051009CD
:1057C0002805100B3005100D3805100F580550072F
:1057D000600550096805500B7005500D7805500F95
:1057E00098059007A0059009A805900BB005900DAD
:1057F000B805900FD805D007E005D009E805D00B13
:10580000F005D00DF805D00F200618082806180A54
:105810003006180C3806180E600658086806580A34
:105820007006580C7806580EA0069808A806980A24
:10583000B006980CB806980EE006D808E806D80A14
:10584000F006D80CF806D80E200718092807180B00
:105850003007180D3807180F600758096807580BEC
:105860007007580D7807580FA0079809A807980BDC
:10587000B007980DB807980FE007D809E807D80BCC
:10588000F007D80DF807D80F2808200A3008200C98
:105890003808200E6808600A7008600C7808600EEE
:1058A000A808A00AB008A00CB808A00EE808E00AF2
:1058B000F008E00CF808E00E2809200B3009200D54
:1058C0003809200F6809600B7009600D7809600FB6
:1058D000A809A00BB009A00DB809A00FE809E00BBA
:1058E000F009E00DF809E00F300A280C380A280EFC
:1058F000700A680C780A680EB00AA80CB80AA80EDC
:10590000F00AE80CF80AE80E300B280D380B280FC7
:10591000700B680D780B680FB00BA80DB80BA80FB3
:10592000F00BE80DF80BE80F380C300E780C700E09
:10593000B80CB00EF80CF00E380D300F780D700F5B
:10594000B80DB00FF80DF00F00020000C8450008B8
:10595000C8550008C0010000000000000000000061
:105960003031323334353637383941424344454695
:10597000403058003031323334353637383961628F
:105980006364656640307800040000080000000091
:1059900000000002000100001000000000000000F4
:1059A0006E83F9A22915444ED15727FCC0DD34F58A
:1059B000999562DB4190433CAB6351FE3031323309
:1059C0003435363738396162636465667870003023
:1059D00031323334353637383941424344454658FD
:1059E0005000000002400000000000A00000000085
:1059F00005400000000000C8000000000C4000004E
:105A00000000409C00000000194000000020BCBEC7
:105A10000000000034400000BFC91B8E00000004DD
:105A2000B5400000504BCFD06607E2CF0100000028
:105A30006C4100003E8251AADFEEA7340100000055
:105A4000D9420000DCB5A0E23A301F97FFFFFFFF0C
:105A5000B4450000FD25A0C8E9A3C14FFFFFFFFF2B
:105A6000FF3F00000000008000000000FF3F00003A
:105A70000000008000000000C45B0008000000205F
:105A80001000000014020008D45B00081000002081
:105A9000F0260000300200081C0000004300000057
:105AA000F8FFFFFF0C0000000E0000000F000000D8
:105AB0002E0000001001000043000000F8FFFFFF6F
:105AC0000040404040404040404041414141414011
:105AD00040404040404040404040404040404040C6
